:020000040800F2
:1000000028680020DD010008031D0008E11B00082E
:10001000011D00081D030008913F000800000000BA
:10002000000000000000000000000000131D000898
:100030007103000800000000111D0008151D0008D4
:10004000F7010008F7010008F7010008F7010008B0
:10005000F7010008F7010008F7010008F7010008A0
:10006000F7010008F7010008F7010008F701000890
:10007000F7010008F7010008F7010008F701000880
:10008000F7010008F7010008F7010008F701000870
:10009000F7010008F7010008F7010008F701000860
:1000A000F7010008F7010008F7010008F701000850
:1000B000F7010008F7010008F7010008F701000840
:1000C000F7010008F7010008F7010008F701000830
:1000D000F7010008F7010008F7010008F701000820
:1000E000F7010008F7010008F7010008F701000810
:1000F000F7010008F7010008F7010008F701000800
:10010000F7010008F7010008F7010008F7010008EF
:10011000F7010008F7010008F7010008F7010008DF
:10012000F7010008F7010008F7010008F7010008CF
:10013000F70100080000000000000000F7010008BF
:10014000F7010008F7010008F7010008051D000885
:10015000F7010008F7010008F7010008F70100089F
:10016000F7010008F7010008F7010008F70100088F
:10017000F7010008F7010008F7010008000000007F
:1001800000000000F701000800000000000000006F
:10019000F70100080000000000000000F70100085F
:1001A000000000000000000000000000F70100084F
:1001B000F7010008F7010008F7010008F70100083F
:1001C000F7010008DFF810D000F096F8004800476B
:1001D0006D510008AFF30080286800200648804772
:1001E00006480047FEE7FEE7FEE7FEE7FEE7FEE71C
:1001F000FEE7FEE7FEE7FEE7CD1D0008C5010008AB
:100200002DE9F05F0546002092469B46884606464B
:10021000814640241BE0284641464746224600F0DE
:100220005AF853465A46C01A914110D311461846FF
:10023000224600F041F82D1A67EB01084F4622468E
:100240000120002100F038F817EB00094E41201E74
:10025000A4F10104DFDC484631462A464346BDE8A6
:10026000F09F40EA01039B0703D009E008C9121F71
:1002700008C0042AFAD203E011F8013B00F8013B60
:10028000521EF9D27047D2B201E000F8012B491E8C
:10029000FBD270470022F6E710B513460A46044623
:1002A0001946FFF7F0FF204610BD421C10F8011B55
:1002B0000029FBD1801A7047202A04DB203A00FA7B
:1002C00002F1002070479140C2F1200320FA03F3AD
:1002D000194390407047202A04DB203A21FA02F0AB
:1002E0000021704721FA02F3D040C2F12002914070
:1002F0000843194670470000064C074D06E0E068C9
:1003000040F0010394E8070098471034AC42F6D35C
:10031000FFF75CFF98560008B8560008FEE700009B
:1003200010B500224FEA020100EB8203521CC3F811
:1003300084130F2AF8D300224FF400738418521C40
:1003400084F81C119A42F9D3017041700122827025
:10035000C0F8C413027640238371417680F81C13E1
:1003600080F81D2380F81F1380F81E13002010BD95
:10037000704772B6FEE70022AFF3008030B50E4B37
:10038000054601205C7A002C14D1587A1C54587A06
:1003900003EB800045605D7A03F108002A54587A27
:1003A000421C5A72303008703A2048702F208870F2
:1003B000CC70002030BD00001C28002070B5044621
:1003C00000F0EEF80546601C02D0044800780444B2
:1003D00000F0E6F8401BA042FAD370BD18000020E0
:1003E0002DE9F84F00224FF0010803254FF00F0EC2
:1003F0000B6808FA02F42340A3426ED14E68012E26
:1004000005D0022E03D0112E01D0122E12D18668F3
:100410004FEA420C05FA0CF7BE43CF6807FA0CF717
:10042000374387604668A6430C79C4F300149440B0
:1004300034434460C668570005FA07FC8C6826EA16
:100440000C06BC403443C4604C68022C01D0122C12
:1004500013D1D40800EB8404A346D4F820905407A9
:100460004FEAD46A0EFA0AF629EA06090E6906FA74
:100470000AF646EA0906CBF8206006680C7926EAF7
:100480000C0604F00304BC40344304604C68E400F0
:1004900060D5334C266846F480462660246822F0F6
:1004A000030604F4804400942E4C3444A446D4F84B
:1004B00008489607370F0EFA07F6B4432A4EB042A3
:1004C00001D100261FE0294EB04201D101261AE0D9
:1004D000274EB04202D1022615E03BE0254EB04245
:1004E00001D103260FE0244EB04201D104260AE0D8
:1004F000224EB04201D1052605E0214EB04201D185
:10050000062600E00726BE402643CCF808681D4EAC
:1005100034684F689C43FF0300D51C433460194E78
:10052000361D34684F689C43BF0300D51C433460BC
:10053000144E083634684F689C43FF0200D51C43B4
:100540003460104E0C3634684F689C43BF0200D5AF
:100550001C433460521C102AFFF44AAFBDE8F88FE8
:1005600044380240003001400000024000040240D4
:1005700000080240000C024000100240001402403B
:1005800000180240003C0140426931EA020200D1F9
:100590000904816170470AB1816170470904FBE772
:1005A000014880687047000018000020D0F8C002A1
:1005B00002F009B8D0F8C00202F00FB8006803F0EA
:1005C000D7B9006803F0D8B901EB810100EBC10095
:1005D00090F85C00704701EB810100EBC100C06C3A
:1005E000704710B5044690F8B802012809D00120E0
:1005F00084F8B802206803F0CAF9002084F8B80231
:1006000010BD022010BD2DE9FE430546DDE90B704B
:1006100095F8B842DDF828C0012C1CD001EB81040C
:100620004FF0010905EBC40485F8B892002684F860
:100630003D6084F83830A4F8400084F8391084F81C
:100640003F7002F07F0884F83A805FEA026805D5BF
:1006500084F83B9004E00220BDE8FE8384F83B6010
:1006600084F83CC0CDF800C0CDE90170286803F0E3
:10067000EFF985F8B862EFE770472DE9F0030E4611
:10068000DDE906C9DDE9087401EB860100EBC10173
:10069000022581F83B2081F83F30BCF1000F0AD0E1
:1006A00081F8425000246BB1012B2DD0022B12D0C7
:1006B000032B16D10FE04FF0030881F8428081F838
:1006C0003D40EFE7BCF1010F0BD152B9CFB9012288
:1006D00081F8512003E0A2B191F85020A2B181F835
:1006E0004250C1E9119781F85C40CC6481F83960CF
:1006F00081F85D40027C0068BDE8F003383103F00A
:1007000023BA91F85120E9E781F84240E9E7000077
:100710002DE9F04104460068064603F034F901284B
:100720007ED1206803F070FB002879D0206803F0A8
:100730006BFB800203D521684FF4001048612068EC
:1007400003F062FBC00203D521684FF480104861BA
:10075000206803F059FB400103D521684FF0806009
:100760004861206803F050FB800702D52168022011
:100770004861206803F048FB80000ED521684FF0E7
:1007800000504861D6F84004C00706D12046FFF764
:1007900011FF0121206803F0E3FA206803F034FB25
:1007A000C00102D5204601F099F9206803F02CFB26
:1007B000000705D5204600F0D4F8216808204861DC
:1007C000206803F021FB800123D5206803F0B8F9ED
:1007D000074600254FF0010814E000BF05F00F01A7
:1007E00008FA01F038420CD006EB4510D0F80005AD
:1007F000E9B20004204602D500F012FF01E001F04A
:100800004BF86D1CA068A842E8D821684FF0007032
:100810004861206803F0F8FAC043C0060ED400E037
:100820000CE02068816921F010018161204601F00F
:100830009FF92068816941F010018161BDE8F08174
:1008400070B58AB0040005D094F8B9022568002676
:1008500018B107E001200AB070BD84F8B8622046E4
:1008600000F028F8032084F8B902E86BC00500D432
:100870002661206803F026F804F1100128220D46B5
:100880006846FFF7EEFC94E80F0002F0C5FF012177
:10089000206803F0E4FA282229466846FFF7E1FCC5
:1008A00094E80F0003F0F8F9012084F8B902002061
:1008B000D1E7000030B587B0044614216846FFF741
:1008C000E9FC2068B0F1A04F39D11E48002401682E
:1008D00041F00101016000681B4D00F0010005902E
:1008E0004FF40070CDE90004694628460294FFF7F2
:1008F00077FD4FF4C05000900220CDE901040320A1
:1009000003900A20049069462846FFF769FD0D48C8
:10091000001D016841F0800101600A48143001683F
:1009200041F4804101600068002200F4804005909D
:100930001146432000F0ACF8432000F09BF807B0CC
:1009400030BD00003038024000000240D0F8C00244
:1009500001F0D4BED0F8C00201F0D4BE006803F0AC
:1009600065BAD0F8C00201F084BE10B5044690F814
:10097000B80201280DD0012084F8B802206802F0E6
:10098000CFFF0121206802F0B5FF002084F8B802F3
:1009900010BD022010BD10B5044690F8B802012821
:1009A00009D0012084F8B802206803F06FFA002013
:1009B00084F8B80210BD022010BD00000248816812
:1009C0000278114481607047180000200B4810B570
:1009D000016841F400710160016841F480610160C7
:1009E000016841F480710160032000F071F800207B
:1009F00000F006F800F024F8002010BD003C024092
:100A000070B50D4D04464FF47A712878B1FBF0F0C3
:100A10000A490968B1FBF0F000F02AFD48B9102C32
:100A200007D200222146501E00F032F800206C60F0
:100A300070BD012070BD00001800002024000020BF
:100A40000B4882B0016841F480410160006800F405
:100A5000804000900648001F016841F0805101600D
:100A6000006800F080500090072002B000F030B81D
:100A700044380240002809DB00F01F0201219140A8
:100A80004009800000F1E020C0F80011704700002C
:100A9000F0B40E4B1B680C46C3F30223C3F10705E9
:100AA000042D00D90425191D072901D2002300E0D7
:100AB000DB1E012606FA05F1491E214099409E40A1
:100AC000761E16403143F0BC03F076BA0CED00E020
:100AD000064900F0070208684FF6FF03184040EA95
:100AE0000220034A10430860704700000CED00E04C
:100AF0000000FA052DE9F84F044600260078F84D6D
:100B00003746C00708D02868A16B20F0C0600843B2
:100B10002860A06B00B901262078800708D52868D6
:100B2000E16B20F0C05008432860E06B00B901265B
:100B3000207840070ED52868216B20F44010084328
:100B40002860206BB0F5801F01D010B102E00126B3
:100B500000E00127207800070ED52868616B20F49B
:100B6000400008432860606BB0F5800F01D010B1E1
:100B700002E0012600E0012720784FF0000A8006FD
:100B80004FF0010B63D5D6484C38016841F08051D5
:100B900001600068DFF84C9300F080500090D9F8B5
:100BA000001041F48071C9F80010FFF7F9FC80468D
:100BB00006E000BFFFF7F4FCA0EB080002286FD8A6
:100BC000D9F80000C005F5D5DFF81483A8F11C089A
:100BD000D8F8000010F4407024D0B4F8401001F4AC
:100BE000407181421ED0D8F80010BF4A21F44071F4
:100BF000C2F800B0C2F800A0C8F80010D8F8000091
:100C0000C0070FD0FFF7CCFC814607E0FFF7C8FC18
:100C1000A0EB090141F288308142D0D8D8F8000019
:100C20008007F3D5216CAE48C1F301228438032A32
:100C300037D0016821F4F811C0F80010D8F800107E
:100C4000B4F84020C2F30B021143C8F8001020781A
:100C5000C00604D5A54894F85810C0F8E0112078D3
:100C60000106A34805D50168E26C21F44001114357
:100C700001602178490605D50168A26C21F08061E8
:100C8000114301602188C90514D50168626D21F006
:100C9000006111430160616DB1F1006F09D009E09D
:100CA0001DE10268934B22F4F81219400A430260D6
:100CB000C4E701272188890505D50168626C21F008
:100CC0008051114301602188DFF82C92490509D534
:100CD0000168226D21F0005111430160206DB0F1D7
:100CE000005F04D01EB92068B0F5006F7ED1834943
:100CF000C1F868A0FFF754FC794E80468C3E05E0B1
:100D0000FFF74EFCA0EB0800022886D830680001EF
:100D1000F6D421687A48CA0701D0A26B1AB18907B4
:100D200017D5E16BA9B901680268C1F30141491CFB
:100D3000D4E9013C43EA8C1321F0004CC2F3036276
:100D400009EB0C4141EA02610B43217D43EA017149
:100D5000016021684A0703D5226BB2F5801F05D0D8
:100D6000090721D5616BB1F5800F1DD101680268BB
:100D7000C1F30141491CD4E9013C43EA8C1321F041
:100D8000004C09EB0C4194F810C0C2F3027241EA26
:100D90000C610B4343EA027101602968A26A21F0E9
:100DA0001F01521E11432960218849051AD5216D62
:100DB000B1F1005F16D101680268C1F30141491C1D
:100DC000D4E9013C43EA8C13D4F80CC0C2F302729C
:100DD0004FEA5C0809EB084C4CEA41610B4343EADB
:100DE000027101602188090511D500E01FE0D4E9F6
:100DF000011241EA8211E268530809EB0342237CA5
:100E000042EA03621143227D41EA027101603B49DB
:100E1000C1F868B0FFF7C4FB804605E0FFF7C0FBF0
:100E2000A0EB0800022874D830680001F6D5EFB3B3
:100E3000DFF8C880C8F870A0FFF7B2FB304E074655
:100E4000843E04E0FFF7ACFBC01B022861D8306889
:100E5000C0438000F6D521682A484A0701D5226B95
:100E60001AB109071DD5616BD9B90168D4E9062308
:100E7000C1F30141491C42EA831221F0004309EB0E
:100E8000034194F8243041EA03610A43026029686F
:100E9000E26A6FF0FF0321F4F85103EB02221143E1
:100EA00029602188C90514D5616D00E038E0B1F1F1
:100EB000006F0ED10168D4E9062342EA8312236A47
:100EC000C1F303615C0809EB044343EA01610A438F
:100ED0000260C8F870B0FFF763FB04461CE018E03E
:100EE0008C38024000700040400E474200104742DC
:100EF00094380240FFFCFF0F0000FFFF0000474254
:100F00008438024088380240FFF74AFB001B022861
:100F100002D90320BDE8F88F3068C0438000F3D4C5
:100F20000020F7E72DE9F0470E46050065D0DFF811
:100F30001481D8F80000F7B200F00F00B04207D2D9
:100F400088F80070D8F8000000F00F00B04254D1CB
:100F500028683D4C810712D5400703D5206840F42E
:100F6000E05020602878000703D5206840F46040F6
:100F700020602068A96820F0F000084320602878ED
:100F8000C0072DD0304968680839012812D00228DE
:100F900013D0032811D00968890700292DDA2168A8
:100FA00021F0030101432160FFF7FAFA814641F283
:100FB000883A0EE009688903EFE709688901ECE7E0
:100FC000FFF7EEFAA0EB0901514502D90320BDE875
:100FD000F0872068696800F00C00B0EB810FEFD15A
:100FE000D8F80010404601F00F01B14207D9077050
:100FF000006800F00F00B04201D00120E7E7287838
:10100000400705D52068E96820F4E05008432060D7
:101010002878000706D52068296920F4604040EA56
:10102000C100206000F038F82168084AC1F30311BC
:10103000515CC8400649086006480068FFF7E0FCBC
:101040000020C4E7003C024008380240E055000898
:10105000240000201C00002004480549006809689D
:10106000044AC1F38221515CC8407047240000202B
:1010700008380240F055000804480549006809682E
:10108000044AC1F34231515CC8407047240000203B
:1010900008380240F0550008224810B5006810F0EA
:1010A0000C02214815D04110042A11D01D4C241FD8
:1010B000082A0FD00C2A0CD12268236802F03F02C4
:1010C0005B0221D52068C0F38810A0FB010120E05D
:1010D000084610BD2268236802F03F025B0205D576
:1010E0002068C0F38810A0FB010104E02168C1F36F
:1010F0008811A1FB00010023FFF782F82168C1F3EA
:101100000141491C49000AE02168C1F38811A1FB93
:1011100000010023FFF774F82168C1F30271B0FBEE
:10112000F1F010BD083802400024F4002DE9F84F1A
:101130000546DFF828B30078ABF10407C007A7F134
:10114000040451D0DBF800105846C1F38101012995
:101150000FD00168C1F38101022902D13968490227
:1011600007D40068C0F38100032809D13868400221
:1011700006D52068800337D56868002872D033E030
:101180006868B0F5803F10D0B0F5A02F206810D06F
:1011900020F480302060206820F48020206068687F
:1011A000A8B1FFF7FDF906460DE0206840F4803055
:1011B000F4E740F480202060F7E700BFFFF7F0F984
:1011C000801B642878D820688003F7D50CE0FFF7EF
:1011D000E7F9064605E000BFFFF7E2F9801B642847
:1011E000F0D820688003F7D42878DFF8749280075D
:1011F0004FF0000A46D5DBF80010584611F00C0FEE
:101200000FD00168C1F38101022902D13968490276
:1012100007D50068C0F38100032809D1386840026F
:1012200006D42068800715D5E86801281AD111E096
:10123000E868C0B10120C9F80000FFF7B1F906461F
:1012400005E000BFFFF7ACF9801B0228BAD8206880
:101250008007F7D52068296920F0F80040EAC1002E
:1012600020600FE0F7E0C9F800A0FFF799F9064603
:1012700005E000BFFFF794F9801B02281CD8206806
:101280008007F7D42878000727D5DFF8D081754884
:10129000696908F16C0881B101210160FFF780F9EB
:1012A000064604E0FFF77CF9801B022804D8D8F832
:1012B00000008007F6D510E089E0C0F800A0FFF735
:1012C0006FF9064605E000BFFFF76AF9801B0228A8
:1012D0007DD8D8F800008007F6D42878400769D573
:1012E0005E484FF0000838300068C0000BD45B48FF
:1012F0003830016841F08051016000684FF001080A
:1013000000F080500090584E3068C00511D430680D
:1013100040F480703060FFF743F9009006E000BFB2
:10132000FFF73EF90099401A022850D83068C005EE
:10133000F6D54A4EA868683601280FD005283068CF
:1013400010D020F001003060306820F004003060E0
:10135000A868B8B1FFF724F900900FE0306840F0BA
:101360000100F4E740F004003060F7E7FFF718F9F8
:101370000099411A41F28830814264D83068800770
:10138000F4D50EE0FFF70CF9009007E0FFF708F93D
:101390000099411A41F28830814254D83068800760
:1013A000F4D4B8F1000F05D02C483830016821F092
:1013B00080510160A869A8B3DBF80010C1F3810176
:1013C000022948D00228C9F860A005D000E03AE020
:1013D000FFF7E6F8054639E0FFF7E2F8064604E0D5
:1013E000FFF7DEF8801B02282DD820688001F7D493
:1013F000F5E907010843E9681C4A490802EB014185
:10140000AA6841EA82110843297C40EA0160297DEB
:1014100040EA017038600120C9F86000FFF7C0F8A9
:10142000054606E015E000BFFFF7BAF8401B0228AA
:1014300009D820688001F7D50BE000BFFFF7B0F8AE
:10144000401B022802D90320BDE8F88F20688001E4
:10145000F4D40020F8E70120F6E700000838024045
:1014600000004742800E4742007000400000FFFF2E
:1014700010B5401EB0F1807F01D3012010BD4FF0A8
:10148000E02460610F21601702F096FD0020A0614A
:1014900007202061002010BD70B5040004D094F82E
:1014A0003900002510B106E0012070BD84F83850E5
:1014B000204600F023F8242084F839002068C16811
:1014C00021F40051C160204600F08EFC20680169C3
:1014D00021F4904101612068416921F02A014161B4
:1014E0002068C16841F40051C160E563202084F8A0
:1014F000390084F83A00002070BD000010B586B0B5
:10150000044614216846FEF7C5FE13492068884248
:1015100020D112480021026842F4003202600068C3
:1015200000F4003005900D481038026842F00102C6
:101530000260006800F0010005900C20009002207D
:10154000CDE9010103200390072004906946044877
:10155000FEF746FF06B010BD004400404038024090
:10156000000002402DE9F843044690F839001F4678
:1015700016460D46202850D1B5B1AEB194F83800CA
:1015800001284AD0012084F838004FF00008C4F840
:101590003C80212084F83900FFF702F8A6848146B8
:1015A000E68484F8388026E00120BDE8F883E08CEA
:1015B000401EE084A0684B46B0F5805F4FF000020B
:1015C0004FF080012046009703D000F0A1FCE8B95D
:1015D0000DE000F09DFCC8B928882168C0F3080020
:1015E0004860206908B16D1C05E0AD1C03E021686E
:1015F00015F8010B4860E08C0028D8D14B4600223A
:1016000040212046009700F083FC08B10320CCE77E
:10161000202084F839000020C7E70220C5E7000039
:101620002DE9F05F074600680E4600EB4114D4F840
:1016300008054FF00409420701EB86004FF0050B47
:101640004FF0100807EBC00508D5C4F80895D4F88A
:101650000C0540F00200C4F80C0542E0D4F808057F
:10166000C0050DD54FF48070C4F80805072085F833
:101670005D00D4F80C0540F00200C4F80C0517E03A
:10168000D4F80805800601D5202028E0D4F8080504
:101690004FF0080A00070FD5D4F80C0540F00200FF
:1016A000C4F80C0585F85DB0C4F80885C4F808A531
:1016B000386802F06CF914E0D4F80805400510D53C
:1016C000D4F80C0540F00200C4F80C05386802F0AC
:1016D0005EF9C4F8088585F85DA04FF48060C4F811
:1016E0000805D4F8080580050ED5D4F80C0540F09F
:1016F0000200C4F80C05314604F5A164386802F014
:1017000046F94FF40070A4E0D4F808054FF000014A
:10171000C0074FF0010242D0386930B1A86CD4F84C
:101720001035C3F31203C01AE86485F85D20A9657B
:10173000C4F8082595F83F0030B1022804D00328EA
:1017400011D0012818D023E0D4F80C0540F0020095
:10175000C4F80C05314604F5A164386802F017F9A5
:10176000C4F8008014E0D4F8000540F00050C4F83C
:10177000000585F85C2007E085F85C2095F85000AE
:1017800080F0010085F8500031463846FEF774FFBE
:1017900015F8500F80F001002870BDE8F09FD4F8D4
:1017A000080580073ED5D4F80C0520F00200C4F8E7
:1017B0000C0595F85D00022301280AD005280BD0FE
:1017C00006280CD008280AD003281AD007281BD0D6
:1017D0001FE085F85C201CE085F85CB019E0A86D7E
:1017E000401CA86503280CD9A96585F85C9000BF4A
:1017F000D4F8000520F0804040F00040C4F8000517
:1018000007E085F85C30F3E7A86D401CA86585F813
:101810005C90C4F8083595F85C2031463846FEF7F0
:101820002BFFBAE7D4F80805000614D5D4F80C0548
:1018300040F00200C4F80C05A86D3146401CA865B4
:10184000062085F85D0004F5A164386802F09FF871
:1018500080202060A1E7D4F80805C0069DD595F842
:101860003F00032803D020B1022802D011E0A9656F
:1018700005E0A965386960B9032085F85D00D4F8F2
:101880000C0540F00200C4F80C053146386802F03F
:101890007EF8C4F8088580E72DE9F047026802EB7E
:1018A0004114D4F808254FF00403520709D5C4F8B1
:1018B0000835D4F80C0540F00200C4F80C05BDE86A
:1018C000F087D4F8082501EB810596064FF0000259
:1018D00000EBC5054FF0020C15D52023C4F80835E0
:1018E00095F83D30012BEAD185F83D2085F85CC0A4
:1018F000D4F80C2542F00202C4F80C250068BDE8BB
:10190000F04702F044B8D4F8086577064FF00106B6
:1019100011D585F85D3085F83D60AA65D4F80C25B1
:1019200042F00202C4F80C25006804F5A16402F03C
:101930002EF8402010E0D4F80875BF050ED5D4F875
:101940000C2542F00202C4F80C25006804F5A164DD
:1019500002F01DF84FF400702060B0E7D4F808756D
:10196000FF070FD0AA65D4F80C2542F00202C4F894
:101970000C25006804F5A16402F009F8266085F8DA
:101980005D609CE7D4F808754FF005095FEA0778B9
:101990004FF008070DD5C4F80875D4F80C2542F0AF
:1019A0000202C4F80C25006801F0F1FF85F85D9093
:1019B00085E7D4F808854FF0100A5FEAC86818D5A3
:1019C000AA65032285F85D2095F83D2022B995F897
:1019D0003C200AB985F83D60D4F80C2542F002029B
:1019E000C4F80C25006804F5A16401F0D0FF50464E
:1019F000B2E7D4F808855FEA08680FD5D4F80C255B
:101A000042F00202C4F80C25006804F5A16401F05C
:101A1000BEFF062085F85D0080209DE7D4F808858C
:101A20005FEA485812D5D4F80C2542F00202C4F8F7
:101A30000C25006804F5A16401F0A9FFC4F800A01A
:101A40004FF48060206085F85D7038E7D4F8087541
:101A5000BF0796D5D4F80C7527F00207C4F80C75AB
:101A600095F85D70012F0AD0032F17D0042F15D0E1
:101A7000052F16D0062F17D0082F15D027E085F890
:101A80005C6095F83F20022A01D0032A1FD195F807
:101A9000512082F0010285F8512018E085F85CC0E1
:101AA00015E085F85C9012E0AE6D761CAE65032EF5
:101AB00003D9AA6585F85C3001E085F85CC0D4F8EC
:101AC000002522F0804242F00042C4F80025C4F80C
:101AD00008C595F85C20FEF7CFFDF0E67CB50468FC
:101AE0000546D4F840040190D4F8400420F02E00BC
:101AF00000900198800709D50198C00702D02846B8
:101B0000FEF754FD009840F0020000900198000795
:101B100024D5009840F008000090019840071AD59D
:101B2000A869022803D0E86801280CD00FE00198CA
:101B3000C0F341400228286803D0012102F010F9C7
:101B400005E00221FAE74EF66020C4F804042846B6
:101B5000FEF700FF02E02846FEF7F8FE0198800637
:101B6000009802D540F020000090C4F840047CBDED
:101B70002DE9F041024600680646016AC1F343437D
:101B800001F00F07C1F30A14022B25D1002C23D03A
:101B900007EB870102EBC105696C00291CD02246C6
:101BA00002F036F9686C20446864E86C2044E8640C
:101BB00006EB4710D0F81015084A11420CD0D0F8A7
:101BC000001521F0804141F00041C0F8001515F8E2
:101BD000500F80F001002870BDE8F0810000F81F70
:101BE000FEE7000020B1002201210248FEF7D3BC2D
:101BF0000122F9E70008024010B504490448FEF745
:101C0000BAFB0249491E087010BD00000D000020FB
:101C1000CC550008F0B587B014216846FEF73AFBB2
:101C200021480024016841F004010160016801F0CD
:101C300004010591016841F080010160016801F033
:101C400080010591016841F0010101600068174EB3
:101C500000F001000590002201213046FEF79BFCB8
:101C6000134F002220213846FEF795FC4FF4005018
:101C7000CDE90004694630460294FEF7B1FB012528
:101C80000095CDE90154694630460394FEF7A8FB60
:101C900020200090CDE90154694638460394FEF7B0
:101CA0009FFB07B0F0BD0000303802400008024042
:101CB0000000024010B501220B490C4800F05BFC0B
:101CC00008B1FEF756FB0A49084801F0BFFC08B10D
:101CD000FEF74FFB054801F0FCFC002803D0BDE8EF
:101CE0001040FEF746BB10BDE93600086021002019
:101CF00030000020014801F095BB00006021002069
:101D0000FEE7FEE70148FEF703BD0000382500208E
:101D100070477047FEF752BE30B5ABB0342117A8FC
:101D2000FEF7B8FA142124A8FEF7B4FA5C2168463D
:101D3000FEF7B0FA23480024016841F080510160A9
:101D4000006800F0805029901F48016821F440414C
:101D500041F4804101600068022500F44040299070
:101D600001201790000418908001CDE91D50042037
:101D70001F904820CDE920050320CDE9220517A8B2
:101D8000FFF7D4F908B172B6FEE70F20CDE92405BC
:101D90004FF48050CDE92640022124A82894FFF773
:101DA000C1F808B172B6FEE74FF480700090159448
:101DB0006846FEF79FFE002801D072B6FEE72BB002
:101DC00030BD000040380240007000400548016806
:101DD00041F47001016003494FF0006080390860F0
:101DE0007047000088ED00E02DE9F04104460068EE
:101DF0000169E26821F44051114301612169A06841
:101E0000E26908436169114308432168CA6849F2DD
:101E10000C639A430243CA6020684169A26921F4B5
:101E2000407111434161E069192764253226B0F5FC
:101E3000004F354A354920684FF0000806D08842E7
:101E400001D0904236D1FFF717F935E0884201D032
:101E5000904202D1FFF710F901E0FFF7FDF8616849
:101E60004A18A0FB070148EB0803FEF7C9F9014631
:101E7000B0FBF5F00201B1FBF5F06FF01803584329
:101E800001EB800006EBC000B0FBF5F000F0F800BD
:101E900002EB4002B1FBF5F0584301EB800006EB8A
:101EA000C000B0FBF5F000F0070021681044886026
:101EB000BDE8F081FFF7D0F861688B0F8A00A0FBC6
:101EC0000701FEF79DF90146B0FBF5F06FF018022F
:101ED000504301EB800006EB0010B0FBF5F000F082
:101EE000F002B1FBF5F002EB0012B1FBF5F06FF080
:101EF0001803584301EB800006EB0010B0FBF5F02F
:101F000000F00F00D1E70000001401400010014074
:101F10002DE9F041984617460E460446069D1DE001
:101F2000681C1BD02DB1FEF73BFBA0EB0800A842BC
:101F300014D92068C16821F4D071C160206841695A
:101F400021F001014161202084F8390084F83A0031
:101F5000002084F838000320BDE8F0812068006884
:101F600036EA000004D00020B842D9D00020F3E7C0
:101F70000120F9E710B500224FF6FF7300EB820451
:101F8000B4F8844324040BD49A4207D002F00F0320
:101F900000EB830041F40041C0F88413D0B210BDBF
:101FA000521CD2B20B2AE9D31A46F7E77FB51C467A
:101FB000012501AE0023009586E80E0002232A4683
:101FC000214600F0D1FB04B0002070BD7FB51D4656
:101FD00090F81D33089C03B100240123CDE90031A2
:101FE000CDE9022402230022294600F0BDFB04B003
:101FF000002070BD10B500F0DDFA002010BD827821
:10200000012A07D102220274012242740022428274
:102010008182C2820022114600F00FB87FB51C46B3
:10202000012501AE0023009586E80E002A462146D0
:1020300000F09AFB04B0002070BD70B5044601208A
:10204000A3780546012B0BD0022B08D1204600F0C7
:1020500014F958B1032809D0022800D1A57070BD29
:10206000A160A28125760221A17070BDA57000211A
:10207000217670BD7FB51D4690F81D33089C03B1D5
:1020800000240123CDE90031CDE9022400231A46C2
:10209000294600F069FB04B0002070BD1FB5002385
:1020A0001446CDE900310822CDE902231A46214623
:1020B00000F05AFB04B0002010BDFEF77FB900000D
:1020C00070B50546002005F54E7500BF00EB800495
:1020D00004EBC00405EB4404E67B0A348E4201D0D5
:1020E000FF2909D1A679964201D0FF2A04D1E479CB
:1020F0009C4206D0FF2B04D0401CC0B20228E5D37E
:10210000FF2070BD0B2907D200EB8100B0F88413CB
:10211000C1F30E01C0F884130020704730B48578F5
:10212000029C012D0FD141F0800101740621417400
:1021300003214282B1EB122F02D140F2094100E0AB
:1021400000218182C482224630BC1946FFF775BF48
:102150000A8803781A440A80017808447047F8B561
:102160000E4600F11C05009104462B464FF4007208
:102170000021FFF7D3FF070005D13246294604F5B9
:102180004E7001F0E1F83846F8BD38B50D460091C3
:10219000044600F58E734FF480720021FFF7BEFFF6
:1021A000002839D194F81C1184F8261394F81D11D5
:1021B00084F82713B4F81E11A4F8281394F82011FA
:1021C00084F82A1394F8211184F82B1394F822111F
:1021D00084F82C1394F8231184F82D13082D1BD99F
:1021E000B4F82411A4F82E13B4F82611A4F830136F
:1021F000B4F82811A4F8321394F82A1184F834138F
:1022000094F82B1184F8351394F82C1184F83613B4
:1022100094F82D1184F8371338BDF8B51C461646CE
:10222000009341F4407200F58E731D460021FFF7C4
:1022300075FF002814D16978032911D129788A1EE5
:10224000A24200D814460021A2B2AD1C04E06B5C8F
:10225000891C06F8013B89B29142F8D30021317004
:10226000F8BD01004FF0000004D0012901D002297F
:1022700001D002207047012070472DE9F84F012559
:10228000017E04460B26092728464FF007084FF029
:10229000050A4FF00D090C2919D2DFE801F0B40648
:1022A0000E26313C48606B7C899A627904F11001FA
:1022B0002046FFF7F3FE022012E06179204600F08D
:1022C000D4F9012804D0042871D002287FD09AE0E4
:1022D000207CE18A00F0800021B180283AD10320DF
:1022E000207690E0802814D02EE0D4F8C403E0815A
:1022F0002379A2892046A168FFF790FE0420EFE72A
:102300002179204600F0B1F9012802D0052840D0FB
:1023100056E0277677E000906379A2892046A1688D
:10232000FFF7A8FED4F8C403E0810620D8E761795E
:10233000204600F09AF9012806D0052807D0022887
:1023400008D0042809D05EE084F818805BE00C20F7
:1023500020761EE084F818A055E0267652E0002290
:10236000237911462046FFF759FED4F8C403E081D3
:102370000820B5E72179204600F077F9012804D03C
:10238000042824D0052804D03DE084F818900025C6
:1023900039E0032537E0009000226379114620469A
:1023A000FFF768FED4F8C403E0810A2098E70EE046
:1023B0006179204600F059F9012804D00228A8D0FC
:1023C000042804D01FE0002584F818901BE026762E
:1023D00019E0617E491CC9B26176022902D82076D3
:1023E000A07010E0D4F8D4230621204690470025A1
:1023F000657661792046FFF785FE21792046FFF753
:1024000081FE257002252846BDE8F88F2DE9FE43A0
:1024100004460126407800250D27B04604F58E724B
:1024200008280CD2DFE800F0042A3C686F869299F5
:1024300008212046FFF7A9FE10B103280DD097E030
:1024400094F82D03A07184F8018094F81D13009175
:10245000CDE9015094F81C3338E094F81E03401C79
:10246000C0B284F81E03032818D861792046FFF70C
:1024700049FE21792046FFF745FE59E0122120460A
:10248000FFF783FEA8BB022047E000BF94F81E03BD
:10249000401CC0B284F81E03032840D9277067E0AF
:1024A0000121204601F0EBF810B1032822D05FE0B3
:1024B0000220FFF702FE84F81C8303206070A079DD
:1024C00094F81D13CDE9001543460290217980222E
:1024D000204600F02FFFA07994F81D130091CDE95C
:1024E000015094F81C3361790022204600F022FF4D
:1024F0003EE00EE027702EE009212046FFF72FFE78
:1025000038B9042009E0B4F83A132046FFF727FE53
:1025100010B10328BAD02BE00520607028E0617963
:102520002046FFF7EFFD21792046FFF7EBFD6570B0
:1025300025701DE094F8341306250AE0FF23204699
:10254000FFF76BFE38B1032805D011E094F835137E
:1025500007250029F2D165700AE094F8361331B1ED
:10256000FF232046FFF759FE08B1032800D10026BB
:102570003046BDE8FE8370B50E46040018D084F8DE
:10258000CC230025C4F87C53C4F8805304F5487468
:10259000FDF7C6FEE57025706570A570A4F548745A
:1025A0000EB1C4F8D463204600F072F8002070BD6C
:1025B000022070BD10B5D0F8D003FEF712F8BDE8C8
:1025C0001040FFF74EBE012180F82013002180F853
:1025D000211380F822130846704710B504460120E5
:1025E00084F82103002084F8200384F82303204684
:1025F00000F0B1F821792046FFF784FD617920468B
:10260000FFF780FD002010BD10B590F8CC03012825
:1026100002D10846FFF7E6FAC820FDF7CFFE0020FA
:1026200010BDD0F8D003FDF7D6BF10B50124D0F807
:10263000D003FDF7C6FF20B1012805D0022803D141
:1026400001E0002400E00224204610BDD0F8D003B1
:1026500001EB810100EBC10090F83B1011B190F843
:102660005000704790F851007047D0F8D003FDF744
:10267000ABBFD0F8C413491CC0F8C41301780B29B0
:1026800005D1D0F87C13002901D08969084770472B
:1026900010B5044690F8CC0301281CD10F484FF028
:1026A000A0410022C0F8C042C4F8D00301600C2150
:1026B00081600121C0E903120221C0E90612FEF780
:1026C000BFF808B1FDF755FE0448FDF777FF014656
:1026D000204600F024F8002010BD0000382500201E
:1026E000FEB508AF97E870008DE87000D0F8D00311
:1026F000FDF789FFBDE8FE40FFF7B3BD002180F87C
:1027000023137047012180F82313704710B5D0F8C8
:10271000D003FEF723F9BDE81040FFF7A2BDC0F8D3
:10272000C4137047D0F8D00301EB810100EBC10066
:1027300090F83B1011B180F8502001E080F8512052
:102740000020704710B5D0F8D003FEF70EF9BDE8B1
:102750001040FFF786BD10B5D0F8D003FEF71BF987
:10276000BDE81040FFF77DBD2DE9FF410DF12808C0
:1027700098E8F0008DE8F000D0F8D003FDF77DFF79
:1027800004B0BDE8F041FFF76CBD03460220D3F86A
:102790007C13C9692AB1012A05D189791846FFF746
:1027A0002EBCC979FAE77047D0F87C030549C069A7
:1027B000416505498165012100F8501F81700020A5
:1027C0007047000055534243504030202DE9F84FE8
:1027D0000746D0F87C0301263546C4694FF00B0A42
:1027E0004FF00A0B94F850004FF009094FF007081A
:1027F0000C2845D2DFE800F0D20611252E4852758C
:102800007EA7AFCB84F86110022084F850000095B9
:1028100063791F2204F1540159E061793846FFF7CA
:1028200024FF012802D002287ED03FE0E06D00287E
:1028300029D094F86000000601D503204BE0052064
:1028400049E0237962893846D4F88C10FFF7AEFB53
:10285000042040E021793846FFF707FF01284FD1D7
:102860006289E06D90420CD9D4F88C10801A114422
:10287000C4F88C10E0656BD023793846FFF796FBDF
:102880008CE00020E06563E000956379228938469A
:10289000D4F88C10FFF79AFB06201CE061793846CB
:1028A000FFF7E3FE012804D00228C8D0052815D080
:1028B00074E02289E06D9042E3D9D4F88C10801A3C
:1028C0001144C4F88C10E06542D000956379384615
:1028D000FFF77CFB62E084F850005FE084F850B0C2
:1028E0005CE023790D2204F178013846FFF75EFBA6
:1028F0000820F0E721793846FFF7B7FE012802D01B
:1029000005281DD04AE004F8505F3846A570D7F876
:102910007C13CC692179FFF784FE0D280CD1214965
:10292000A06F884208D100E036E0A16DE06F8842D8
:1029300002D194F8840008B102262FE000262DE091
:1029400084F850902AE000223846FFF71EFF38B97D
:1029500084F8508022E001223846FFF716FF10B1BC
:10296000042811D01AE061793846FFF76FFEC0F1F4
:102970000100C2B261793846FFF7D4FE2179002206
:102980003846FFF7CFFEDBE784F850A006E0384674
:1029900000F015F8060001D184F850503046BDE82B
:1029A000F88F000055534253A1220274FE22427454
:1029B0000022428282820122C282FFF73EBB212195
:1029C0000174FF214174002141828182C1820A4643
:1029D000FFF733BB70B5D0F87C130125CC69A17B20
:1029E00021B1022902D003292ED127E02146FFF789
:1029F000DBFF00210546032801D01DB124E0217032
:102A0000002504E02078022801D9022001E0207886
:102A1000401C2070002002230CE000BF00EB80026D
:102A200002EBC00204EB8202401C82F8923082F872
:102A3000C110C0B222788242F0D805E00021FFF731
:102A4000DEFA08B9E07BA073284670BD10B51446C5
:102A5000D0F87C230078D3690B2801D0022010BD68
:102A600001EB810000EBC10003EB80013422204622
:102A70009031FDF7F6FB002010BD70B50546D0F88B
:102A80007C030026C469617939B12846FFF7B2FAA0
:102A900061792846FFF736FB6671217939B12846FE
:102AA000FFF7A8FA21792846FFF72CFB2671D5F805
:102AB0007C03C06920B102F039FAD5F87C03C66105
:102AC000002070BDFEB50546D0F87C0350230622D9
:102AD00001792846FFF7F4FA0646FF2823D0022E94
:102AE00021D20146284600F0BFFDE0B94FF48077BF
:102AF000384602F097FBD5F87C130446C8612000E5
:102B000011D03946FDF7C6FB06EB860000EBC60088
:102B100005EB400090F84E130A0606D5E171B0F8B7
:102B20005013618105E00220FEBDA171B0F8501381
:102B3000218190F856130A0604D5E171B0F85803C4
:102B4000608103E0A171B0F8580320810020207358
:102B50006073A073A1792846FFF70CFA6071E179E0
:102B60002846FFF707FA20712846FFF71DFE208947
:102B700095F81D1302260091CDE9016095F81C33EC
:102B8000A2796179284600F0D5FB608995F81D137C
:102B90000091CDE9016095F81C33E279217928464E
:102BA00000F0C8FB217900222846FFF7BBFD6179C0
:102BB00000222846FFF7B6FD0020FEBD2DE9F047B4
:102BC0000746D0F87C034FF0010AC469207B10B19E
:102BD00001282DD12CE1B4F8F800217801254FF01F
:102BE000000888426FD200EB800101EBC00004EBCB
:102BF0008000022680F89150B4F8F8004FF00509E3
:102C000000EB800101EBC00104EB810292F890100F
:102C100009290DD2DFE801F0050C1F880DB10C0C5D
:102C2000FF00042082F89000D7F8C403C4F8FC0029
:102C300000E1C1B238469F3200F08CF940B9B4F8D7
:102C4000F80000EB800101EBC00004EB8000B6E06F
:102C500002287DD099E0C1B2384600F0ABFA10B13D
:102C6000022831D091E0B4F8F80000EB800101EBCC
:102C7000C00004EB800090F8921011B180F8C150B0
:102C800001E080F8C180B4F8F820032002EB820153
:102C900001EBC20104EB810181F89000B4F8F81057
:102CA00001EB810202EBC10104EB810181F891800B
:102CB000B4F8F81001EB810202EBC10104EB8101D1
:102CC00081F89280B6E0AAE0B4F8F80000EB800149
:102CD00001EBC00004EB800090F89210022902D0B2
:102CE00080F8C15001E080F8C180B4F8F81001EB21
:102CF000810202EBC10104EB810181F89090B4F8EC
:102D0000F80000EB800101EBC00004EB800080F8CC
:102D10009150B4F8F80000EB800101EBC00004EB27
:102D2000800080F8926085E0C1B23846943200F0AD
:102D3000BBF900288CD1B4F8F80000EB800101EB5E
:102D4000C00004EB800080F89050B4F8F81000E068
:102D500008E001EB810202EBC10104EB810181F883
:102D6000918031E0B4F8F81001EB810202EBC1016F
:102D700004EB810181F890905CE0C1B238469C324E
:102D800000F0CFF920B1022823D004282DD051E043
:102D9000B4F8F80000EB800101EBC00004EB800008
:102DA00090F89C10062901D002290BD1D7F8C41342
:102DB000D4F8FC20891A42F21072914202D280F8B3
:102DC000906037E080F8905034F8F80F401C208075
:102DD00030E0B4F8F810082001EB810202EBC101E9
:102DE00004EB810181F8900024E0B4F8F80000EBD6
:102DF000800101EBC00004EB800080F89050B4F833
:102E0000F80000EB800101EBC00004EB800080F8CB
:102E100091600FE0FFE7401CA4F8F8000AE0A4F876
:102E2000F8802573D7F8D42302213846904701E073
:102E30004FF0000A5046BDE8F08700002DE9F84346
:102E4000D0F87C2301EB810303EBC103D269012598
:102E500002EB8304082794F890302E46052B22D0ED
:102E600000224FF00508062B02D0072B2AD10CE0D8
:102E7000002300921A4600F0D7F80BE002280FD08A
:102E800018E000BF84F890701BE0002300921A46FF
:102E900000F0B6F90028F1D184F89060002511E027
:102EA00084F890800EE004F19C0200F03AF920B121
:102EB000022807D00428E5D004E004F8906F02202F
:102EC000607002252846BDE8F8832DE9F8430446E2
:102ED000D0F87C03089E0F46C56994F8200360B1C2
:102EE00020780B2809D107EB870000EBC70005EB22
:102EF000800090F89010012902D00220BDE8F883EC
:102F00000621297380F89010A5F8FA7039462046FA
:102F1000009600F089F8D4F8C48340F271204FF095
:102F20000109464309E0D4F8C413A1EB0800B0EB53
:102F3000061F0CD894F8200348B139462046FFF705
:102F40007DFF0128EFD085F80C900020D6E785F8AA
:102F50000C90D2E72DE9F0411546D0F87C230227EA
:102F60000026D4694FF0010894F85220012A02D0BB
:102F7000022A56D126E024208022E06584F86020D1
:102F80000A2284F86220C4F86360C4F86760A4F879
:102F90006B60122284F86320490184F8641084F87D
:102FA000656084F8666084F8670084F868600220D1
:102FB00084F8508084F8520004F110000127C4F80E
:102FC0008C002EE0FFF702FC07002AD122212846C0
:102FD000FDF760F9D4F88C00007800F01F006870ED
:102FE000D4F88C00007840092870D4F88C00407820
:102FF000000602D585F8028000E0AE7054F88C0F10
:1030000010228168C5F80310C068C5F80700216860
:1030100005F10C001031FDF724F92068006AC5F8AD
:103020001D003846BDE8F0812DE9F0411546024605
:103030001F46D2F87C330220069EDC6994F8523099
:10304000012B06D0022B2DD1BDE8F0411046FFF731
:10305000BDBBB4F8980010217043E065802084F86F
:1030600060000A2084F8620004F16300FDF712F9A1
:10307000282084F86300280E84F86500280C84F862
:103080006600280A84F8670084F86850300A84F8DB
:103090006A0084F86B60012004F8500F0220A070D1
:1030A0000120E763BDE8F08170B51646D0F87C23B7
:1030B0000125D46994F85220012A02D0022A2ED187
:1030C0001AE00820E065802084F860000A2084F877
:1030D0006200102104F16300FDF7DCF8252084F87C
:1030E0006300012084F85000022084F8520004F1AB
:1030F0001000C4F88C0012E0FFF768FB05000ED149
:1031000054F88C0F4188427849BA007862F31F4125
:1031100041EA006030602068C08840BAB08028462C
:1031200070BD70B5154602460E46D2F87C130220DB
:10313000CC6994F85210012914D0022911D13146DA
:103140001046FFF743FB00280BD154F88C1F8978F9
:1031500001F00F0129702168097B69702168497BA2
:10316000A97070BD0E258020E56584F860000A20F6
:1031700084F86200102104F16300FDF78BF803204E
:1031800084F86300700184F86400002084F865000E
:1031900084F8660084F8675084F86800012084F899
:1031A0005000022084F8520004F11000C4F88C0092
:1031B000012070BD70B502460220D2F87C33DC6974
:1031C00094F85230012B06D0022B18D1BDE8704084
:1031D0001046FFF7FBBA0025E56584F860500A2029
:1031E00084F86200102104F16300FDF753F884F8BD
:1031F0006350012004F8500F0220A070012070BD20
:103200002DE9F041154602461F46D2F87C330220D4
:10321000069EDC6994F85230012B06D0022B2DD18A
:10322000BDE8F0411046FFF7D1BAB4F8980010217C
:103230007043E065002084F860000A2084F8620092
:1032400004F16300FDF726F82A2084F86300280EB5
:1032500084F86500280C84F86600280A84F8670062
:1032600084F86850300A84F86A0084F86B600120A2
:1032700004F8500F0220A0700120E763BDE8F08140
:1032800000207047D0F87C230078D2690B2808D141
:1032900001EB810000EBC10002EB800090F891008F
:1032A00008B100207047012070472DE9F84304461B
:1032B000D0F87C03089E0F46C56994F8200360B1DE
:1032C00020780B2809D107EB870000EBC70005EB3E
:1032D000800090F89010012902D00220BDE8F88308
:1032E0000721297380F89010A5F8FA703946204616
:1032F0000096FFF785FFD4F8C48340F271204FF0A9
:103300000109464309E0D4F8C413A1EB0800B0EB6F
:10331000061F0CD894F8200348B139462046FFF721
:103320008DFD0128EFD085F80C900020D6E785F8B8
:103330000C90D2E7FEB508AF97E870008DE87000FA
:10334000FFF7CEF90020FEBD2DE9F84105460B78C8
:103350002B704B786B704B886B800B792B714B7992
:103360006B718B79AB71CB790846EB710027097AC9
:103370002972092A54D90921ADF800104BE0694699
:10338000FEF7E6FE4178042943D107EB870101EB04
:10339000C70105EB4108017888F80A10417888F8E0
:1033A0000B10817888F80C10C17888F80D1001791D
:1033B00088F80E10417988F80F10817988F810107C
:1033C000C17908F10A0488F81110017A21720026E7
:1033D00015E06946FEF7BCFE417805290FD108EBE0
:1033E000C60102780A7542784A7582788A75C27871
:1033F000CA7582880A838279761C8A76F6B2217928
:10340000B14204D96A88BDF800108A42E1D87F1C15
:10341000FFB2022F04D26988BDF800209142AED8D5
:10342000BDE8F881FEB5022104468DF8001094F83D
:1034300021230020012A01D10322227022780D26A7
:10344000082700250C2A17D2DFE802F0061734DE21
:10345000F869C27C848C9AD794F8200300280BD09A
:1034600001202070C820FEF728FE2046FFF74EF905
:1034700084F81C53C4F8C853E0E094F823030128EF
:103480000DD0D4F8C803B0F57A7F0CD994F81F0397
:10349000401CC0B284F81F03032870D86DE084F884
:1034A0001F532170CAE00A30C4F8C8030A20FEF78F
:1034B00004FEC3E0D4F8D42312B10421204690477F
:1034C0006420FEF7FAFD2046FFF7AFF884F81D03ED
:1034D0000520207000212046FEF74CFD6071802100
:1034E0002046FEF747FD20710146A07994F81D2380
:1034F0000092CDE9015094F81C3380222046FFF75A
:1035000019FFA07994F81D130091CDE9015094F8AA
:103510001C33617900222046FFF70CFF8EE0204625
:10352000FEF774FF8DF800009DF80000002808D118
:1035300084F8245394F83703012801D0072058E079
:1035400027707BE0D4F8D423002A77D001212046CD
:103550009047F5E794F83D13204600F09EF8B0BB85
:10356000092046E094F83F034FF00A05800604D591
:103570000121204600F09FF848BB25705EE03AE04C
:10358000D4F8801319B3C4F87C5394F8471300BFE0
:1035900004EB8002D2F8782312798A4206D104EB38
:1035A0008000D0F87803C4F87C0304E0401C10F0DD
:1035B000FF00EDD02846F0B1816820468847D0B999
:1035C00006202070D4F8D42303212046904735E00C
:1035D000D4F87C0378B10169204688478DF8000053
:1035E0009DF8000020B19DF80000022803D025E0DE
:1035F0000B20207022E0267020E0D4F87C03E8B194
:1036000041692046884719E084F821532046FCF799
:1036100087FED4F87C0320B1C16820468847C4F8EF
:103620007C53D4F8D42312B105212046904794F856
:103630002203012804D02046FFF784F80020FEBDB5
:1036400084F82253204600F044F8F7E7002211B135
:10365000D0F8803313B10222104670470123C0F81E
:103660008033C0F87813F7E70246002092F83C3325
:103670008B4202D982F82413704702207047827867
:10368000012A06D1002202740523437441828282FA
:10369000C28200221146FEF7D0BC8278012A06D1F0
:1036A000002202740923437441828282C282002272
:1036B0001146FEF7C2BC8278012A06D100220274AC
:1036C0000323437441828282C28200221146FEF7A4
:1036D000B4BC10B50446FFF735F801212046FEF7CB
:1036E00093FF002010BD000001290AD005480229DF
:1036F00006D0042903D0052903D1032100E00121CC
:1037000001707047110000200020704730B58DB067
:103710001546012449B1012909D0022910D00329F5
:1037200018D004240DB0204630BD0024FAE701462D
:103730006A460E48FFF78AF90028F3D1019813E092
:1037400001466A460948FFF781F90028EAD1BDF829
:10375000080009E001466A460448FFF777F90028A7
:10376000E0D1BDF80800400A2860DEE760210020B3
:1037700030B58FB0054600930B46014601240C4836
:10378000FFF7A3FB68B101AA29460948FFF75EF9D4
:103790009DF81100042806D0282804D03A2803D127
:1037A00001E0002400E003240FB0204630BD0000FB
:1037B0006021002010B5014601240348FFF762FD97
:1037C00000B10024204610BD6021002030B58FB02C
:1037D000054600930B46014601240E48FFF765FDA0
:1037E00078B101AA29460B48FFF730F99DF811007E
:1037F00004280AD0272806D0282806D03A2805D140
:1038000003E0002402E0022400E003240FB020467D
:1038100030BD00006021002070B5044606990A9E64
:10382000049D0D98012916D0E06840F04000E0604A
:10383000204600F02BF8A16B1EB321F48031A16368
:10384000012D07D1A16841F00601A160A16841F0F6
:103850002001A16070BDA16B21F48031A163E168FA
:10386000094A1140E160E16821F44011E16001285A
:1038700003D1E06840F48010E060204600F006F8D4
:10388000DEE741F48031DAE7BFFFBDFF01220C49DA
:1038900002E0521C8A420BD80369002BF9DA026954
:1038A00042F001020261012204E0521C8A4201D965
:1038B000032070470369DB07F7D100207047000041
:1038C000400D0300816821F00101816000207047F4
:1038D00000EB4110064AC0F81025D0F8001521F081
:1038E000804141F00041C0F8001500207047000001
:1038F0000000088008B5D0F8402422F02E02009283
:10390000D20405D4012909D1009941F4805103E082
:1039100021B9009921F48051C0F84014002008BD5D
:10392000816841F001018160002070470021102270
:103930000261054A491C914201D90320704703697D
:10394000DB06F7D400207047400D0300002220233F
:1039500043EA811101610549521C8A4201D90320C1
:10396000704703699B06F7D400207047400D0300A1
:10397000D0F8080480B2704708B5D0F84004009031
:10398000C0F3414008BD406900F00100704700EB02
:103990004111D1F800254FF47A73C2F381426AB124
:1039A000022A0BD0D1F8002542F08042C1F8002550
:1039B000D0F8100410F47F0F2ED009E0D1F80025C4
:1039C00042F08042C1F80025C06A10F47F0F07D092
:1039D000D1F8000540F00040C1F800050020704714
:1039E000D1F8000520F00040C1F80005D1F800052D
:1039F00040F00040C1F80005D1F8000520F4004077
:103A0000C1F80005012002E0401C9842E6D8D1F838
:103A10000025002AF8DBE1E7D1F8000520F000409E
:103A2000C1F80005D1F8000540F00040C1F80005DC
:103A3000D1F8000520F40040C1F80005012002E0A3
:103A4000401C9842CAD8D1F80025002AF8DBC5E707
:103A50002DE9F0430026DDE9078500EB4114771ED0
:103A6000DDF82490C4F80875CDB1012D32D0022DB7
:103A700015D0032D27D00126D0F8187401F00F0CB3
:103A8000012101FA0CF10F43C0F81874816941F06B
:103A90000071816110062AD54FF4004028E040F201
:103AA0009D47C4F80C75170605D500BFD4F80C75F2
:103AB00047F4807718E0C76BFF05DDD5D4F80C75A7
:103AC00047F0600710E040F29D67C4F80C751706D8
:103AD000ECD4D1E740F22527C4F80C751706CBD5F6
:103AE000D4F80C7547F4C077C4F80C75C4E700200F
:103AF000B8F1020F18D000214FF0FE5707EA8353A8
:103B00004FF4F04707EAC22213434FF4402202EA7F
:103B100085421343C9F30A02134303430B43C4F81A
:103B20000035032D03D008E04FF40031E4E7D4F86A
:103B3000000540F00050C4F800053046BDE8F083B1
:103B4000D0F8140480B27047F8B54C78C56B4FF4C8
:103B50008073ED054FF0000715D50D799DB912B1B1
:103B6000012A07D00FE04D79012D0CD12146FFF736
:103B7000AFFE8CE000EB4415D5F80C6526F060062E
:103B8000C5F80C654F710E695EB10D892E44761E25
:103B9000B6FBF5F6B6B29E4204D91E462B020B6167
:103BA00000E00126CB78CBB30B897343C1F810300A
:103BB0006FF06045C3F3120305EAC6452B438D7AC7
:103BC0004FF0C04606EA45752B4300EB441405460A
:103BD000C4F8103512B1CB68C4F81435D5F80834E0
:103BE000D4F8005543F3000325F00055C4F8005500
:103BF000D4F800555B1C45EA4373C4F80035D4F88B
:103C00000055244B1D601D6825F080451D60CD7852
:103C1000002D1D6805D045F4004504E0FFE70B6961
:103C2000C6E725F400451D601D6845F000451D6090
:103C30001B68C4F8003552BBCA7842BB0A6932B36C
:103C4000CB7933B1012B0FD0022B02D0032B17D12C
:103C50000AE0D21CC36AC2F38F029BB293420FD216
:103C6000826942F020020AE0D21CD0F81034C2F37C
:103C70008F029BB2934203D2826942F080628261DA
:103C800000970A8A93B24A78C96800F06FF9002059
:103C9000F8BD0000140000202DE9F0410025DDF8FA
:103CA000188017460446C0F8005E806B20F40010B0
:103CB000A063E06BC00501D5012B04D0D4F800044B
:103CC00020F0040103E0D4F8000440F00401204691
:103CD000C4F800141021FFF739FE2046FFF726FE36
:103CE0000020461E07E000BF04EB4011C1F8086544
:103CF000C1F80C55401C8742F6D801212046FFF739
:103D0000F9FDC820FCF75AFBA5616661E06BC005B0
:103D100006D54FF4007060620C48A0620C4804E0C5
:103D2000802060620B48A0620B48C4F80001B8F123
:103D3000000F03D1A06940F01000A061A0690749FD
:103D40000843A0610020BDE8F081000000020001EE
:103D50000003E00080006000E0004000080020A3B5
:103D6000D0F8002422F00302C0F80024D0F8002488
:103D700001F003031A43C0F80024012902D00229EC
:103D800003D006E04BF6803101E041F27071C0F8DB
:103D9000041400207047000010B5012213A115483B
:103DA00000F058FCF8B914A1154800F0F3F81448D5
:103DB000FCF77BFA0246134B11490E4800F058FD00
:103DC00010490839087070B9886860B1094800F076
:103DD00001FC0B494FF47A736422A1F14000FDF716
:103DE000C1FB012010BD002010BD00004144432E46
:103DF0005458540030110020564F4C544147450050
:103E00009800002008000020416980690840704740
:103E1000D21C10B59308002200F5805002E004681F
:103E2000521C10C19A42FAD3084610BD38B5044658
:103E3000D0F8400420F02E00009040F48070C4F8C8
:103E40004004642004F58864FCF7B8FA009820F474
:103E5000807020600A20FCF7B1FA002038BD10B550
:103E6000C26822F0C042C260012902D029B10120FB
:103E700010BDC16841F0005102E0C16841F08041CD
:103E8000C1603220FCF79AFA002010BD30B504461C
:103E90008068002520F00100A06010212046FFF777
:103EA00055FD2046FFF742FD5FF0000004EB401196
:103EB000D1F8002522F0802242F08042C1F800258E
:103EC000401C0F28F2D900204FF47A7304EB401104
:103ED000D1F8002522F4004242F04042C1F800250A
:103EE0006D1C9D4203D8D1F80025002AF8DB401C48
:103EF0000F28EBD94FF0FF30C4F814046061A068BC
:103F000040F00100A060002030BD000010B50A2282
:103F10000FA1114800F09EFBB8B910A1114800F0A4
:103F200039F81048FCF7C1F902460F4B0D490A4811
:103F300000F0A0FD0C49091F087030B9486820B195
:103F4000054800F047FB012010BD002010BD000017
:103F50004144432E5458540030110020564F4C54C5
:103F600041474500980000200400002010B5029C45
:103F700064B9DB1C9C0800EB0230002300F5805084
:103F800002E004C902605B1CA342FAD3002010BD0A
:103F9000FEE700000FB4084610B5064A02A900F07B
:103FA0002AF8044602A9002000F036F8204610BC8A
:103FB0005DF814FB194000080907090E002804DB0E
:103FC00000F1E02080F80014704700F00F0000F1CD
:103FD000E02080F8141D704702E008C8121F08C1D5
:103FE000002AFAD170477047002001E001C1121F7A
:103FF000002AFBD170472DE9F04116460F460446D2
:10400000002503E03946B047641C6D1C2078002869
:10401000F8D12846BDE8F0810A68531C0B60107087
:104020007047000010B504460020E070401E206379
:10403000204601F03EF908B1042010BD04F2322000
:1040400001F08EF8A0F52A41553901D0032010BDAA
:1040500094F83400E92805D0EB2814D194F8360000
:10406000902810D104F16A0001F06FF80749B1EB14
:10407000002F06D004F1860001F067F80449884259
:1040800001D1002010BD022010BD000000464154A7
:1040900046415433F0B50022144D134605EB02148B
:1040A00026685EB10768BE4209D166688768BE426D
:1040B00005D1A4684669B44204D000E00123521C33
:1040C000022AEBD3022A01D069B904E04BB90229D4
:1040D00007D01220F0BD05EB02108089B0F5807F7B
:1040E00001D00020F0BD1020F0BD0000FC27002012
:1040F00030B50021054B0C4603EB011215688542D3
:1041000000D11460491C0229F6D330BDFC270020E1
:104110000268C06A938952895343B1FBF3F1001DD1
:1041200004C81AB1914203D3891AF8E700207047F6
:104130000068084470478269891E921E8A4201D82D
:1041400000207047C26A408901FB002070472DE9BA
:10415000F04105680F00804606D000F00FFF0228EE
:1041600009D20120BDE8F0812E6916B1A869B042DC
:1041700007D8012605E0411CF4D0A9698142F1D895
:104180003E463446A869641CA04202D80224022E8E
:104190000AD32146404600F0F1FE38B10128E1D0B3
:1041A000411CDFD0B442EDD10020DBE74FF0FF36F9
:1041B00032462146284601F095F830B957B12246DB
:1041C0003946284601F08EF820B101280FD001248D
:1041D0002046C7E72C61D5E90501891E884201D830
:1041E000401E6861287940F001002871F0E73446EC
:1041F000EEE700002DE9F0410E4624300D6804463C
:104200000B22202101F04EF80020014608272A5CED
:10421000401C202A12D92F2A0BD05C2A09D02E2A22
:1042200001D0B94214D30B2F22D02E2A20D10CE07A
:10423000401C2B5C2F2BFBD05C2BF9D0284430602A
:10424000B1B12078E5281FD020E008210B27DEE758
:10425000802A03D3114B1A4412F8802C10A300E0DB
:104260005B1C93F800C0BCF1000F04D09445F7D15B
:104270000620BDE8F081A2F16103192B01D8203A94
:10428000D2B26254491CC2E705202070202A01D80E
:10429000042000E00020E0720020EAE7F855000862
:1042A000222A2B2C3A3B3C3D3E3F5B5D7C7F00004D
:1042B000401E022812D20A4901EB00118889B0F58C
:1042C000807F05D008B1401E80B2888110B103E024
:1042D0000020FAE7002008600020704702207047A5
:1042E000FC2700202DE9F04104460021056800F07C
:1042F000DFF8002826D12846E16900F0DAFF020045
:104300001FD1206A017899B1C17A01F03F01A171F2
:10431000C17A09070FD404F124010B2610F8013BE0
:1043200011F8017BDB1B761E04D0002BF6D002E0D7
:10433000042206E02BB10021204600F005F802001F
:10434000D9D01046BDE8F0812DE9F0470546476910
:104350000468C0698946203710B1B7F5001F02D341
:104360000420BDE8F087A189B7FBF1F201FB1271CF
:1043700000295FD1401CE861A9694FF0000819B31A
:10438000A0896289B7FBF0F0521E104252D1284634
:1043900000F0F4FD064601281FD9701C36D0A06934
:1043A000B04241D8B9F1000F12D02846A969FFF7F1
:1043B000CEFE06000FD0012E0FD0701C26D0204656
:1043C00001F0C0F810BB0AE02089B0EB571F31D8CC
:1043D000C5F81C80C4E70720C3E70220C1E7A28913
:1043E000002104F1340000F05DFF4FF00008314679
:1043F0002046FFF7A0FE4FF0010920630DE000BF4B
:1044000084F80390204601F09DF808B10120A8E748
:10441000206B08F10108401C206361894145EFD8F9
:10442000216BA1EB0800206331462046AE61FFF707
:1044300082FEE8616F61A089B7FBF0F100FB1170AB
:1044400020443430286200208BE770B504460021F8
:10445000066800F02DF80DE03046E16900F029FF14
:1044600050B9206A0078E52809D040B101212046E2
:10447000FFF76AFF0028EFD0042807D007E0304696
:10448000E16900F016FF050003D00FE007200546A4
:104490000CE020220021206A00F004FF0B2204F12E
:1044A0002401206A00F0F4FE0120F070284670BD5F
:1044B0002DE9F04104680F460646B1F5001F3CD2D5
:1044C000F8063AD17761B56825B92078032806D374
:1044D000A56A25B16089A18900FB01F812E0208955
:1044E000B0EB571F29D9A06A12E0304600F046FD14
:1044F0000546401C1FD0022D1FD3A069A8421CD91D
:10450000A7EB080747452946EFD22046FFF713FEE1
:10451000C6E9065088B1A189B7FBF1F10844F06102
:10452000A089B7FBF0F100FB1170204434303062F9
:104530000020BDE8F0810120FBE70220F9E7000040
:10454000084910B50B5C002253B901220A540A181D
:1045500001EB8000127A40680168104688470246E5
:10456000104610BD1C28002030B4054C231804EB65
:1045700080001B7A406804691846A44630BC604736
:104580001C28002030B4054D2C1805EB8000247A3F
:10459000406885682046AC4630BC60471C28002037
:1045A000044A111802EB8000097A40684268084604
:1045B000104700001C28002030B4054D2C1805EBD6
:1045C0008000247A4068C5682046AC4630BC60470D
:1045D0001C28002038B5044600F005FA00280CD14C
:1045E0006946204600F0D7FF002806D12069FFF772
:1045F0005FFE002801D10021216038BD2DE9F7417F
:1046000081B0904602980090684600F02DFD0400AD
:1046100003D50B2004B0BDE8F0810D4E002756F8FD
:1046200024501DB12846FFF763FD2F700198002824
:1046300000D0077046F8240002D0B8F1010F01D075
:104640000020E7E7002201A902A800F0EDFAE1E767
:104650002C0000202DE9F74394B005000BD002F0A8
:104660003F063246694615A800F0DEFA04004FF016
:10467000000804D0F3E0092017B0BDE8F0830098EB
:10468000049004A8159900F013FC04000ED19DF8C5
:104690003F00000601D5062408E0700801D0012182
:1046A00000E0002104A8FFF7F5FC044616F01C0FFB
:1046B0005DD04FF00109C4B1042C10D100206B492A
:1046C00002E0401C022804D201EB00121268002A0A
:1046D000F7D1022807D004A8FFF7B7FE044646F03A
:1046E00008065CB1BBE01224B9E09DF8160010F09A
:1046F000110F47D1700701D50824B0E0300747D526
:1047000000F0B0FC07460C9839460E3000F0CAFEA7
:104710000C983946163000F0C5FE0C982021C17265
:104720000C99009800F0FEFC074600220C990098B6
:1047300000F0A4FE0C9800211C3000F0B3FE00999C
:1047400081F8039017B3D1F830900022394604A8BD
:1047500000F05AFE040009D14946009800F0A9FD76
:1047600004000098A7F1010707610DD077E0ECBBCA
:104770009DF81600C10601D5042470E0B10703D5E9
:10478000C00701D007246AE0300701D546F0400693
:104790000098006B68620C98A862700801D0012133
:1047A00000E0002104A800F07DFC2861C0B30C9952
:1047B000009800F0B7FCA8600C981C3000F0C5FC15
:1047C000C5F82C80E86000992960009905F1300057
:1047D0004FF48052C988A9802E7585F81580C5F8D8
:1047E000208000218146C5F8188000E037E000F005
:1047F00059FDB00635D5EE689EB3AE610098A96844
:104800004789808947430FE0284600F0B7FB0146FF
:10481000012800D80224481C03D0F61B24B105E06F
:1048200021E00124F61B01E0BE42EDD8E961B4B9F4
:1048300000988289B6FBF2F302FB13628AB1FFF79C
:104840007AFC80B1009901238A89B6FBF2F2024416
:104850002A6248784946FFF795FE10B10124C5F851
:104860000080204608E70224F9E70000FC2700202A
:104870002DE9F04F884689B0002119609946154608
:10488000044604A900F087FE002812D1607D0028AC
:104890000FD1207DC0070BD0A169E0680127401A25
:1048A0004FF0020A04F1300B854200D9054695E02D
:1048B000072009B0BDE8F08F049BA1699889B1FB7E
:1048C000F0F200FB1212002A69D1B1FBF0F6588910
:1048D000401E064011D129B1E06A28B12046FFF7F9
:1048E00017FC05E0A06803E02046E16900F046FB04
:1048F00002281DD3411C4DD0E061E1690498FFF707
:104900001AFCA8B13044009004988189B5FBF1F1FC
:10491000059131B3721841898A4201D9891B0591E9
:1049200040784146059B009AFFF72CFE90BB03E0C0
:1049300084F815A00220BCE7207D00060CD5216A72
:104940000098081A0599884206D204998A8959461E
:1049500000FB028000F09CFC049886890598464381
:1049600032E0226A00998A4217D0217D090609D5D2
:10497000407801235946FFF71FFE58B9207D00F00B
:104980007F0020750498012359464078009AFFF76C
:10499000F9FD10B1677501208BE70098206204983B
:1049A000A1698089B1FBF0F200FB1212861AAE42B7
:1049B00000D92E46B1FBF0F200FB1210011932466D
:1049C0004046303100F064FCA069B0443044A0613E
:1049D000D9F800008119AD1BC9F80010002D7FF433
:1049E0006BAF002065E7F8B50446694600F0D3FDDB
:1049F00000280ED1217D4A060BD508060ED5009859
:104A0000226A0123407804F13001FFF7D5FD08B197
:104A10000120F8BD207D00F07F00207500F022FB12
:104A20000646616A009800F044FC0028F1D1A56AAE
:104A30002946E87A40F02000E872A268206800F079
:104A40001DFD05F11C00E16800F02CFD314605F16B
:104A5000160000F027FD002105F1120000F02AFDEC
:104A600000980121C17000F029FD217D01F0BF01F6
:104A70002175F8BD2DE9F04F884689B000211960F5
:104A800099461546044604A900F085FD002806D184
:104A9000607D002803D1207D800703D4072009B062
:104AA000BDE8F08FA069012742194FF0020A04F116
:104AB000300B824200D2C543ACE00498A1698289E0
:104AC000B1FBF2F302FB1313002B79D1B1FBF2F629
:104AD0004089401E064018D129B1E06A38B120460D
:104AE000FFF716FB07E0A06838B9002100E0E16994
:104AF0002046FFF72CFB00287ED001282FD0411C38
:104B000058D0E061A16801B9A060207D00060BD5F6
:104B10000498226A012340785946FFF74DFDC0BB37
:104B2000207D00F07F002075E1690498FFF703FB0A
:104B3000A8B13044009004988189B5FBF1F102914D
:104B400041B3721841898A4201D9891B0291407888
:104B50004146029B009AFFF72FFDD0B903E084F88D
:104B600015A002209BE7216A0098081A0299884242
:104B70000AD204998A8900FB0281584600F088FB1A
:104B8000207D00F07F0020750498868902984643B6
:104B90002FE00FE0FFE7226A00998A420ED0E26818
:104BA000A16991420AD2407801235946009AFFF741
:104BB000E9FC18B16775012071E701E000982062F7
:104BC0000498A1698089B1FBF0F200FB1212861AE9
:104BD000AE4200D92E46B1FBF0F200FB1210204489
:104BE00032464146303000F053FB207D40F08000DB
:104BF0002075B044A06900E00FE03044A061E16896
:104C0000884200D80846E060D9F800008119AD1B41
:104C1000C9F80010002D7FF450AF207D40F0400017
:104C2000207500203BE700002DE9FF41002790465A
:104C30000E460F6000F018FA050003D50B2004B0F3
:104C4000BDE8F081974850F825409CB13460207849
:104C500008F0FE0620B16078FFF7A2FCC1070BD078
:104C60002770E8B2B8466070FFF76AFCC10708D049
:104C70000320E4E70C20E2E70EB1400704D4002053
:104C8000DDE71EB1400701D50A20D8E7607804F1BE
:104C90000C020221FFF768FCF0BBA089A0F50071AF
:104CA000B1F5606F3FD8411E08423CD10026314625
:104CB0002046FFF7B7F9022822D100254FEA0D0759
:104CC00004EB051090F8F61100F5F97019B10830F1
:104CD00000F03BFA00E0002047F825006D1C042D91
:104CE000EED3002557F8256036B131462046FFF750
:104CF00099F9022801D203E003206D1C042DF1D3A1
:104D0000042810D0022878D204F13F0000F028FADD
:104D1000A189884271D100E005E004F14A0000F069
:104D20001FFA10B105E0012089E704F1580000F0F6
:104D30000CFAE06194F84450A570012D01D0022DC9
:104D40005BD1454394F841006081E8B3411E0842BD
:104D500053D104F1450000F003FA2081A1894909EB
:104D6000B0FBF1F201FB120070BB04F1470000F050
:104D7000F7F9070004D104F1540000F0E6F9074602
:104D800004F1420000F0ECF9010036D0A08923893B
:104D90004009B3FBF0F04A19024497422DD3B81AE8
:104DA0006789B0FBF7F078B103274FF6F57C6045D3
:104DB00000D8022740F6F57C604500D80127324430
:104DC000801C3144E26200E017E0A061C4E90861A0
:104DD000032F14D08BB12944A162022F20D000F000
:104DE000010100EB400001EB5000A189401E084486
:104DF000B0FBF1F0E169884214D90D201FE704F1FE
:104E00005E0000F0ADF90028F7D120890028F4D128
:104E100004F1600000F099F9A062A0698000E4E765
:104E20004000E2E74FF0FF30606120618020207198
:104E3000032F2CD104F1640000F092F9012826D14F
:104E4000711C204600F035FA08BB84F8048004F297
:104E5000322000F085F9A0F52A41553917D104F127
:104E6000340000F072F91049884210D104F5067040
:104E700000F06BF90D49884209D104F5077000F084
:104E800064F9606104F5087000F05FF9206105487D
:104E90002770001F0188491C0180E1802046FFF730
:104EA00027F9ECE62C0000205252614172724161F8
:104EB00073B504460568019801E0401C0190017833
:104EC0002F29FAD05C29F8D00021A1600198007840
:104ED000202806D2802084F82F002046FFF7E8FA29
:104EE0007CBD01A92046FFF785F90028F8D12046AE
:104EF000FFF7F8F994F82F1028B10428F0D14907EA
:104F0000EED405207CBD4907FCD4A079C006F8D5B5
:104F1000A9896069B0FBF1F201FB12004119284632
:104F2000343100F0FFF8A060DBE7000010B5002886
:104F300021D0114B0022001F196803E0814203D8E1
:104F40000A4649680029F9D152B11368841A9C4273
:104F500004D1006818441060104602E0506000E080
:104F6000186039B102680B1A934203D10B681A44D6
:104F700002604968416010BD500000202DE9F041F9
:104F800004680D4602290BD3A069A84208D92078ED
:104F90004FF0FF36012807D0022834D0032849D02B
:104FA00001263046BDE8F081A08905EB5507B7FB27
:104FB000F0F0616A0144204600F07BF90028F0D14E
:104FC000A089B7FBF0F100FB11717F1CB7FBF0F07B
:104FD000214491F83480616A0144204600F069F967
:104FE0000028DED1A089B7FBF0F100FB117020444E
:104FF00090F8341048EA0120E90701D00609D0E70B
:10500000C0F30B06CDE7A089616A4008B5FBF0F05C
:105010000144204600F04DF90028C2D1A189680062
:10502000B0FBF1F201FB12002044343000F098F89C
:105030000646B6E7A089616A8008B5FBF0F0014436
:10504000204600F036F90028ABD1A189A800B0FBBA
:10505000F1F201FB12002044343000F076F820F029
:1050600070469EE70020704710B504464FF0FF30B1
:105070002268002A13D0114600E0491C0B78212B2E
:105080000ED33A2BF9D112F8013B303B0A2B06D252
:105090008A4204D1002B02D1491C1846216010BD60
:1050A000002010BDF0B502461D4BD2F80050002084
:1050B00003EB00142668AE4207D166689768BE42CB
:1050C00003D1A4685669B44202D0401C0228EFD331
:1050D000022814D1002002E0401C022804D203EB75
:1050E00000142468002CF7D102280ED003EB001422
:1050F0002560956865605269A2600022A28100293E
:1051000003EB0011898902D019B10020F0BD491CC0
:1051100001E04FF4807103EB0012401C9181F0BD5F
:10512000FC27002070B506460D4601F11A0000F07C
:1051300017F804463078032805D105F1140000F073
:105140000FF844EA0044204670BDC178827842EAF4
:1051500001214278007842EA012140EA01207047AB
:105160004178007840EA012070470000FBF72EFCF0
:10517000FCF7D2FDFCF74EFD254824490C220160C6
:105180004FF41651416000218160C160C0E90412F2
:105190008161C161FCF780F908B172B6FEE7FCF7E6
:1051A0002BFDFCF787FD1B4E1B4D40F6B83700BFAB
:1051B000FCF7A0FD30780028FAD0012805D002289D
:1051C00010D00328F4D1002207E00022134914482C
:1051D000FFF714FA0028EBD1012220212846FBF723
:1051E000DAF9E5E73846FBF7E9F8FEF78FFE002429
:1051F00020212846FBF7C8F96420FBF7DFF8641C80
:105200000A2CF5DDFEF7C8FDD2E70000004400409F
:105210005800002011000020000002400D00002076
:10522000FC000020F0B50B30154D20F007010024E4
:10523000144A0FE003688B420BD38B4205D95E1AE8
:1052400043184768C3E9006700E04368136002C081
:1052500004E0021D10680028ECD12046002802D18D
:10526000286808B10020F0BD064A07481060074AC8
:10527000121A22F00702C0E9002401202860D7E7B3
:1052800054000020500000202C2800202848002036
:10529000002A05D011F8013B00F8013B521EF9D15C
:1052A000704700005FFA81F100F8011B521EFBD12C
:1052B000704770B50446006B0D460026A8420FD01B
:1052C000204600F03FF906000AD1607801232A4603
:1052D00004F13401FFF756F908B1751E0126256364
:1052E000304670BD2DE9F047022617460D460446AC
:1052F00002297DD3A069A8427AD920784FF001090C
:10530000012804D0022840D003287AD154E0A18992
:1053100005EB5508B8FBF1F0616A01442046FFF740
:10532000C8FF06006DD1A189B8FBF1F201FB128024
:105330002044343008F10108E90704D00178FAB2BA
:1053400062F31F1100E03946017084F80390A189CF
:10535000B8FBF1F0616A01442046FFF7AAFF06009E
:105360004FD1A189B8FBF1F201FB12802044343007
:10537000E90702D0C7F3071105E00178C7F303225C
:1053800001F0F0011143017039E0A089616A400821
:10539000B5FBF0F001442046FFF78BFF060030D14B
:1053A000A1896800B0FBF1F201FB12002044B9B200
:1053B000343000F07FF822E0A089616A8008B5FBF4
:1053C000F0F001442046FFF774FF060019D1A089D0
:1053D000AD00B5FBF0F100FB115020443430FFF775
:1053E000B4FE67F31B000146A089B5FBF0F200E0B4
:1053F00007E000FB12502044343000F053F884F8EA
:1054000003903046BDE8F0872DE9F041056813466A
:105410000E46074602292DD3A869B0422AD93BB1CE
:105420004FF0FF3219462846FFF75CFF00281FD1D6
:1054300031463846FFF7A2FD040018D0012C19D0E0
:10544000601C19D0002231462846FFF74BFF002888
:105450000ED1D5E90510821E914205D2491C696121
:10546000297941F0010129712646B042E0D8002097
:10547000BDE8F0810220FBE70120F9E770B50C469A
:105480000646154691B204F11A0000F013F8307880
:10549000032806D1290C04F11400BDE8704000F087
:1054A00009B870BD0170090A4170090A8170090AC2
:1054B000C17070470170090A4170704770B50446A9
:1054C00000F040F8050036D1207803282CD120794F
:1054D000012829D104F13400A28900210646FFF7F2
:1054E000E1FE4AF6552104F23220FFF7E3FF1349AB
:1054F0003046FFF7D7FF124904F50670FFF7D2FFD9
:1055000004F507706169FFF7CDFF04F508702169A4
:10551000FFF7C8FF226A0123521C226360783146DC
:10552000FFF74AF800202071002260781146FFF74B
:105530001BF800B10125284670BD000052526141A0
:10554000727241612DE9F0410446C0780027F8B13C
:10555000256B04F13401607801232A468846FFF761
:105560002BF808B1012713E00020E070606AE169C0
:10557000281A88420CD2A67808E0E0690123054485
:1055800060782A464146FFF717F8761E022EF4D2BD
:105590003846BDE8F08170B50E4604004FF00905AD
:1055A0000CD0206850B1017841B1A188C2889142E5
:1055B00004D14078FEF7F4FFC00703D0002030602C
:1055C000284670BD00252068F9E70000093700086B
:1055D000B537000871370008CD3700080D370008CF
:1055E0000000000000000000010203040607080993
:1055F000000000000102030443554541414141437D
:1056000045454549494941414592924F4F4F55556E
:10561000594F554F9C4F9E9F41494F55A5A5A6A751
:10562000A8A9AAABACADAEAFB0B1B2B3B4414141E1
:10563000B8B9BABBBCBDBEBFC0C1C2C3C4C541417D
:10564000C8C9CACBCCCDCECFD1D1454545494949B2
:1056500049D9DADBDCDD49DF4FE14F4F4F4FE6E858
:10566000E85555555959EEEFF0F1F2F3F4F5F6F728
:10567000F8F9FAFBFCFDFEFF0100040010004000F9
:1056800000010002000001000200040008001000F8
:10569000200000004D534300B856000800000020D1
:1056A00058000000D83F000810570008580000209C
:1056B000D0670000E83F0008000000000000000084
:1056C00000000000000000000000000000000000DA
:1056D0000100000010000000000000000024F400A1
:1056E00000000000000000009456000808000000C0
:1056F000C52A00087B2A0008D5290008BD2B000810
:1057000081320008000000000000000000000000DE
:04000005080001C529
:00000001FF
