:020000040800F2
:10000000D0040020DD010008DB170008B11600084D
:10001000D9170008E9020008F11A000800000000E2
:10002000000000000000000000000000DF170008D2
:100030005903000800000000DD170008E117000860
:10004000F7010008F7010008F7010008F7010008B0
:10005000F7010008F7010008F7010008F7010008A0
:10006000F7010008F7010008F7010008F701000890
:10007000F7010008F7010008F7010008F701000880
:10008000F7010008F7010008F7010008390300082C
:10009000ED0200080D0300082D030008F701000819
:1000A000F7010008F7010008F7010008F701000850
:1000B000F7010008F7010008F7010008F701000840
:1000C000F7010008F7010008F7010008F701000830
:1000D000F7010008F7010008E51A0008F701000819
:1000E0005D030008F7010008F7010008F7010008A8
:1000F000F7010008F7010008F7010008F701000800
:10010000F7010008F7010008F7010008F7010008EF
:10011000F7010008F7010008F7010008F7010008DF
:10012000F7010008F7010008F7010008F7010008CF
:10013000F70100080000000000000000F7010008BF
:10014000F7010008F7010008F7010008F7010008AF
:10015000F7010008F7010008F7010008F70100089F
:10016000F7010008F7010008F7010008F70100088F
:10017000F7010008F7010008F7010008000000007F
:1001800000000000F701000800000000000000006F
:10019000F70100080000000000000000F70100085F
:1001A000000000000000000000000000F70100084F
:1001B000F7010008F7010008F7010008F70100083F
:1001C000F7010008DFF810D000F07CF80048004785
:1001D000311B0008AFF30080D004002006488047A0
:1001E00006480047FEE7FEE7FEE7FEE7FEE7FEE71C
:1001F000FEE7FEE7FEE7FEE779180008C501000804
:100200002DE9F05F0546002092469B46884606464B
:10021000814640241BE0284641464746224600F0DE
:1002200041F853465A46C01A914110D31146184618
:10023000224600F028F82D1A67EB01084F462246A7
:100240000120002100F01FF817EB00094E41201E8D
:10025000A4F10104DFDC484631462A464346BDE8A6
:10026000F09FD2B201E000F8012B491EFBD270478B
:100270000022F6E710B513460A4604461946FFF772
:10028000F0FF204610BD202A04DB203A00FA02F1DC
:10029000002070479140C2F1200320FA03F3194374
:1002A00090407047202A04DB203A21FA02F0002116
:1002B000704721FA02F3D040C2F120029140084376
:1002C00019467047064C074D06E0E06840F0010310
:1002D00094E8070098471034AC42F6D3FFF776FF56
:1002E000E81B0008081C0008FEE7000010B50548E0
:1002F00000F005FA0122BDE810404021024800F05C
:1003000079BD0000340000200000024010B505480F
:1003100000F0F5F90122BDE810404021024800F04C
:1003200069BD00003400002000000240014800F0D8
:10033000E6B900003400002010B5054800F0DFF9F0
:100340000122BDE810404021024800F053BD0000EA
:1003500034000020000002407047000010B54FF448
:100360000054204600F05AFC2146174800F036FDA4
:10037000002828D1154B164A1649174800F044F8B2
:100380000121154800F046FB14490860402114483B
:1003900000F029FD0E480178491C01704178491C84
:1003A00041708178491C8170C178491CC170017904
:1003B000491C01714179491C41718179491C817144
:1003C000C179491CC17110BD000802402000002005
:1003D000100000209C0000203400002000000020BD
:1003E0000000024090F82020012A07D0022A05D000
:1003F000416A41F4802141620120704700684269EE
:100400000A43426100207047F0B590F8205004681C
:10041000A468012D05D0022D03D0416A41F480214A
:100420005DE014F0406F01D1E50055D5C4F30164DF
:10043000022C03D9416A41F4000150E00125A54096
:100440001D608D684FF4C0739DB1CE6835434E6812
:1004500045EAC605066803EB0417F5514FF4C2756B
:10046000076805EB04150E697E51097D012905D049
:1004700009E00E88CD6845EA4655EBE701684E591C
:1004800046F480764E511179D579567941EA056165
:1004900095792D0445EA062529434FF4C67605686B
:1004A00006EB0416A9511178D57841EA05619578D3
:1004B00052782D0445EA022211434FF4C4750268B4
:1004C00005EB04155151006803EB0411425842F04A
:1004D000010242500020F0BD416A41F40011416226
:1004E0000120F0BD10B590F82020012A07D0022A83
:1004F00005D0416A41F480214162012010BD3B4892
:10050000D0F8002242F00102C0F80022D0F8002208
:1005100022F47C52C0F80022D0F800224B6A42EA52
:100520000322C0F800220A7D02F01F0301229A4034
:10053000D0F81C329343C0F81C32CB69B3B9D0F861
:100540000C329343C0F80C328C894B6864F31F4320
:100550004C6900EBC404C4F840320C890B6864F3A6
:100560001F434C6900EBC404C4F84432CB69012B2F
:1005700016D1D0F80C321343C0F80C320C884B68FB
:1005800064F31F434C6900EBC404C4F840320C8987
:10059000CB6864F31F434C6900EBC404C4F84432D5
:1005A0008B69002BD0F804320ED01343C0F804320C
:1005B0000B69002BD0F8143208D01343C0F8143262
:1005C000096A012904D008E09343EFE79343F5E774
:1005D000D0F81C121143C0F81C12D0F8001221F000
:1005E0000101C0F80012002010BD000000640040AE
:1005F000704700000246002092F82030012B01D005
:10060000022B05D1106821B1D0F8100000F00300D2
:100610007047C068FAE730B590F82040012C05D04B
:10062000022C03D0416A41F480215DE00468002976
:1006300055D02469A40754D04FF4D874056804EB4E
:1006400001142D5915F00405956005682D594ED0FB
:10065000ED08556005682C5904F00204D4604FF48D
:10066000DA74056804EB01142D5905F00F051561C6
:1006700005682D59C5F30725956105682C59240C8B
:1006800054614FF4DC72046802EB0112A4581C7030
:100690000468A458240A5C700468A458240C9C7054
:1006A0000468A258120EDA704FF4DE72046802EB8E
:1006B0000112A4581C710468A458240A5C710468CF
:1006C000A458240C9C710468A258120EDA710068B8
:1006D00081B1016941F020010161002030BDE46871
:1006E000A8E7416A41F400114162012030BD6D0D5F
:1006F0001560AFE7C16841F02001C160EDE72DE969
:10070000F05F0546006800244669D0F804908768C9
:10071000D0F80CB0D0F810A0D0F81880F10748D06D
:10072000F90714D001218160B80703D5284600F0ED
:1007300048FA0CE0780702D54FF4006407E0380768
:1007400002D54FF4805402E0284600F039FAF8054B
:1007500016D529684FF480708860B80503D52846FF
:1007600000F031FA0CE0780502D544F4005407E0BB
:10077000380502D544F4804402E0284600F022FA0D
:10078000F80316D529684FF480308860B80303D584
:10079000284600F01AFA0CE0780302D544F400442D
:1007A00007E0380302D544F4803402E0284600F024
:1007B0000BFA300707D55FEACB6004D52968102013
:1007C00044F40074C86070074FF0080707D55FEA6B
:1007D0000B7004D52868C760284600F089F9B00777
:1007E00006D52868C068800702D0284600F082F944
:1007F000700607D55FEACA6004D52968102044F462
:1008000080640861B00607D55FEA0A7004D52868DD
:100810000761284600F08EF9F00606D528680069C1
:10082000800702D0284600F087F9B00308D55FEAB8
:10083000C96005D5296810204860284600F092F963
:10084000F00307D55FEA097004D528684760284699
:1008500000F0BCF9300446D55FEA497040D5F00598
:1008600004D55FEAC87001D044F00104B00504D596
:100870005FEA887001D544F00204700504D55FEA90
:10088000487001D544F00404300529D518F0700FE4
:1008900026D008F07000402815D006DC102809D0BA
:1008A00020280AD0302816D10AE050280ED060281F
:1008B00011D10EE044F008040DE044F010040AE009
:1008C00044F0200407E044F0400404E044F08004D5
:1008D00001E044F480742868816921F0700181612D
:1008E000296804204860002C05D0686A20436862AB
:1008F0002846FFF77DFEBDE8F09F70B5040003D0E9
:1009000094F8200010B104E0012070BD204600F0F2
:1009100091F82068016821F00201016000F070FA8E
:100920000546052604E000F06BFA401B0A2811D8A2
:10093000206840688007F6D42068016841F0010112
:10094000016000F05DFA05460BE000F059FA401B2B
:100950000A2806D9606A40F40030606284F820609A
:10096000D2E720684068C007EFD0207E01282068C9
:1009700001683DD021F080010160607E012820687F
:10098000016838D021F040010160A07E0128206874
:10099000016833D021F020010160E07E0128206849
:1009A00001682ED041F010010160207F01282068ED
:1009B000016829D021F008010160607F01282068CA
:1009C000016824D021F004010160D4E90201084348
:1009D000D4E90412114308436168491E08432168A1
:1009E000C86100206062012084F82000002070BDF2
:1009F00041F08001C0E741F04001C5E741F020012E
:100A0000CAE721F01001CFE741F00801D4E741F037
:100A10000401D9E70346002093F82020012A01D0E1
:100A2000022A05D11A6889069268914300D00120F4
:100A300070470000F0B587B0044614216846FFF700
:100A400017FC2849206888424AD1274800250168B8
:100A500041F000710160006800F0007005902248CC
:100A60001038016841F0020101600068022400F0C2
:100A7000020005904FF480708DE8310009261B4F6D
:100A8000CDE903466946384600F0D4F820028DE8E7
:100A900031000320CDE903066946384600F0CAF864
:100AA00000221146132000F01BFA132000F00AFA6E
:100AB00000221146142000F013FA142000F002FA6C
:100AC00000221146152000F00BFA152000F0FAF96B
:100AD00000221146162000F003FA162000F0F2F969
:100AE00007B0F0BD006400404038024000040240FE
:100AF0007047000010B500210B48FFF77BFD0B4C41
:100B0000094A04F114032060803200210648FFF7EF
:100B100082FD05480122803040210068A060BDE8C8
:100B20001040034800F066B93400002004000020A3
:100B3000000002407047000010B501210748FFF790
:100B400059FD0749054A01F1140348608032BDE8A8
:100B5000104000210148FFF75EBD00003400002076
:100B6000040000207047000070B5044690F8200093
:100B7000012804D0606A40F40020606218E002207E
:100B800084F820002068016821F00101016000F074
:100B900037F905460EE000BF00F032F9401B0A2885
:100BA00008D9606A40F400306062052084F82000B3
:100BB000012070BD20684068C007EDD1606270BD43
:100BC000704770477047704770477047704790F89C
:100BD0003510022903D0802141650120704705218D
:100BE00080F835100068016821F0010101600020E3
:100BF0007047000070B5044600F002F90546601C1D
:100C000002D004480078044400F0FAF8401BA042E7
:100C1000FAD370BD2400002070470000044910B5CD
:100C20000A68024202D00860FFF7F6FF10BD00001C
:100C3000143C01402DE9F84F00224FF00108032534
:100C40004FF00F0E0B6808FA02F42340A3426ED156
:100C50004E68012E05D0022E03D0112E01D0122E87
:100C600012D186684FEA420C05FA0CF7BE43CF68F2
:100C700007FA0CF7374387604668A6430C79C4F33C
:100C80000014944034434460C668570005FA07FCDA
:100C90008C6826EA0C06BC403443C4604C68022CC5
:100CA00001D0122C13D1D40800EB8404A346D4F84D
:100CB000209054074FEAD46A0EFA0AF629EA060988
:100CC0000E6906FA0AF646EA0906CBF820600668BD
:100CD0000C7926EA0C0604F00304BC40344304609B
:100CE0004C68E40060D5334C266846F480462660A4
:100CF000246822F0030604F4804400942E4C34440B
:100D0000A446D4F808489607370F0EFA07F6B443FE
:100D10002A4EB04201D100261FE0294EB04201D137
:100D200001261AE0274EB04202D1022615E03BE030
:100D3000254EB04201D103260FE0244EB04201D12E
:100D400004260AE0224EB04201D1052605E0214EDC
:100D5000B04201D1062600E00726BE402643CCF86B
:100D600008681D4E34684F689C43FF0300D51C4340
:100D70003460194E361D34684F689C43BF0300D55C
:100D80001C433460144E083634684F689C43FF029D
:100D900000D51C433460104E0C3634684F689C43B9
:100DA000BF0200D51C433460521C102AFFF44AAF26
:100DB000BDE8F88F44380240003001400000024096
:100DC0000004024000080240000C024000100240F3
:100DD0000014024000180240003C01400069084035
:100DE00000D001207047426931EA020200D10904B3
:100DF000816170470AB1816170470904FBE7000017
:100E00000148806870470000240000200248816883
:100E10000278114481607047240000200B4810B50F
:100E2000016841F400710160016841F48061016072
:100E3000016841F480710160032000F071F8002026
:100E400000F006F800F024F8002010BD003C02403D
:100E500070B50D4D04464FF47A712878B1FBF0F06F
:100E60000A490968B1FBF0F000F012FB48B9102CF8
:100E700007D200222146501E00F032F800206C609C
:100E800070BD012070BD0000240000203000002053
:100E90000B4882B0016841F480410160006800F4B1
:100EA000804000900648001F016841F080510160B9
:100EB000006800F080500090072002B000F030B8C9
:100EC00044380240002809DB00F01F020121914054
:100ED0004009800000F1E020C0F8001170470000D8
:100EE000F0B40E4B1B680C46C3F30223C3F1070595
:100EF000042D00D90425191D072901D2002300E083
:100F0000DB1E012606FA05F1491E214099409E404C
:100F1000761E16403143F0BC00F0EBBD0CED00E056
:100F2000064900F0070208684FF6FF03184040EA40
:100F30000220034A10430860704700000CED00E0F7
:100F40000000FA052DE9F0470E46050065D0DFF8F0
:100F50001481D8F80000F7B200F00F00B04207D2B9
:100F600088F80070D8F8000000F00F00B04254D1AB
:100F700028683D4C810712D5400703D5206840F40E
:100F8000E05020602878000703D5206840F46040D6
:100F900020602068A96820F0F000084320602878CD
:100FA000C0072DD0304968680839012812D00228BE
:100FB00013D0032811D00968890700292DDA216888
:100FC00021F0030101432160FFF71AFF814641F23E
:100FD000883A0EE009688903EFE709688901ECE7C0
:100FE000FFF70EFFA0EB0901514502D90320BDE830
:100FF000F0872068696800F00C00B0EB810FEFD13A
:10100000D8F80010404601F00F01B14207D907702F
:10101000006800F00F00B04201D00120E7E7287817
:10102000400705D52068E96820F4E05008432060B7
:101030002878000706D52068296920F4604040EA36
:10104000C100206000F038F82168084AC1F303119C
:10105000515CC8400649086006480068FFF7F8FE82
:101060000020C4E7003C024008380240D01B0008C2
:101070003000002028000020044805490068096865
:10108000044AC1F38221515CC840704730000020FF
:1010900008380240E01B0008044805490068096858
:1010A000044AC1F34231515CC8407047300000200F
:1010B00008380240E01B0008224810B5006810F014
:1010C0000C02214815D04110042A11D01D4C241FB8
:1010D000082A0FD00C2A0CD12268236802F03F02A4
:1010E0005B0221D52068C0F38810A0FB010120E03D
:1010F000084610BD2268236802F03F025B0205D556
:101100002068C0F38810A0FB010104E02168C1F34E
:101110008811A1FB00010023FFF772F82168C1F3D9
:101120000141491C49000AE02168C1F38811A1FB73
:1011300000010023FFF764F82168C1F30271B0FBDE
:10114000F1F010BD083802400024F4002DE9F84FFA
:101150000546DFF828B30078ABF10407C007A7F114
:10116000040451D0DBF800105846C1F38101012975
:101170000FD00168C1F38101022902D13968490207
:1011800007D40068C0F38100032809D13868400201
:1011900006D52068800337D56868002872D033E010
:1011A0006868B0F5803F10D0B0F5A02F206810D04F
:1011B00020F480302060206820F48020206068685F
:1011C000A8B1FFF71DFE06460DE0206840F4803010
:1011D000F4E740F480202060F7E700BFFFF710FE3F
:1011E000801B642878D820688003F7D50CE0FFF7CF
:1011F00007FE064605E000BFFFF702FE801B6428DD
:10120000F0D820688003F7D42878DFF8749280073C
:101210004FF0000A46D5DBF80010584611F00C0FCD
:101220000FD00168C1F38101022902D13968490256
:1012300007D50068C0F38100032809D1386840024F
:1012400006D42068800715D5E86801281AD111E076
:10125000E868C0B10120C9F80000FFF7D1FD0646DB
:1012600005E000BFFFF7CCFD801B0228BAD820683C
:101270008007F7D52068296920F0F80040EAC1000E
:1012800020600FE0F7E0C9F800A0FFF7B9FD0646BF
:1012900005E000BFFFF7B4FD801B02281CD82068C2
:1012A0008007F7D42878000727D5DFF8D081754864
:1012B000696908F16C0881B101210160FFF7A0FDA7
:1012C000064604E0FFF79CFD801B022804D8D8F8EE
:1012D00000008007F6D510E089E0C0F800A0FFF715
:1012E0008FFD064605E000BFFFF78AFD801B022840
:1012F0007DD8D8F800008007F6D42878400769D553
:101300005E484FF0000838300068C0000BD45B48DE
:101310003830016841F08051016000684FF00108E9
:1013200000F080500090584E3068C00511D43068ED
:1013300040F480703060FFF763FD009006E000BF6E
:10134000FFF75EFD0099401A022850D83068C005AA
:10135000F6D54A4EA868683601280FD005283068AF
:1013600010D020F001003060306820F004003060C0
:10137000A868B8B1FFF744FD00900FE0306840F076
:101380000100F4E740F004003060F7E7FFF738FDB4
:101390000099411A41F28830814264D83068800750
:1013A000F4D50EE0FFF72CFD009007E0FFF728FDD5
:1013B0000099411A41F28830814254D83068800740
:1013C000F4D4B8F1000F05D02C483830016821F072
:1013D00080510160A869A8B3DBF80010C1F3810156
:1013E000022948D00228C9F860A005D000E03AE000
:1013F000FFF706FD054639E0FFF702FD064604E06B
:10140000FFF7FEFC801B02282DD820688001F7D44E
:10141000F5E907010843E9681C4A490802EB014164
:10142000AA6841EA82110843297C40EA0160297DCB
:1014300040EA017038600120C9F86000FFF7E0FC65
:10144000054606E015E000BFFFF7DAFC401B022866
:1014500009D820688001F7D50BE000BFFFF7D0FC6A
:10146000401B022802D90320BDE8F88F20688001C4
:10147000F4D40020F8E70120F6E700000838024025
:1014800000004742800E4742007000400000FFFF0E
:1014900010B5401EB0F1807F01D3012010BD4FF088
:1014A000E02460610F21601700F023FB0020A061A1
:1014B00007202061002010BD7047000070B5026851
:1014C00004461068D168536910F00F0F52D003F032
:1014D000010501F490762E435FD0C20705D0CA05FE
:1014E00003D5E26B42F00102E263420705D5DA0759
:1014F00003D0E26B42F00202E263820705D5DA070D
:1015000003D0E26B42F00402E263020707D501F068
:1015100020022A4303D0E26B42F00802E263E26B4E
:10152000002A33D0800604D5880602D5204600F074
:10153000C7F920684069E16BC0F38010090700D447
:1015400028B3204600F0AEF92068416949061AD553
:10155000416921F040014161606BA0B11B49016507
:10156000606BFFF734FB002810D0606B016DBDE8A5
:1015700070400847830610D58B060ED52046BDE87F
:10158000704000F09DB92046FFF796FF70BD2046E1
:10159000FFF792FF0020E06370BD030606D50B063F
:1015A00004D52046BDE8704000F06ABA4006F3D585
:1015B0004806F1D5D168204621F04001D1602021B4
:1015C00084F8391000F073F870BD00009518000819
:1015D00070B5040004D094F83900002510B106E07D
:1015E000012070BD84F83850204600F023F82420F4
:1015F00084F839002068C16821F40051C160204698
:1016000000F0AAF92068016921F490410161206885
:10161000416921F02A0141612068C16841F400510B
:10162000C160E563202084F8390084F83A00002086
:1016300070BD000010B586B0044614216846FEF760
:1016400017FE17492068884228D1164800210268F1
:1016500042F400320260006800F400300590114846
:101660001038026842F001020260006800F00100D8
:1016700005900C2000900220CDE901010320039089
:101680000720049069460848FFF7D4FA0022114663
:101690002620FFF725FC2620FFF714FC06B010BD1E
:1016A000004400404038024000000240704770474C
:1016B000FEE7000030B51D488BB01B490160542186
:1016C0000024C0E901144FF44031C0E903414FF454
:1016D000801141610476012545768476C5760477CC
:1016E0004477FFF70AF908B172B6FEE70F481121F7
:1016F0006830846001600821C0E9034104750394E7
:101700000E200494CDE90850CDE9064505940094D7
:101710000194029469460548FEF7E4FE002801D0D2
:1017200072B6FEE70BB030BD00640040340000200C
:1017300030B587B014216846FEF79AFD2248002490
:10174000016841F004010160016801F004010591A4
:10175000016841F080010160016801F0800105919C
:10176000016841F001010160016801F0010105918A
:10177000016841F0020101600068144D00F00200B0
:101780000590002260212846FFF734FB4FF40050FB
:1017900000900F48CDE9010469460E48FFF74AFA68
:1017A00001216020CDE90214CDE9000169462846F7
:1017B000FFF740FA002211462820FFF791FB28206E
:1017C000FFF780FB07B030BD303802400000024018
:1017D0000000211000080240FEE7FEE77047704756
:1017E000FFF714BB30B593B034216846FEF740FDD7
:1017F00014210DA8FEF73CFD1D480025016841F0AD
:1018000080510160006800F0805012901948016812
:1018100021F4404141F4804101600068022400F459
:101820004040129001200090000401908001CDE919
:101830000640042008905420CDE909040B94684622
:101840000C94FFF783FC08B172B6FEE70DA90F20D8
:1018500081E831004FF48050CDE9100502210DA838
:10186000FFF770FB002801D072B6FEE713B030BD61
:1018700040380240007000400548016841F47001A2
:10188000016003494FF00060803908607047000034
:1018900088ED00E010B5806B0021C185C184FFF7A1
:1018A0000BFE10BD0168CA6822F49072CA6001681C
:1018B0004A6922F001024A61202180F83A107047FB
:1018C00010B590F83A10222901D0022010BD81688D
:1018D000B1F5805F11D00169002901681FD0496806
:1018E00001F07F03816A4A1C82620B70C18D491E20
:1018F0000904090CC18518D02BE00269816A002A0D
:101900000268526805D0D2B20A80816A491C81629D
:10191000ECE7C2F308020A80816A891CF7E74A688B
:10192000816A4B1C83620A70E0E70168CA6822F092
:101930002002CA600168CA6822F48072CA60016825
:101940004A6922F001024A61202180F83A10FFF72B
:10195000ADFE002010BD00002DE9F04104460068F6
:101960000169E26821F44051114301612169A068D5
:10197000E26908436169114308432168CA6849F272
:101980000C639A430243CA6020684169A26921F44A
:10199000407111434161E069192764253226B0F591
:1019A000004F354A354920684FF0000806D088427C
:1019B00001D0904236D1FFF76FFB35E0884201D06D
:1019C000904202D1FFF768FB01E0FFF755FB616829
:1019D0004A18A0FB070148EB0803FEF711FC01467B
:1019E000B0FBF5F00201B1FBF5F06FF018035843BE
:1019F00001EB800006EBC000B0FBF5F000F0F80052
:101A000002EB4002B1FBF5F0584301EB800006EB1E
:101A1000C000B0FBF5F000F00700216810448860BA
:101A2000BDE8F081FFF728FB61688B0F8A00A0FBFF
:101A30000701FEF7E5FB0146B0FBF5F06FF0180279
:101A4000504301EB800006EB0010B0FBF5F000F016
:101A5000F002B1FBF5F002EB0012B1FBF5F06FF014
:101A60001803584301EB800006EB0010B0FBF5F0C3
:101A700000F00F00D1E70000001401400010014009
:101A800090F83910212901D0022070478168B1F502
:101A9000805F016A0BD04A1C0262026809785160BB
:101AA000C18C491E0904090CC1840ED017E00988B5
:101AB0000268C1F30801516001690029016A02D07E
:101AC000491C0162ECE7891CFBE70168CA6822F047
:101AD0008002CA600068C16841F04001C160002016
:101AE000704700000148FFF7E9BC00005C000020DF
:101AF000FEE70907090E002804DB00F1E02080F86A
:101B00000014704700F00F0000F1E02080F8141D71
:101B1000704702E008C8121F08C1002AFAD17047B6
:101B20007047002001E001C1121F002AFBD170475D
:101B30002348012102220170427003238370042490
:101B4000C470017142718371C471FFF767F9FFF7C7
:101B500049FEFFF7EDFDFFF7ADFD1B4819490C22CB
:101B600001604FF41651416000218160C160C0E9FD
:101B700004128161C161FFF72BFD08B172B6FEE767
:101B800011482838FEF7F0FF08B172B6FEE70F4C97
:101B9000012220212046FFF72DF94FF47A752846BF
:101BA000FFF728F8002220212046FFF723F92846D6
:101BB000FFF720F8044812212838FEF713FCFEE74F
:101BC00010000020004400405C00002000000240A3
:101BD00000000000000000000102030406070809DD
:101BE0000000000001020304081C0008000000209F
:101BF00034000000121B00083C1C000834000020C8
:101C00009C040000221B00080000000000000000EF
:101C100000000000000000000000000000000000C4
:101C200000000000000000000000000001000000B3
:0C1C300010000000000000000024F40080
:04000005080001C529
:00000001FF
