:020000040800F2
:10000000B0040020AD01000873180008F5160008C0
:10001000711800081D080008931B0008000000006C
:100020000000000000000000000000007718000839
:100030001F08000800000000751800087918000863
:10004000C7010008C7010008C7010008C701000870
:10005000C7010008C7010008C7010008C701000860
:10006000C7010008C7010008C7010008C701000850
:10007000C7010008C7010008C7010008C701000840
:10008000C7010008C7010008C70100080000000000
:10009000000000000000000000000000C701000890
:1000A000C7010008C7010008C7010008C701000810
:1000B000C7010008C7010008C7010008C701000800
:1000C000C7010008C7010008C7010008C7010008F0
:1000D000C7010008C7010008C701000800000000B0
:1000E000C7010008C7010008C701000800000000A0
:1000F000000000000000000000000000C701000830
:1001000000000000C7010008C7010008C70100087F
:1001100000000000000000000000000000000000DF
:10012000C7010008C7010008C7010008C70100088F
:10013000C7010008000000000000000000000000EF
:10014000000000000000000000000000C7010008DF
:10015000C7010008C7010008C7010008C70100085F
:10016000C7010008C70100080000000000000000EF
:10017000000000000000000000000000000000007F
:1001800000000000C701000800000000000000009F
:10019000C7010008DFF810D000F09AFA00480047C5
:1001A000D51B0008AFF30080B0040020064880474C
:1001B00006480047FEE7FEE7FEE7FEE7FEE7FEE74C
:1001C000FEE7FEE7FEE7FEE71519000895010008C7
:1001D0002DE9F05F0546002092469B46884606467C
:1001E000814640241BE0284641464746224600F00F
:1001F000EFF953465A46C01A914110D3114618469A
:10020000224600F0D6F92D1A67EB01084F46224628
:100210000120002100F0CDF917EB00094E41201E0E
:10022000A4F10104DFDC484631462A464346BDE8D6
:10023000F09FD2B201E000F8012B491EFBD27047BB
:100240000022F6E710B513460A4604461946FFF7A2
:10025000F0FF204610BD2DE9FE4F804681EA0300E5
:10026000C00F0C46009021F0004123F00045B8EB90
:100270000200A94105D24046214690461C460B4645
:10028000024623F00040104347D0270DC7F30A0071
:10029000C3F30A510290401A019040286BDAC3F36D
:1002A000130040F4801B0098924620B10023D2EB4B
:1002B000030A63EB0B0B01985946C0F1400250460C
:1002C00000F077F906460D4650465946019A00F06F
:1002D0008FF910EB08006141002487EA115284EA8B
:1002E000E7731A4340D0009A62B3019A012A4FEA99
:1002F000075215DC001B61EB02014FF0004202EADD
:100300000752CDE90042001C41F5801132462B46D0
:1003100000F08FF903B0BDE8F08F40462146F9E7C1
:10032000001B61EB0201001C41F5801300185B41CA
:100330002018A2F5001747EB030140EAD570B61963
:100340006D4111E06D084FEA360645EAC0754FEA87
:100350000752001B61EB0201001C41F580114908A6
:100360004FEA30000019514132462B4603B0BDE838
:10037000F04F00F04FB90098012240000023D0EB6D
:10038000020263EBE073009821464FEAE074B8EB99
:10039000000061EB0401E9E783F000435BE781F0D3
:1003A000004158E72DE9FE4F81EA030404F00044C0
:1003B00021F0004100944FF0000B23F0004350EA7D
:1003C00001045ED052EA03045BD0C3F30A54C1F3C4
:1003D0000A552C44A4F2F3340194A0FB0254C1F357
:1003E000130141F48011C3F3130343F4801301FBA1
:1003F000024400FB034E840A970A44EA815447EA08
:100400008357A4FB076802958D0A05FB07854FEA11
:10041000932C04FB0C542705029D4FEA065847EA2B
:100420001637B5EB08056EEB070C870E920E47EA00
:10043000811742EA8312A7FB0201B6EB0B0164EBC2
:1004400000042B0D43EA0C335E1844EB1C50DA46D3
:100450005146E7FB0201C5F313044FEA0B3343EAAD
:1004600014534FEA0432019C43EA0603A4F10C043E
:100470000294009CCDE900B400F0DBF803B0BDE8C5
:10048000F08F00200146F9E72DE9F04D81EA0304E1
:1004900004F0004B21F0004514464FF0000A23F011
:1004A000004150EA050220D054EA01021DD0C5F3F4
:1004B0000A570246C5F31303C1F31300C1F30A56EA
:1004C00040F4801543F48013A7EB0608101BD646B2
:1004D00008F2FD3873EB050002D308F1010801E0D2
:1004E00092185B41B8F1000F03DA00200146BDE825
:1004F000F08D00204FF48011064684460EE0171B55
:1005000073EB050705D3121B63EB050306434CEAA7
:10051000010C49084FEA300092185B4150EA01078C
:10052000EDD152EA030012D082EA040083EA050109
:10053000084305D0101BAB4106D20122002306E080
:1005400000224FF0004302E06FF0010253101AEB5B
:1005500006004CEB085110EB0A0041EB0B01BDE823
:10056000F04D00F057B80EB540F233410291002132
:10057000CDE900110A460B4600F05BF803B000BD60
:10058000C1F30A5210B5C1F3130140F2FF3341F435
:1005900080119A4201DA002010BD40F233439A42A2
:1005A000A2F2334203DC524200F012F810BD904038
:1005B00010BD202A04DB203A00FA02F10020704727
:1005C0009140C2F1200320FA03F319439040704791
:1005D000202A04DB203A21FA02F00021704721FA98
:1005E00002F3D040C2F120029140084319467047FF
:1005F000202A06DBCB17203A41FA02F043EAE073E7
:1006000006E041FA02F3D040C2F1200291400843D3
:100610001946704710B5141E73F1000408DA401C27
:1006200041F1000192185B411A4301D120F0010011
:1006300010BD2DE9F04D92469B4611B1B1FA81F201
:1006400002E0B0FA80F220329046FFF7B2FF044693
:100650000F4640EA0A0041EA0B0153465A46084356
:1006600013D0114653EA010019D0C8F14002504698
:10067000FFF7AEFF05460E46504659464246FFF785
:1006800098FF084305D0012004E020463946BDE824
:10069000F08D0020054346EAE0762C4337430A9864
:1006A0006305E40AA0EB08000022FD0A44EA47546F
:1006B0000A3002D500200146E9E701051019694119
:1006C000DDE9084500196941BDE8F04DA2E70000E9
:1006D000064C074D06E0E06840F0010394E807008F
:1006E00098471034AC42F6D3FFF758FDC41C0008FD
:1006F000E41C0008464910B54A6822F440324A60BA
:100700004A6843681A434A6001684A6822F4807262
:100710004A6001684A68036942EA03224A60016844
:100720004A6822F040724A6001684A6883681A4346
:100730004A6001688A6822F400628A6001688A68F7
:10074000C3681A438A60816A6FF07062D14201689F
:100750008A6822F070628A6001688A680CD0836AB5
:100760001A438A6001688A6822F040528A600168F0
:100770008A68C36A1A4301E022F040528A60016825
:100780008A6822F002028A6001688A68037E42EA6F
:1007900043028A6090F82010002901684A680FD04F
:1007A00042F400624A6001684A6822F460424A608A
:1007B00001684A68174C436A04EB43331A4301E06B
:1007C00022F400624A600168CA6A22F47002CA62B6
:1007D0000168CA6A838B104C04EB03531A43CA6244
:1007E00001688A6822F400728A6001688A6890F859
:1007F000303042EA43228A6001688A6822F48062CB
:100800008A6001688A68406942EA8020886010BD79
:100810000023014000E0FFFF0000F0FFFEE770470B
:1008200078B50024009490F83C20012A19D00122C8
:1008300080F83C200A6807230568092A13D9EE6866
:100840000A3A02EB420293409E43EE600B788A68BC
:100850000A3B03EB43039A400368DD682A43DA60EE
:1008600010E0022078BD2E6902EB420293409E43C5
:100870002E610B788A6803EB43039A4003681D6975
:100880002A431A614A681F23072A13D205686E6B30
:10089000521E02EB820293409E436E630B790A88DC
:1008A0005B1E92B203EB83039A4003685D6B2A439D
:1008B0005A6327E005680D2A12D22E6BD21F02EB75
:1008C000820293409E432E630B790A88DB1F92B20B
:1008D00003EB83039A4003681D6B2A431A6311E0FC
:1008E000EE6A0D3A02EB820293409E43EE620B7970
:1008F0000A880D3B92B203EB83039A400368DD6ADA
:100900002A43DA62164B0568144A9D4206D10D68E7
:10091000122D03D1556845F48005556005689D4248
:1009200018D10B68102B01D0112B13D1536843F44D
:1009300000035360096810290CD10A490A4A096862
:10094000B1FBF2F101EB8101490000E0491E009189
:100950000029FBD180F83C40002078BD00230140F5
:10096000002001402400002040420F000068C06CBD
:10097000704770B504004FF0000503D0206C0026CE
:1009800010B107E0012070BD204600F01DF866643C
:1009900084F83C60206CC00610D4206C20F4885091
:1009A00040F0020020642046FFF7A4FE6664206C3D
:1009B00020F0020040F00100206400E0012584F8EE
:1009C0003C60284670BD000010B586B00446142176
:1009D0006846FFF735FC1149206888421CD1104851
:1009E0000021026842F480720260006800F48070A6
:1009F00005900B481438026842F00102026000685A
:100A000000F001000590012000900320CDE90101D4
:100A10006946044800F0CAF806B010BD0020014045
:100A200044380240000002402DE9F04104460068CD
:100A30000D4681684FF0000749050BD58068C00559
:100A400008D5206C40F02000206484F83C70012020
:100A5000BDE8F08100F074F906460FE0681C0DD087
:100A600025B100F06DF9801BA84207D9206C40F039
:100A70000400206484F83C700320E9E720680068E3
:100A80008007EBD521686FF012000860206C40F4FD
:100A9000007020642068816811F0405F13D1217ECE
:100AA00089B9C16A11F4700F02D0806840050AD478
:100AB000206C20F480702064206CC00403D4206C6F
:100AC00040F0010020640020C2E7000018B50021BA
:100AD000009190F83C20012A07D0012280F83C20A8
:100AE00002689368DB0702D011E0022018BD93680A
:100AF00043F001039360204A204B1268B2FBF3F2EB
:100B000002EB420200E0521E0092002AFBD1026872
:100B10009368DB072DD0036C40F20164A34343F4D8
:100B20008073036453685B0505D5036C23F400539D
:100B300043F480530364036CDB0404D5436C23F05B
:100B40000603436400E0416480F83C100C496FF0F8
:100B50002203136049680068C90602D00949884227
:100B600007D1816811F0405F03D1816841F0804175
:100B70008160002018BD00002400002040420F00CA
:100B8000002301400020014070B5044600F0D8F871
:100B90000546601C02D004480078044400F0D0F8F8
:100BA000401BA042FAD370BD180000202DE9F84F79
:100BB00000224FF0010803254FF00F0E0B6808FAD2
:100BC00002F42340A34271D14E68012E05D0022EBB
:100BD00003D0112E01D0122E15D18668570005FAC8
:100BE00007FC26EA0C06D1F80CC00CFA07FC4CEA0C
:100BF000060CC0F808C04668A6430C79C4F300147C
:100C0000944034434460C668570005FA07FC8C687A
:100C100026EA0C06BC403443C4604C68022C01D068
:100C2000122C13D1D40800EB8404A346D4F82090EE
:100C300054074FEAD46A0EFA0AF629EA06090E6941
:100C400006FA0AF646EA0906CBF8206004680E792F
:100C500024EA0C0406F00306BE40264306604C68F6
:100C6000E40056D52E4C266846F48046266024685B
:100C700022F0030604F4804400942A4C3444A44631
:100C8000D4F808489607370F0EFA07F6B443264EF5
:100C9000B04201D1002615E0244EB04201D1012618
:100CA00010E0234EB04202D102260BE031E0214E8B
:100CB000B04201D1032605E01F4EB04201D1042607
:100CC00000E00726BE402643CCF808681B4E346877
:100CD0004F689C43FF0300D51C433460174E361DFC
:100CE00034684F689C43BF0300D51C433460134EE7
:100CF000083634684F689C43FF0200D51C433460BB
:100D00000E4E0C3634684F689C43BF0200D51C431E
:100D10003460521C102AFFF451AFBDE8F88F000078
:100D2000443802400030014000000240000402400C
:100D300000080240000C024000100240003C01404C
:100D40000148806870470000180000200248816850
:100D50000278114481607047180000200B4810B5DC
:100D6000016841F400710160016841F48061016033
:100D7000016841F480710160032000F063F80020F5
:100D800000F006F800F024F8002010BD003C0240FE
:100D900070B50D4D04464FF47A712878B1FBF0F030
:100DA0000A490968B1FBF0F000F0D6FA48B9102CF6
:100DB00007D200222146501E00F024F800206C606B
:100DC00070BD012070BD000018000020240000202C
:100DD0000B4882B0016841F480410160006800F472
:100DE000804000900648001F016841F0805101607A
:100DF000006800F080500090072002B000F022B898
:100E000044380240F0B40E4B1B680C46C3F3022377
:100E1000C3F10705042D00D90425191D072901D2A6
:100E2000002300E0DB1E012606FA05F1491E2140E1
:100E300099409E40761E16403143F0BC00F0AABE99
:100E40000CED00E0064900F0070208684FF6FF03CA
:100E5000184040EA0220034A10430860704700002F
:100E60000CED00E00000FA052DE9F0470E46050004
:100E700065D0DFF81481D8F80000F7B200F00F0059
:100E8000B04207D288F80070D8F8000000F00F00D8
:100E9000B04254D128683D4C810712D5400703D594
:100EA000206840F4E05020602878000703D52068CF
:100EB00040F4604020602068A96820F0F0000843FA
:100EC00020602878C0072DD030496868083901288B
:100ED00012D0022813D0032811D0096889070029ED
:100EE0002DDA216821F0030101432160FFF728FF7B
:100EF000814641F2883A0EE009688903EFE7096804
:100F00008901ECE7FFF71CFFA0EB0901514502D96D
:100F10000320BDE8F0872068696800F00C00B0EBA2
:100F2000810FEFD1D8F80010404601F00F01B14217
:100F300007D90770006800F00F00B04201D001200F
:100F4000E7E72878400705D52068E96820F4E050F5
:100F5000084320602878000706D52068296920F416
:100F6000604040EAC100206000F018F82168084A9B
:100F7000C1F30311515CC840064908600648006887
:100F8000FFF706FF0020C4E7003C0240083802409B
:100F9000B41C0008240000201C000020154810B5D7
:100FA000006810F00C02144813D04110042A0FD02E
:100FB000082A0ED10F4C241F2268236802F03F023A
:100FC0005B0207D52068C0F38810A0FB010106E092
:100FD000084610BD2168C1F38811A1FB0001002360
:100FE000FFF7F6F82168C1F30141491C4900B0FB45
:100FF000F1F010BD083802400024F4002DE9F84F4C
:1010000004006ED02078DFF83C93C007A9F10405F6
:101010004AD009F104000168C1F38101012908D017
:101020000068C0F3810002280AD1D9F8000040020C
:1010300006D52868800337D560680028E1D033E002
:101040006068B0F5803F10D0B0F5A02F286810D0B0
:1010500020F480302860286820F4802028606068B0
:10106000A8B1FFF76DFE06460DE0286840F4803019
:10107000F4E740F480202860F7E700BFFFF760FE48
:10108000801B642873D828688003F7D50CE0FFF72D
:1010900057FE064605E000BFFFF752FE801B64289E
:1010A000F0D828688003F7D42078DFF89C82800786
:1010B0004FF0000A3ED5A348001D016811F00C0F47
:1010C00008D00068C0F3810002280BD1D9F80000D5
:1010D000400207D42868800716D5E068012800D1AF
:1010E00012E02BE1E068B8B10120C8F80000FFF77A
:1010F00027FE064605E000BFFFF722FE801B022800
:10110000C0D828688007F7D52868216920F0F80042
:1011100040EAC10028600DE0C8F800A0FFF710FE0B
:10112000064604E0FFF70CFE801B02281FD8286843
:101130008007F7D42078000722D5824E8348616962
:10114000703671B101210160FFF7FAFD074604E036
:10115000FFF7F6FDC01B022809D830688007F7D5D5
:101160000EE0C0F800A0FFF7EBFD074605E082E0C7
:10117000FFF7E6FDC01B02287DD830688007F7D452
:101180002078400768D5DFF8BCB100270BF13C0B95
:10119000DBF80000C0000BD4DBF8001041F08051F8
:1011A000CBF80010DBF80000012700F08050009021
:1011B000674E3068C00510D4306840F480703060ED
:1011C000FFF7BEFD009005E0FFF7BAFD0099401A59
:1011D000022850D83068C005F6D55A4EA0686C3643
:1011E00001280FD00528306810D020F001003060B1
:1011F000306820F004003060A068B8B1FFF7A0FDAF
:1012000000900FE0306840F00100F4E740F0040087
:101210003060F7E7FFF794FD0099411A41F28830FA
:10122000814266D830688007F4D50EE0FFF788FD6C
:10123000009007E0FFF784FD0099411A41F28830E1
:10124000814256D830688007F4D42FB1DBF8001003
:1012500021F08051CBF80010A069C8B33949091DAD
:101260000968C1F3810102294AD00228504607D0FB
:10127000C8F8600000E03CE0FFF762FD04463BE098
:101280004746C8F86000FFF75BFD064605E000BF73
:10129000FFF756FD801B02282BD828688001F7D461
:1012A000D4E907010843A16A2A4A490802EB01412F
:1012B000626A41EA8211084394F82C1040EA016105
:1012C000C9F8001001203866FFF73AFD044606E031
:1012D00036E000BFFFF734FD001B022809D828685C
:1012E0008001F7D52CE000BFFFF72AFD001B022884
:1012F00002D90320BDE8F88F28688001F4D41FE0EC
:101300000128F7D0D9F80000E26900F48001914289
:1013100014D1226A00F03F0191420FD147F6C0710B
:10132000626A0140914209D1A26A00F440319142BF
:1013300004D1E16A00F07060884201D00120D9E751
:101340000020D7E70438024000004742800E4742A1
:10135000007000400000FFFF10B5401EB0F1807F1C
:1013600001D3012010BD4FF0E02460610F21601710
:1013700000F010FC0020A06107202061002010BDBB
:1013800070B590F83C20012A2CD0012480F83C4014
:10139000022280F83D2003685A689D6822F070069A
:1013A0000A6832435A60104B02689A420ED0B2F17A
:1013B000804F0BD00D4B9A4208D00D4B9A4205D06E
:1013C0000C4B9A4202D00C4B9A4204D1496825F04A
:1013D00080031943916080F83D40002180F83C1063
:1013E000084670BD022070BD0000014000040040AE
:1013F00000080040000C00400040014010B504000F
:1014000003D094F83D0010B107E0012010BD00208A
:1014100084F83C00204600F00DF8022084F83D00DE
:10142000211D206800F084FA012084F83D0000208E
:1014300010BD000008B50068B0F1804F08D1054824
:10144000016841F001010160006800F001000090B6
:1014500008BD00004038024070B5044690F83C00DA
:10146000012817D0012584F83C50022084F83D0063
:101470002068826822F0770222F47F428260086846
:10148000502830D00DDC20284DD005DC98B3102832
:101490003BD148E0022070BD302844D0402834D1F0
:1014A00039E0602828D0702806D0B0F5805F2CD0B5
:1014B000B0F5005F29D10AE0CB68D1E901212068AD
:1014C00000F08FFA2068816841F0770109E0CB686D
:1014D000D1E90121206800F084FA2068816841F494
:1014E0008041816011E0CA684968206800F02EFBE5
:1014F0005021206807E016E0CA684968206800F0BB
:1015000036FB6021206800F076FA84F83D50002018
:1015100084F83C0070BDCA684968206800F016FB7A
:1015200040212068EFE7226801461046EBE7000003
:1015300010B586B0044614216846FEF781FE206887
:10154000B0F1804F15D10C48016841F001010160F4
:101550000068694600F001000590202000900220FC
:101560000190029003200390012004900348FFF7AC
:101570001DFB06B010BD00003038024000000240E4
:1015800070B5044690F83C000D4601280DD00126A8
:1015900084F83C60022084F83D0042B1042A18D04F
:1015A000082A2AD00C2A4DD139E0022070BD2068CB
:1015B00000F02AFA2068816941F008018161206801
:1015C000816921F004018161206881692A691143E0
:1015D00011E0206800F040FA2068816941F4006160
:1015E00081612068816921F480618161206881695D
:1015F0002A6941EA0221816124E0206800F058FA5A
:101600002068C16941F00801C1612068C16921F009
:101610000401C1612068C1692A69114311E0206891
:1016200000F072FA2068C16941F40061C16120686C
:10163000C16921F48061C1612068C1692A6941EAF8
:101640000221C16184F83D60002084F83C0070BD37
:1016500010B5040003D094F83D0010B107E001205C
:1016600010BD002084F83C00204600F00CF8022059
:1016700084F83D00211D206800F05AF9012084F80B
:101680003D00002010BD704710B50268044631B11E
:10169000042908D0082922D00C2908D123E0D068D9
:1016A00040F0020002E0D06840F00400D060012267
:1016B000206800F089F90E492068884203D1416C06
:1016C00041F4004141642068816801F00701062966
:1016D00003D0016841F001010160002010BDD06815
:1016E00040F00800E2E7D06840F01000DEE70000BC
:1016F00000000140FEE700007FB50024154800947B
:10170000019402941249039401604FF48031C0E9BE
:1017100001140461047680F820400F49C0E90A14DE
:101720000125C561C46080F830404561FFF721F9AB
:1017300008B172B6FEE7CDE9004569460548029456
:10174000FFF76EF8002801D072B6FEE77FBD0000FB
:1017500000200140280000200100000F00B587B0E4
:1017600014216846FEF76CFD16480021026842F01D
:1017700004020260026802F004020592026842F06C
:1017800080020260026802F080020592026842F064
:1017900001020260026802F001020592026842F052
:1017A00002020260006800F0020005904FF4005051
:1017B00000900548CDE9010169460448FFF7F6F9B4
:1017C00007B000BD30380240000021100008024080
:1017D00010B58EB000240794089409940A940B94D1
:1017E0001C2168460C94FEF72BFD1F484FF08041EA
:1017F000016040F2E731C0E901141C49C0E903145B
:101800008461FFF7FBFD08B172B6FEE74FF480502C
:10181000079007A91448FFF71FFE08B172B6FEE74C
:101820001148FFF715FF08B172B6FEE70B940BA93C
:101830000D480C94FFF7A4FD08B172B6FEE76020D6
:1018400000904AF20F40CDE90104002269460648A3
:101850000494FFF795FE08B172B6FEE70248FFF761
:1018600067FE0EB010BD0000700000201F48010090
:10187000FEE7FEE770477047FFF768BA30B593B0F0
:1018800030216846FEF7DCFC14210CA8FEF7D8FCDA
:101890001E480024016841F080510160006800F09A
:1018A000805011901A48016821F4404141F40041F0
:1018B00001600068022500F440401190012003906F
:1018C0001020009506950490CDE907404FF4A870CC
:1018D000099004200A9007200B906846FFF78EFBC2
:1018E00008B172B6FEE70F20CDE90C054FF4805029
:1018F000CDE90E4002210CA81094FFF7B5FA00289C
:1019000001D072B6FEE713B030BD0000403802408F
:10191000007000400548016841F47001016003490E
:101920004FF00060803908607047000088ED00E0EB
:10193000F0B502681D4B1E4C9F031E4D1E4E984273
:1019400007D0B84205D0A04203D0A84201D0B0428F
:1019500004D122F0700C4A6842EA0C02984210D07E
:10196000B8420ED0A0420CD0A8420AD0B04208D053
:10197000124CA04205D0124CA04202D0114CA04201
:1019800003D122F44074CA6822434C6922F08002D9
:10199000224302608A68C2620A688262984201D168
:1019A0000969016301214161F0BD000000000140AF
:1019B0000004004000080040000C004000400140CE
:1019C000004401400048014010B501F01F0301210F
:1019D000046A99408C430462016A9A40114301628F
:1019E00010BD10B5846842EA032224F47F440A4300
:1019F0002243826010BD826822F070020A4342F0E6
:101A0000070181607047000030B5026A22F00102D0
:101A10000262026A4368846924F073050C682C43EF
:101A200022F002058A682A430A4DA8420BD122F00F
:101A30000805CA6823F440732A434D6922F0040262
:101A40001D438B692B434360846149684163026293
:101A500030BD00000000014030B5026A22F01002E3
:101A60000262026A436884690D6824F4E64444EA29
:101A700005248D6822F0200242EA05120B4DA8428F
:101A80000ED1CD6822F0800242EA05124D6923F49E
:101A9000406343EA85038D6922F0400243EA8503EF
:101AA0004360846149688163026230BD0000014087
:101AB00030B5026A22F480720262036A4268C46925
:101AC00023F4007324F073050C682C438D6843EAFB
:101AD00005230C4DA8420ED1CD6823F4006343EAE0
:101AE00005234D6922F4405242EA05128D6923F420
:101AF000806342EA05124260C4614968C1630362BF
:101B000030BD00000000014030B5026A22F480526E
:101B10000262046A4268C3690D6823F4E64343EA3B
:101B200005238D6824F4005444EA0534064DA84288
:101B300004D14D6922F4804242EA85124260C361B9
:101B400049680164046230BD0000014010B5036AB9
:101B5000046A24F001040462846924F0F00444EA75
:101B6000021423F00A020A438461026210BD10B518
:101B7000036A23F0100303628369046A23F4704349
:101B800043EA023224F0A00343EA011182610162B8
:101B900010BDFEE70907090E002804DB00F1E02074
:101BA00080F80014704700F00F0000F1E02080F88A
:101BB000141D704702E008C8121F08C1002AFAD19C
:101BC00070477047002001E001C1121F002AFBD1BD
:101BD00070470000FFF7C2F8FFF750FEFFF7BEFDA9
:101BE000FFF7F6FDFFF788FD00210548FFF74CFDE4
:101BF0004FF47A7400F006F82046FEF7C5FFF9E7C7
:101C00007000002010B52148FEF760FF64211F48D6
:101C1000FEF70AFF1D48FEF7A9FEFEF7A4FC1C4CC8
:101C200041EC100B9FED1B1B84ED000B53EC112BB3
:101C3000FEF7B8FB9FED191B53EC112BFEF724FCAC
:101C400041EC100B9FED171B84ED020B53EC112B95
:101C5000FEF701FB9FED151B53EC112BFEF7A2FBCA
:101C6000FEF78EFC4FF08041C862C86A40084863A6
:101C7000486B0121B1FBF0F0FEF775FCC4E90401EB
:101C8000BDE810400A20FEF77FBF000028000020BA
:101C9000000000206666666666660A400000000076
:101CA00000FEAF409A9999999999C93F00000000A8
:101CB00000C0924000000000000000000102030488
:101CC00006070809E41C00080000002028000000A6
:101CD000B41B00080C1D0008280000208804000028
:101CE000C41B00080000000000000000000000000D
:101CF00000000000000000000000000001000000E3
:0C1D000010000000000000000024F400AF
:040000050800019559
:00000001FF
