:020000040800F2
:1000000070040020DD0100084F1600081D120008D2
:100010004D160008E902000815170008000000004E
:10002000000000000000000000000000531600085F
:10003000EB020008000000005116000855160008E9
:10004000F7010008F7010008F7010008F7010008B0
:10005000F7010008F7010008F7010008F7010008A0
:10006000F7010008F7010008F7010008F701000890
:10007000F7010008F7010008F7010008F701000880
:10008000F7010008F7010008F7010008F701000870
:10009000F7010008F7010008F7010008F701000860
:1000A000F7010008F7010008F7010008F701000850
:1000B000F7010008F7010008F7010008F701000840
:1000C000F7010008F7010008F7010008F701000830
:1000D000F7010008F7010008F7010008F701000820
:1000E000F7010008F7010008F7010008F701000810
:1000F000F7010008F7010008F7010008F701000800
:10010000F7010008F7010008F7010008F7010008EF
:10011000F7010008F7010008F7010008F7010008DF
:10012000F7010008F7010008F7010008F7010008CF
:10013000F70100080000000000000000F7010008BF
:10014000F7010008F7010008F7010008F7010008AF
:10015000F7010008F7010008F7010008F70100089F
:10016000F7010008F7010008F7010008F70100088F
:10017000F7010008F7010008F7010008000000007F
:1001800000000000F701000800000000000000006F
:10019000F70100080000000000000000F70100085F
:1001A000000000000000000000000000F70100084F
:1001B000F7010008F7010008F7010008F70100083F
:1001C000F7010008DFF810D000F07CF80048004785
:1001D00055170008AFF300807004002006488047E0
:1001E00006480047FEE7FEE7FEE7FEE7FEE7FEE71C
:1001F000FEE7FEE7FEE7FEE7F9160008C501000886
:100200002DE9F05F0546002092469B46884606464B
:10021000814640241BE0284641464746224600F0DE
:1002200041F853465A46C01A914110D31146184618
:10023000224600F028F82D1A67EB01084F462246A7
:100240000120002100F01FF817EB00094E41201E8D
:10025000A4F10104DFDC484631462A464346BDE8A6
:10026000F09FD2B201E000F8012B491EFBD270478B
:100270000022F6E710B513460A4604461946FFF772
:10028000F0FF204610BD202A04DB203A00FA02F1DC
:10029000002070479140C2F1200320FA03F3194374
:1002A00090407047202A04DB203A21FA02F0002116
:1002B000704721FA02F3D040C2F120029140084376
:1002C00019467047064C074D06E0E06840F0010310
:1002D00094E8070098471034AC42F6D3FFF776FF56
:1002E0009C180008BC180008FEE7704770B504466B
:1002F00000F0E8F80546601C02D004480078044489
:1003000000F0E0F8401BA042FAD370BD08000020C6
:100310002DE9F84F00224FF0010803254FF00F0E92
:100320000B6808FA02F42340A3426ED14E68012EF6
:1003300005D0022E03D0112E01D0122E12D18668C4
:100340004FEA420C05FA0CF7BE43CF6807FA0CF7E8
:10035000374387604668A6430C79C4F30014944081
:1003600034434460C668570005FA07FC8C6826EAE7
:100370000C06BC403443C4604C68022C01D0122CE3
:1003800013D1D40800EB8404A346D4F8209054077A
:100390004FEAD46A0EFA0AF629EA06090E6906FA45
:1003A0000AF646EA0906CBF8206006680C7926EAC8
:1003B0000C0604F00304BC40344304604C68E400C1
:1003C00060D5334C266846F480462660246822F0C7
:1003D000030604F4804400942E4C3444A446D4F81C
:1003E00008489607370F0EFA07F6B4432A4EB04274
:1003F00001D100261FE0294EB04201D101261AE0AA
:10040000274EB04202D1022615E03BE0254EB04215
:1004100001D103260FE0244EB04201D104260AE0A8
:10042000224EB04201D1052605E0214EB04201D155
:10043000062600E00726BE402643CCF808681D4E7D
:1004400034684F689C43FF0300D51C433460194E49
:10045000361D34684F689C43BF0300D51C4334608D
:10046000144E083634684F689C43FF0200D51C4385
:100470003460104E0C3634684F689C43BF0200D580
:100480001C433460521C102AFFF44AAFBDE8F88FB9
:1004900044380240003001400000024000040240A5
:1004A00000080240000C024000100240001402400C
:1004B00000180240003C01400AB181617047090404
:1004C000FBE700000148806870470000080000203A
:1004D00070B5040025D094F83D00002520B984F8BB
:1004E0003C50204600F0F4FA242084F83D002068B7
:1004F000016821F0010101602068016841F40041B8
:1005000001602068016821F40041016000F076FC80
:100510004D4A6168914201D84C4900E04C498842FB
:1005200001D2012070BD4B492368B0FBF1F15E6838
:1005300026F03F060E435E606368934206D94FF48F
:10054000967359434FF47A73B1FBF3F12368491C56
:100550001E6A26F03F06314319626168914210D845
:100560004900401EB0FBF1F2521CC2F30B02042AF8
:1005700001D2042022E0B0FBF1F0401CC0F30B00DC
:100580001CE0A268F2B301EBC10303EB0116431EAA
:10059000B3FBF6F35B1C43F480431B0549D092B3D5
:1005A00001EBC10202EB0111401EB0FBF1F0401C57
:1005B000C0F30B0040F4804040F400402168CA6959
:1005C0004CF6FF739A431043C861D4E90710014306
:1005D0002068026822F0C00211430160D4E90301DF
:1005E00001432068826848F2FF339A4311438160D7
:1005F000D4E9050108432168CA6822F0FF021043CC
:10060000C86001E00EE016E02068016841F00101D9
:1006100001602564202084F83D00256384F83E5065
:10062000002070BD01EB4106431EB3FBF6F35B1CDB
:10063000B3E70120C2E701EB4101401EB0FBF1F03E
:10064000401CC0F30B00B7E7A086010080841E00A9
:1006500000093D0040420F002DE9FF4F81B089465F
:100660000446FFF72FFF054694F83D004FF00108C0
:1006700020287DD11923012250492046009500F001
:10068000CFFE002874D194F83C00012870D00120DE
:1006900084F83C0020680168C90703D1016841F073
:1006A000010101602068016821F4006101602420DB
:1006B00084F83D00002626644148E0624FF0011BAB
:1006C00020272068016841F48071016000950022B4
:1006D00059462046049B00F0A3FE50B120680068F4
:1006E000C00502D54FF400702064032005B0BDE8BA
:1006F000F08F216809F0FE000861FFF7E3FE216832
:10070000054648694969C0F34000C1F380214FF0B4
:10071000A00A0FE0FFF7D6FE411B0498814200D8E3
:1007200008B984F83DA0216848694969C0F34000D0
:10073000C1F3802194F83D20A02A02D008B90029F5
:10074000E8D084F83D7020684169C943890716D410
:10075000016841F4007101602068416980691923D2
:10076000012216492046009500F05AFEB8B900E073
:1007700021E084F83D7084F83C600020B6E7016811
:1007800041F40071016021686FF4806048611923B1
:1007900001220A492046009500F042FE08B10120DE
:1007A000A4E7039808F1010880458AD384F83D70D6
:1007B00084F83C60F3E7022098E700000200100094
:1007C0000000FFFF2DE9F84F1F4690468A46044679
:1007D000DDF82890FFF776FE054694F83D002028C6
:1007E00075D1192301226C492046009500F018FEAE
:1007F0000028F5D194F83C00012868D0012084F845
:100800003C0020680168C90703D1016841F001017B
:1008100001602068016821F400610160222084F8F1
:100820003D00102084F83E0000262664C4F8248091
:100830006785608D20855948E0622B464A465146BF
:10084000204600F003FD002878D1208D544F68B178
:10085000012814D002282068016816D041F4806174
:100860000160206841698069009087E020684169E3
:1008700081690091016841F4007101607EE02068A7
:10088000016821F480610160F0E721F4806101607A
:100890002068016841F40061E2E7032848D8012894
:1008A0000AD0022814D04B46002239462046009533
:1008B00000F0B6FDD8BB27E02A464946204600F0A6
:1008C0002EFEA0BB20680069616A08704DE061E0FF
:1008D0004B46002239462046009500F0A1FD30BB72
:1008E0002068016841F40071016020680069616A54
:1008F0000870606A401C6062218D491E2185618DEF
:10090000491E618521682EE02068016821F480611C
:10091000016020680069616A0870606A401C60625A
:10092000208D401E2085608D401E6085D0E705E04B
:100930002A464946204600F0F2FD10B10120BDE8EC
:10094000F88F20680069616A0870606A401C606204
:10095000218D491E2185618D491E618521684A6965
:10096000D24352070AD409690170606A401C606270
:10097000208D401E2085608D401E6085208D0028C2
:100980008BD1202084F83D0084F83E6084F83C60E0
:100990000020D4E70220D2E7020010000000FFFF91
:1009A000040001002DE9F84F1F4690468A46044690
:1009B000DDF82890FFF786FD054694F83D002028D5
:1009C0007FD11923012240492046009500F028FDDF
:1009D000002876D194F83C00012872D0012084F8D8
:1009E0003C0020680168C90703D1016841F001019A
:1009F00001602068016821F400610160212084F811
:100A00003D00102084F83E0000262664C4F82480AF
:100A10006785608D20852D48E0622B464A46514609
:100A2000204600F089FC90B92068416980690090F7
:100A300036E02A464946204600F0A4FD50B1206C1D
:100A4000042804D12068016841F40071016001208C
:100A5000BDE8F88F606A216800780861606A401C10
:100A60006062618D491E6185218D491E89B2218593
:100A700022685369DB435B070BD451B100781061E6
:100A8000606A401C6062608D401E6085208D401E43
:100A900020852A464946204600F09CFC0028CED1FD
:100AA000208D0028C5D154F83D0B016841F4007138
:100AB0000160202004F81E09E67766770020C7E76A
:100AC000FFE70220C4E70000020010000000FFFF63
:100AD00010B586B0044614216846FFF7C9FB1449D7
:100AE0002068884221D11348016841F00201016069
:100AF0000068694600F0020005904FF440700090D5
:100B00001220019001200290032003900420049001
:100B10000948FFF7FDFB07481030016841F4001158
:100B20000160006800F40010059006B010BD0000E0
:100B300000540040303802400004024002488168FE
:100B40000278114481607047080000200B4810B5FE
:100B5000016841F400710160016841F48061016045
:100B6000016841F480710160032000F063F8002007
:100B700000F006F800F024F8002010BD003C024010
:100B800070B50D4D04464FF47A712878B1FBF0F042
:100B90000A490968B1FBF0F000F02CFB48B9102CB1
:100BA00007D200222146501E00F024F800206C607D
:100BB00070BD012070BD000008000020140000205E
:100BC0000B4882B0016841F480410160006800F484
:100BD000804000900648001F016841F0805101608C
:100BE000006800F080500090072002B000F022B8AA
:100BF00044380240F0B40E4B1B680C46C3F302238A
:100C0000C3F10705042D00D90425191D072901D2B8
:100C1000002300E0DB1E012606FA05F1491E2140F3
:100C200099409E40761E16403143F0BC00F073BDE3
:100C30000CED00E0064900F0070208684FF6FF03DC
:100C4000184040EA0220034A104308607047000041
:100C50000CED00E00000FA052DE9F84317480168A3
:100C600041F0805101600068154F00F0805001266E
:100C700000903E64FFF726FC05464FF47A78114C4D
:100C800005E000BFFFF71EFC401B40450DD8606823
:100C9000C003F7D57E64FFF715FC0546464607E01E
:100CA000FFF710FC401BB04202D90320BDE8F883D7
:100CB00060688003F4D50020F8E700004038024067
:100CC00000000E42007000402DE9F0470E4605007E
:100CD00065D0DFF81481D8F80000F7B200F00F00FB
:100CE000B04207D288F80070D8F8000000F00F007A
:100CF000B04254D128683D4C810712D5400703D536
:100D0000206840F4E05020602878000703D5206870
:100D100040F4604020602068A96820F0F00008439B
:100D200020602878C0072DD030496868083901282C
:100D300012D0022813D0032811D00968890700298E
:100D40002DDA216821F0030101432160FFF7BAFB8E
:100D5000814641F2883A0EE009688903EFE70968A5
:100D60008901ECE7FFF7AEFBA0EB0901514502D981
:100D70000320BDE8F0872068696800F00C00B0EB44
:100D8000810FEFD1D8F80010404601F00F01B142B9
:100D900007D90770006800F00F00B04201D00120B1
:100DA000E7E72878400705D52068E96820F4E05097
:100DB000084320602878000706D52068296920F4B8
:100DC000604040EAC100206000F028F82168084A2D
:100DD000C1F30311515CC840064908600648006829
:100DE000FFF7CEFE0020C4E7003C02400838024076
:100DF00084180008140000200C0000200448054955
:100E000000680968044AC1F38221515CC8407047F8
:100E1000140000200838024094180008224810B539
:100E2000006810F00C02214815D04110042A11D09E
:100E30001D4C241F082A0FD00C2A0CD122682368CD
:100E400002F03F025B0221D52068C0F38810A0FBAE
:100E5000010120E0084610BD2268236802F03F022D
:100E60005B0205D52068C0F38810A0FB010104E0F7
:100E70002168C1F38811A1FB00010023FFF7C0F92D
:100E80002168C1F30141491C49000AE02168C1F30E
:100E90008811A1FB00010023FFF7B2F92168C1F31B
:100EA0000271B0FBF1F010BD083802400024F400DC
:100EB0002DE9F84F0546DFF828B30078ABF10407B9
:100EC000C007A7F1040451D0DBF800105846C1F365
:100ED000810101290FD00168C1F38101022902D1EA
:100EE0003968490207D40068C0F38100032809D19A
:100EF0003868400206D52068800337D56868002826
:100F000072D033E06868B0F5803F10D0B0F5A02F04
:100F1000206810D020F480302060206820F48020E9
:100F200020606868A8B1FFF7CDFA06460DE020689A
:100F300040F48030F4E740F480202060F7E700BF01
:100F4000FFF7C0FA801B642878D820688003F7D5A3
:100F50000CE0FFF7B7FA064605E000BFFFF7B2FA6C
:100F6000801B6428F0D820688003F7D42878DFF845
:100F7000749280074FF0000A46D5DBF800105846FF
:100F800011F00C0F0FD00168C1F38101022902D1C9
:100F90003968490207D50068C0F38100032809D1E8
:100FA0003868400206D42068800715D5E868012813
:100FB0001AD111E0E868C0B10120C9F80000FFF7BC
:100FC00081FA064605E000BFFFF77CFA801B022885
:100FD000BAD820688007F7D52068296920F0F80082
:100FE00040EAC10020600FE0F7E0C9F800A0FFF779
:100FF00069FA064605E000BFFFF764FA801B022885
:101000001CD820688007F7D42878000727D5DFF898
:10101000D0817548696908F16C0881B101210160CE
:10102000FFF750FA064604E0FFF74CFA801B02284F
:1010300004D8D8F800008007F6D510E089E0C0F8A1
:1010400000A0FFF73FFA064605E000BFFFF73AFAB7
:10105000801B02287DD8D8F800008007F6D42878B5
:10106000400769D55E484FF0000838300068C0007E
:101070000BD45B483830016841F080510160006852
:101080004FF0010800F080500090584E3068C005C5
:1010900011D4306840F480703060FFF713FA00908C
:1010A00006E000BFFFF70EFA0099401A022850D858
:1010B0003068C005F6D54A4EA868683601280FD0BA
:1010C0000528306810D020F001003060306820F032
:1010D00004003060A868B8B1FFF7F4F900900FE0A1
:1010E000306840F00100F4E740F004003060F7E7BA
:1010F000FFF7E8F90099411A41F28830814264D83B
:1011000030688007F4D50EE0FFF7DCF9009007E0C7
:10111000FFF7D8F90099411A41F28830814254D83A
:1011200030688007F4D4B8F1000F05D02C4838306F
:10113000016821F080510160A869A8B3DBF80010B4
:10114000C1F38101022948D00228C9F860A005D066
:1011500000E03AE0FFF7B6F9054639E0FFF7B2F9EB
:10116000064604E0FFF7AEF9801B02282DD8206860
:101170008001F7D4F5E907010843E9681C4A4908EA
:1011800002EB0141AA6841EA82110843297C40EA46
:101190000160297D40EA017038600120C9F86000D3
:1011A000FFF790F9054606E015E000BFFFF78AF962
:1011B000401B022809D820688001F7D50BE000BF4A
:1011C000FFF780F9401B022802D90320BDE8F88F01
:1011D00020688001F4D40020F8E70120F6E7000041
:1011E0000838024000004742800E4742007000402D
:1011F0000000FFFF10B5401EB0F1807F01D3012039
:1012000010BD4FF0E02460610F21601700F083FAF9
:101210000020A06107202061002010BDFEE70168CA
:101220004A69D24352050FD46FF480624A610021AB
:1012300040F8301F202242738173026942F0040299
:101240000261017301207047002070472DE9F84FBB
:101250000446C06A1E4693460D4621680A6842F459
:1012600080620A60082807D0012805D010F5803F69
:1012700002D0206B112804D12068016841F48071EC
:1012800001604FF001195B46002249462046009656
:1012900000F0C6F84FF4007840B120680068C0053F
:1012A00001D5C4F840800320BDE8F88F2069DFF83D
:1012B00084A0B0F5804F0FD00620216800EAD51732
:1012C00047F0F000086133465A460AF1060120460D
:1012D00000F0DAF858BB03E0E8B240F001001CE08F
:1012E0002168E8B2086133465A465146204600F06C
:1012F000CBF8E0B92068416981690091016841F447
:10130000807101605B46002249462046009600F04D
:1013100087F80028C1D147F0F10021680861334601
:101320005A465146204600F0AFF80028BCD00120B4
:10133000BAE7000002000100F8B50446C06A1E4684
:101340000D461746082807D0012805D010F5803F24
:1013500002D0206B122804D12068016841F480710A
:101360000160134600224FF001112046009600F064
:1013700057F840B120680068C00502D54FF40070EE
:1013800020640320F8BD2069B0F5804F0ED0062000
:10139000216800EAD51040F0F000086133463A4673
:1013A0000B49204600F070F878B902E005F0FE0025
:1013B00000E0E8B221680861054933463A46891FD2
:1013C000204600F061F80028DCD00120F8BD0000C4
:1013D0000800010070B516460D4604460DE0204693
:1013E000FFF71DFF08B1012070BD681C05D0FFF795
:1013F00069F8801BA84207D835B120684069C0430E
:101400004007ECD4002070BD002044F8300F2021AC
:101410006173A073216941F0200121612073E2E72B
:101420002DE9F0471E4690460D460446C1F3074796
:10143000DDF8209008E0701C06D0FFF743F8A0EB21
:101440000900B0420FD876B12068012F18D080690A
:1014500025EA00000004000C14D000214145EAD028
:101460000020BDE8F087002044F8300F2021617390
:10147000A073216941F02001216120730120F0E770
:101480004069E5E70121E9E72DE9F0479A469146F1
:101490000E46044600254FF02008C1F3074725E01B
:1014A00020684069C043400514D42068016841F4B5
:1014B0000071016021686FF480604861256384F8E1
:1014C0003D8084F83E50206C40F00400206484F895
:1014D0003C501FE0B9F1FF3F08D0FEF7F3FFA0EB4F
:1014E0000A0149450CD8B9F1000F09D02068012F35
:1014F00013D0806926EA00000004000C0BD0CFE76F
:1015000044F8305F84F80D80A573206940F0200016
:10151000206125730120BDE8F0874069EAE72DE9E5
:10152000F041002590460E460446202717E040690A
:10153000C043C0060CD454F8301B6FF01000486153
:1015400044F810596777A577206A2062257717E05D
:10155000FEF7B8FFA0EB0800B04208D83EB1206803
:101560004169C9434906E2D40020BDE8F08144F84E
:10157000305F6773A573206940F0200020612573F8
:101580000120F2E770B516460D4604460DE02046F0
:10159000FFF745FE08B1012070BD681C05D0FEF7BD
:1015A00091FF801BA84207D835B120684069C0432D
:1015B0000006ECD4002070BD002044F8300F20213C
:1015C0006173A073216941F0200121612073E2E77A
:1015D00030B587B014216846FEF74AFE194800244A
:1015E000016841F004010160016801F00401059106
:1015F000016841F080010160016801F080010591FE
:10160000016841F001010160016801F001010591EB
:10161000016841F00201016000680B4D00F002001A
:101620000590002220212846FEF746FF202000904A
:101630000120CDE90104694628460394FEF768FEBF
:1016400007B030BD3038024000000240FEE7FEE740
:1016500070477047FFF772BA30B593B034216846CF
:10166000FEF706FE14210DA8FEF702FE2048002515
:10167000016841F080510160006800F080501290D4
:101680001C48016841F4404101600068022400F4F4
:101690004040129001200090000401908001CDE9AB
:1016A000064004200890B420CDE909040B94684654
:1016B0000C94FFF7FDFB08B172B6FEE7FFF7CCFA1A
:1016C00008B172B6FEE70DA90F2081E831004FF492
:1016D000A05010904FF48050119005210DA8FFF7F5
:1016E000F3FA002801D072B6FEE713B030BD000057
:1016F00040380240007000400548016841F4700124
:10170000016003494FF000608039086070470000B5
:1017100088ED00E0FEE70907090E002804DB00F170
:10172000E02080F80014704700F00F0000F1E02086
:1017300080F8141D704702E008C8121F08C1002A73
:10174000FAD170477047002001E001C1121F002A42
:10175000FBD1704708B5FFF7F9F9FFF77DFFFFF7F9
:1017600037FF44484249002501604349C0E901155B
:101770004FF48041C0E9035145618561C56105624F
:10178000FEF7A6FE08B172B6FEE764230222D0215E
:101790003848FEF761FF70B9384C012220212046FD
:1017A000FEF78AFE4FF4FA60FEF7A0FD002220212A
:1017B0002046FEF781FEDFF8C8805720642488F8B1
:1017C000005088F80100464602234246D1212948AC
:1017D0000094FFF7E7F84FF0010986F800905920D0
:1017E000707002234246D12122480094FFF7DAF8B4
:1017F00002273770122070703B464246D1211D48A7
:101800000094FFF7CFF8AA464E464546012385F8D7
:1018100000A01B4AD02117480094FFF7C3F8184ACC
:101820000123D21ED02113480094FEF7CBFF2E7067
:101830000123134AD0210F480094FFF7B3F8104A50
:101840000123921ED0210B480094FEF7BBFF2F709E
:1018500001230B4AD02107480094FFF7A3F8084A58
:101860000123521ED02103480094FEF7ABFFCDE7C1
:101870000054004018000020801A060000000240BA
:10188000030000200000000000000000010203042B
:10189000060708090000000001020304BC18000844
:1018A000000000201800000036170008D4180008B7
:1018B000180000205804000046170008000000002F
:1018C0000000000001000000100000000000000007
:0418D0000024F400FC
:04000005080001C529
:00000001FF
