:020000040800F2
:10000000A8040020DD01000833140008FD120008D8
:1000100031140008E9020008ED1400080000000097
:10002000000000000000000000000000371400087D
:100030001D030008000000003514000839140008F2
:10004000F7010008F7010008F7010008F7010008B0
:10005000F7010008F7010008F7010008F7010008A0
:10006000F7010008F7010008F7010008F701000890
:10007000F7010008F7010008F7010008F701000880
:10008000F7010008F7010008F70100081103000854
:10009000ED020008F902000805030008F701000856
:1000A000F7010008F7010008F7010008F701000850
:1000B000F7010008F7010008F7010008F701000840
:1000C000F7010008F7010008F7010008F701000830
:1000D000F7010008F7010008F7010008F701000820
:1000E00021030008F7010008F7010008F7010008E4
:1000F000F7010008F7010008F7010008F701000800
:10010000F7010008F7010008F7010008F7010008EF
:10011000F7010008F7010008F7010008F7010008DF
:10012000F7010008F7010008F7010008F7010008CF
:10013000F70100080000000000000000F7010008BF
:10014000F7010008F7010008F7010008F7010008AF
:10015000F7010008F7010008F7010008F70100089F
:10016000F7010008F7010008F7010008F70100088F
:10017000F7010008F7010008F7010008000000007F
:1001800000000000F701000800000000000000006F
:10019000F70100080000000000000000F70100085F
:1001A000000000000000000000000000F70100084F
:1001B000F7010008F7010008F7010008F70100083F
:1001C000F7010008DFF810D000F07CF80048004785
:1001D0002D150008AFF30080A804002006488047D2
:1001E00006480047FEE7FEE7FEE7FEE7FEE7FEE71C
:1001F000FEE7FEE7FEE7FEE7D1140008C5010008B0
:100200002DE9F05F0546002092469B46884606464B
:10021000814640241BE0284641464746224600F0DE
:1002200041F853465A46C01A914110D31146184618
:10023000224600F028F82D1A67EB01084F462246A7
:100240000120002100F01FF817EB00094E41201E8D
:10025000A4F10104DFDC484631462A464346BDE8A6
:10026000F09FD2B201E000F8012B491EFBD270478B
:100270000022F6E710B513460A4604461946FFF772
:10028000F0FF204610BD202A04DB203A00FA02F1DC
:10029000002070479140C2F1200320FA03F3194374
:1002A00090407047202A04DB203A21FA02F0002116
:1002B000704721FA02F3D040C2F120029140084376
:1002C00019467047064C074D06E0E06840F0010310
:1002D00094E8070098471034AC42F6D3FFF776FF56
:1002E000A0150008C0150008FEE70000014800F056
:1002F000B8B9000020000020014800F0B2B90000A9
:1003000020000020014800F0ACB9000020000020CF
:10031000014800F0A6B9000020000020704700004E
:1003200010B54FF40054204600F0C2FB21460A48A5
:1003300000F09EFC00280ED1084C2078032801D143
:1003400000202070064B054A0649074800F020F8B7
:100350002078401C207010BD0008024004000020DE
:10036000000000208C0000202000002090F82020B9
:10037000012A07D0022A05D0416A41F48021416256
:1003800001207047006842690A43426100207047BB
:10039000F0B590F820500468A468012D05D0022D16
:1003A00003D0416A41F480215DE014F0406F01D137
:1003B000E50055D5C4F30164022C03D9416A41F428
:1003C000000150E00125A5401D608D684FF4C07309
:1003D0009DB1CE6835434E6845EAC605066803EB15
:1003E0000417F5514FF4C275076805EB04150E6943
:1003F0007E51097D012905D009E00E88CD6845EAC6
:100400004655EBE701684E5946F480764E51117916
:10041000D579567941EA056195792D0445EA062595
:1004200029434FF4C676056806EB0416A9511178E6
:10043000D57841EA0561957852782D0445EA022283
:1004400011434FF4C475026805EB0415515100685F
:1004500003EB0411425842F0010242500020F0BD6B
:10046000416A41F4001141620120F0BD10B590F8DD
:100470002020012A07D0022A05D0416A41F48021B8
:100480004162012010BD3B48D0F8002242F0010239
:10049000C0F80022D0F8002222F47C52C0F80022DA
:1004A000D0F800224B6A42EA0322C0F800220A7DFB
:1004B00002F01F0301229A40D0F81C329343C0F887
:1004C0001C32CB69B3B9D0F80C329343C0F80C326C
:1004D0008C894B6864F31F434C6900EBC404C4F877
:1004E00040320C890B6864F31F434C6900EBC40471
:1004F000C4F84432CB69012B16D1D0F80C32134327
:10050000C0F80C320C884B6864F31F434C6900EB55
:10051000C404C4F840320C89CB6864F31F434C69AF
:1005200000EBC404C4F844328B69002BD0F80432C9
:100530000ED01343C0F804320B69002BD0F81432EC
:1005400008D01343C0F81432096A012904D008E026
:100550009343EFE79343F5E7D0F81C121143C0F83B
:100560001C12D0F8001221F00101C0F80012002086
:1005700010BD000000640040704730B590F8204086
:10058000012C05D0022C03D0416A41F480215DE0AA
:100590000468002955D02469A40754D04FF4D874B6
:1005A000056804EB01142D5915F0040595600568E4
:1005B0002D594ED0ED08556005682C5904F0020401
:1005C000D4604FF4DA74056804EB01142D5905F07A
:1005D0000F05156105682D59C5F307259561056857
:1005E0002C59240C54614FF4DC72046802EB0112A4
:1005F000A4581C700468A458240A5C700468A458A9
:10060000240C9C700468A258120EDA704FF4DE724B
:10061000046802EB0112A4581C710468A458240A4F
:100620005C710468A458240C9C710468A258120ED2
:10063000DA71006881B1016941F020010161002097
:1006400030BDE468A8E7416A41F40011416201202D
:1006500030BD6D0D1560AFE7C16841F02001C1608C
:10066000EDE72DE9F05F0546006800244669D0F803
:1006700004908768D0F80CB0D0F810A0D0F818809B
:10068000F10748D0F90714D001218160B80703D5DC
:10069000284600F006FA0CE0780702D54FF4006413
:1006A00007E0380702D54FF4805402E0284600F0F6
:1006B000F7F9F80516D529684FF480708860B805F9
:1006C00003D5284600F0EFF90CE0780502D544F494
:1006D000005407E0380502D544F4804402E028467F
:1006E00000F0E0F9F80316D529684FF480308860EF
:1006F000B80303D5284600F0D8F90CE0780302D5FA
:1007000044F4004407E0380302D544F4803402E0A6
:10071000284600F0C9F9300707D55FEACB6004D559
:100720002968102044F40074C86070074FF008076F
:1007300007D55FEA0B7004D52868C760284600F02B
:1007400071F9B00706D52868C068800702D028462E
:1007500000F06AF9700607D55FEACA6004D5296817
:10076000102044F480640861B00607D55FEA0A707F
:1007700004D528680761284600F062F9F00606D51E
:1007800028680069800702D0284600F05AF9B003B3
:1007900008D55FEAC96005D5296810204860284659
:1007A00000F050F9F00307D55FEA097004D5286816
:1007B0004760284600F07AF9300446D55FEA497070
:1007C00040D5F00504D55FEAC87001D044F00104BB
:1007D000B00504D55FEA887001D544F002047005C5
:1007E00004D55FEA487001D544F00404300529D5EA
:1007F00018F0700F26D008F07000402815D006DCE5
:10080000102809D020280AD0302816D10AE0502814
:100810000ED0602811D10EE044F008040DE044F041
:1008200010040AE044F0200407E044F0400404E02F
:1008300044F0800401E044F480742868816921F068
:1008400070018161296804204860002C05D0686A25
:10085000204368622846FFF78FFEBDE8F09F70B521
:10086000040003D094F8200010B104E0012070BD12
:10087000204600F081F82068016821F00201016043
:1008800000F000FA0546052604E000F0FBF9401BE5
:100890000A2811D8206840688007F6D420680168CB
:1008A00041F00101016000F0EDF905460BE000F0B8
:1008B000E9F9401B0A2806D9606A40F400306062FA
:1008C00084F82060D2E720684068C007EFD0207E1F
:1008D0000128206801683DD021F080010160607E20
:1008E00001282068016838D021F040010160A07E15
:1008F00001282068016833D021F020010160E07EEA
:100900000128206801682ED041F010010160207F8D
:1009100001282068016829D021F008010160607F6A
:1009200001282068016824D021F004010160D4E985
:1009300002010843D4E90412114308436168491EC7
:1009400008432168C86100206062012084F820000B
:10095000002070BD41F08001C0E741F04001C5E7D3
:1009600041F02001CAE721F01001CFE741F0080172
:10097000D4E741F00401D9E710B586B0044614214C
:100980006846FFF775FC24492068884241D1234816
:100990000021026842F000720260006800F00070FE
:1009A00005901E481038026842F00202026000689A
:1009B00000F0020005904FF4407000900220CDE955
:1009C000010103200390092004906946144800F0B7
:1009D0007BF800221146132000F0C4F9132000F028
:1009E000B3F900221146142000F0BCF9142000F0E5
:1009F000ABF900221146152000F0B4F9152000F0E3
:100A0000A3F900221146162000F0ACF9162000F0E0
:100A10009BF906B010BD0000006400404038024061
:100A20000004024070470000044A034B0021A2F179
:100A30005000FFF7A2BD0000090000207000002058
:100A4000704770477047000070B5044690F820006A
:100A5000012804D0606A40F40020606218E002209F
:100A600084F820002068016821F00101016000F095
:100A700009F905460EE000BF00F004F9401B0A2802
:100A800008D9606A40F400306062052084F82000D4
:100A9000012070BD20684068C007EDD1606270BD64
:100AA000704770477047704770477047704770478E
:100AB000044910B50A68024202D00860FFF7F7FF48
:100AC00010BD0000143C01402DE9F84F00224FF00A
:100AD000010803254FF00F0E0B6808FA02F42340BB
:100AE000A3426ED14E68012E05D0022E03D0112EE6
:100AF00001D0122E12D186684FEA420C05FA0CF78B
:100B0000BE43CF6807FA0CF7374387604668A643B1
:100B10000C79C4F30014944034434460C668570011
:100B200005FA07FC8C6826EA0C06BC403443C46016
:100B30004C68022C01D0122C13D1D40800EB840491
:100B4000A346D4F8209054074FEAD46A0EFA0AF666
:100B500029EA06090E6906FA0AF646EA0906CBF8FA
:100B6000206006680C7926EA0C0604F00304BC40F9
:100B7000344304604C68E40060D5334C266846F486
:100B800080462660246822F0030604F48044009422
:100B90002E4C3444A446D4F808489607370F0EFA72
:100BA00007F6B4432A4EB04201D100261FE0294E79
:100BB000B04201D101261AE0274EB04202D10226EE
:100BC00015E03BE0254EB04201D103260FE0244E54
:100BD000B04201D104260AE0224EB04201D10526DE
:100BE00005E0214EB04201D1062600E00726BE40B6
:100BF0002643CCF808681D4E34684F689C43FF03B9
:100C000000D51C433460194E361D34684F689C4330
:100C1000BF0300D51C433460144E083634684F6857
:100C20009C43FF0200D51C433460104E0C363468E0
:100C30004F689C43BF0200D51C433460521C102AED
:100C4000FFF44AAFBDE8F88F44380240003001405D
:100C5000000002400004024000080240000C024074
:100C6000001002400014024000180240003C014005
:100C70000069084000D0012070470AB181617047C7
:100C80000904FBE70148806870470000100000205D
:100C9000024881680278114481607047100000208A
:100CA0000B4810B5016841F400710160016841F41E
:100CB00080610160016841F480710160032000F0EF
:100CC00071F8002000F006F800F024F8002010BDB4
:100CD000003C024070B50D4D04464FF47A712878FF
:100CE000B1FBF0F00A490968B1FBF0F000F0F2FA4C
:100CF00048B9102C07D200222146501E00F032F8CD
:100D000000206C6070BD012070BD0000100000204C
:100D10001C0000200B4882B0016841F48041016052
:100D2000006800F4804000900648001F016841F010
:100D300080510160006800F080500090072002B0F0
:100D400000F030B844380240002809DB00F01F02F0
:100D5000012191404009800000F1E020C0F800111D
:100D600070470000F0B40E4B1B680C46C3F302231F
:100D7000C3F10705042D00D90425191D072901D247
:100D8000002300E0DB1E012606FA05F1491E214082
:100D900099409E40761E16403143F0BC00F0A7BB40
:100DA0000CED00E0064900F0070208684FF6FF036B
:100DB000184040EA0220034A1043086070470000D0
:100DC0000CED00E00000FA052DE9F0470E460500A5
:100DD00065D0DFF81481D8F80000F7B200F00F00FA
:100DE000B04207D288F80070D8F8000000F00F0079
:100DF000B04254D128683D4C810712D5400703D535
:100E0000206840F4E05020602878000703D520686F
:100E100040F4604020602068A96820F0F00008439A
:100E200020602878C0072DD030496868083901282B
:100E300012D0022813D0032811D00968890700298D
:100E40002DDA216821F0030101432160FFF71AFF29
:100E5000814641F2883A0EE009688903EFE70968A4
:100E60008901ECE7FFF70EFFA0EB0901514502D91C
:100E70000320BDE8F0872068696800F00C00B0EB43
:100E8000810FEFD1D8F80010404601F00F01B142B8
:100E900007D90770006800F00F00B04201D00120B0
:100EA000E7E72878400705D52068E96820F4E05096
:100EB000084320602878000706D52068296920F4B7
:100EC000604040EAC100206000F018F82168084A3C
:100ED000C1F30311515CC840064908600648006828
:100EE000FFF7F8FE0020C4E7003C0240083802404B
:100EF000901500081C00002014000020224810B5A6
:100F0000006810F00C02214815D04110042A11D0BD
:100F10001D4C241F082A0FD00C2A0CD122682368EC
:100F200002F03F025B0221D52068C0F38810A0FBCD
:100F3000010120E0084610BD2268236802F03F024C
:100F40005B0205D52068C0F38810A0FB010104E016
:100F50002168C1F38811A1FB00010023FFF750F9BC
:100F60002168C1F30141491C49000AE02168C1F32D
:100F70008811A1FB00010023FFF742F92168C1F3AA
:100F80000271B0FBF1F010BD083802400024F400FB
:100F90002DE9F84F0546DFF828B30078ABF10407D8
:100FA000C007A7F1040451D0DBF800105846C1F384
:100FB000810101290FD00168C1F38101022902D109
:100FC0003968490207D40068C0F38100032809D1B9
:100FD0003868400206D52068800337D56868002845
:100FE00072D033E06868B0F5803F10D0B0F5A02F24
:100FF000206810D020F480302060206820F4802009
:1010000020606868A8B1FFF73DFE06460DE0206845
:1010100040F48030F4E740F480202060F7E700BF20
:10102000FFF730FE801B642878D820688003F7D54E
:101030000CE0FFF727FE064605E000BFFFF722FEA3
:10104000801B6428F0D820688003F7D42878DFF864
:10105000749280074FF0000A46D5DBF8001058461E
:1010600011F00C0F0FD00168C1F38101022902D1E8
:101070003968490207D50068C0F38100032809D107
:101080003868400206D42068800715D5E868012832
:101090001AD111E0E868C0B10120C9F80000FFF7DB
:1010A000F1FD064605E000BFFFF7ECFD801B0228BE
:1010B000BAD820688007F7D52068296920F0F800A1
:1010C00040EAC10020600FE0F7E0C9F800A0FFF798
:1010D000D9FD064605E000BFFFF7D4FD801B0228BE
:1010E0001CD820688007F7D42878000727D5DFF8B8
:1010F000D0817548696908F16C0881B101210160EE
:10110000FFF7C0FD064604E0FFF7BCFD801B022888
:1011100004D8D8F800008007F6D510E089E0C0F8C0
:1011200000A0FFF7AFFD064605E000BFFFF7AAFDF0
:10113000801B02287DD8D8F800008007F6D42878D4
:10114000400769D55E484FF0000838300068C0009D
:101150000BD45B483830016841F080510160006871
:101160004FF0010800F080500090584E3068C005E4
:1011700011D4306840F480703060FFF783FD009038
:1011800006E000BFFFF77EFD0099401A022850D804
:101190003068C005F6D54A4EA868683601280FD0D9
:1011A0000528306810D020F001003060306820F051
:1011B00004003060A868B8B1FFF764FD00900FE04C
:1011C000306840F00100F4E740F004003060F7E7D9
:1011D000FFF758FD0099411A41F28830814264D8E6
:1011E00030688007F4D50EE0FFF74CFD009007E073
:1011F000FFF748FD0099411A41F28830814254D8E6
:1012000030688007F4D4B8F1000F05D02C4838308E
:10121000016821F080510160A869A8B3DBF80010D3
:10122000C1F38101022948D00228C9F860A005D085
:1012300000E03AE0FFF726FD054639E0FFF722FD22
:10124000064604E0FFF71EFD801B02282DD820680B
:101250008001F7D4F5E907010843E9681C4A490809
:1012600002EB0141AA6841EA82110843297C40EA65
:101270000160297D40EA017038600120C9F86000F2
:10128000FFF700FD054606E015E000BFFFF7FAFC9A
:10129000401B022809D820688001F7D50BE000BF69
:1012A000FFF7F0FC401B022802D90320BDE8F88FAD
:1012B00020688001F4D40020F8E70120F6E7000060
:1012C0000838024000004742800E4742007000404C
:1012D0000000FFFF10B5401EB0F1807F01D3012058
:1012E00010BD4FF0E02460610F21601700F0FFF89F
:1012F0000020A06107202061002010BDFEE7000053
:1013000070B51F481D49002401601021C0E9011477
:101310004FF44031C0E903414FF48011416104763C
:10132000012545768476C57604774477FFF797FAEA
:1013300008B172B6FEE7124811216C30846001607A
:101340000521C0E9034144380E2144610461046071
:1013500044608460C0E90851C460C0E906450146A4
:101360002838FFF783F808B172B6FEE70448FFF7A4
:101370006BFB002801D072B6FEE770BD0064004030
:101380002000002030B587B014216846FEF770FFBA
:1013900023480024016841F004010160016801F064
:1013A00004010591016841F080010160016801F0CC
:1013B00080010591016841F001010160016801F0BF
:1013C00001010591016841F0020101600068154DBD
:1013D00000F002000590002220212846FFF74DFC76
:1013E0004FF4005000901048CDE9010469460F48C1
:1013F000FFF76AFB20200090012001900220CDE938
:10140000020469462846FFF75FFB002211462820A8
:10141000FFF7A8FC2820FFF797FC07B030BD0000BD
:101420003038024000000240000021100008024055
:10143000FEE7FEE770477047FFF72ABC30B593B070
:1014400034216846FEF714FF14210DA8FEF710FFA3
:101450001D480025016841F080510160006800F0DE
:10146000805012901948016821F4404141F48041B4
:1014700001600068022400F44040129001200090B6
:10148000000401908001CDE906400420089054201A
:10149000CDE909040B9468460C94FFF779FD08B177
:1014A00072B6FEE70DA90F2081E831004FF480509D
:1014B000CDE9100502210DA8FFF786FC002801D018
:1014C00072B6FEE713B030BD4038024000700040F5
:1014D0000548016841F47001016003494FF0006064
:1014E000803908607047000088ED00E0FEE70907DA
:1014F000090E002804DB00F1E02080F8001470479A
:1015000000F00F0000F1E02080F8141D704702E0A9
:1015100008C8121F08C1002AFAD17047704700207E
:1015200001E001C1121F002AFBD1704715480121BB
:10153000017007214170062181700921C1700521C8
:101540000171FFF7ADFBFFF779FFFFF71BFFFFF717
:10155000D7FE12210C48FEF709FF0A4C0B4D641D03
:101560002078012804D1012220212846FFF785FB9D
:1015700020780228F4D1002220212846FFF77DFBA5
:10158000EEE70000040000202000002000000240E0
:101590000000000000000000010203040607080923
:1015A000C015000800000020200000000E150008F3
:1015B000E015000820000020880400001E15000827
:1015C000000000000000000000000000000000001B
:1015D0000100000010000000000000000024F400E2
:04000005080001C529
:00000001FF
