:020000040800F2
:1000000018420020AD010008A70F00080B0F0008E0
:10001000A50F00081F0300083113000800000000AE
:10002000000000000000000000000000AB0F00080E
:100030002103000800000000A90F0008AD0F000810
:10004000C7010008C7010008C7010008C701000870
:10005000C7010008C7010008C7010008C701000860
:10006000C7010008C7010008C7010008C701000850
:10007000C7010008C7010008C7010008C701000840
:10008000C7010008C7010008C70100080000000000
:10009000000000000000000000000000C701000890
:1000A000C7010008C7010008C7010008C701000810
:1000B000C7010008C7010008C7010008C701000800
:1000C000C7010008C7010008C7010008C7010008F0
:1000D000C7010008191300082513000800000000DC
:1000E00025030008C7010008C70100080000000040
:1000F000000000000000000000000000C701000830
:1001000000000000C7010008C7010008C70100087F
:1001100000000000000000000000000000000000DF
:10012000C7010008C7010008C7010008C70100088F
:10013000C7010008000000000000000000000000EF
:10014000000000000000000000000000C7010008DF
:10015000C7010008C7010008C7010008C70100085F
:10016000C7010008C70100080000000000000000EF
:10017000000000000000000000000000000000007F
:1001800000000000C701000800000000000000009F
:10019000C7010008DFF810D000F084F800480047DD
:1001A00071130008AFF30080184200200648804712
:1001B00006480047FEE7FEE7FEE7FEE7FEE7FEE74C
:1001C000FEE7FEE7FEE7FEE749100008950100089C
:1001D0002DE9F05F0546002092469B46884606467C
:1001E000814640241BE0284641464746224600F00F
:1001F00048F853465A46C01A914110D31146184642
:10020000224600F02FF82D1A67EB01084F462246D0
:100210000120002100F026F817EB00094E41201EB6
:10022000A4F10104DFDC484631462A464346BDE8D6
:10023000F09FD2B201E000F8012B491EFBD27047BB
:100240000022F6E710B513460A4604461946FFF7A2
:10025000F0FF204610BD421C10F8011B0029FBD105
:10026000801A7047202A04DB203A00FA02F10020AD
:1002700070479140C2F1200320FA03F319439040E4
:100280007047202A04DB203A21FA02F0002170474F
:1002900021FA02F3D040C2F12002914008431946EE
:1002A00070470000064C074D06E0E06840F001038F
:1002B00094E8070098471034AC42F6D3FFF76EFF7E
:1002C0000C1400082C14000870B58C1810F8015B91
:1002D00015F0070301D110F8013B2A1106D110F8DF
:1002E000012B03E010F8016B01F8016B5B1EF9D1E3
:1002F0002B0705D40023521E0DD401F8013BFAE769
:1003000010F8013BCB1A921C03E013F8015B01F8D3
:10031000015B521EF9D5A142D8D3002070BDFEE783
:10032000704700003EB50F4A4FF4005407CA8DE8ED
:100330000700204600F032F821460B4800F004F98F
:1003400000280DD16846FFF786FF82B24FF0FF33D9
:100350006946064800F07BFD2021054800F0F9F8C9
:100360003EBD0000E81300080008024048010020DC
:100370000000024090F83510022903D08021416529
:1003800001207047052180F835100068016821F0D0
:10039000010101600020704770470000044910B55A
:1003A0000A68024202D00860FFF7F6FF10BD0000A5
:1003B000143C01402DE9F84F00224FF001080325BD
:1003C0004FF00F0E0B6808FA02F42340A34271D1DC
:1003D0004E68012E05D0022E03D0112E01D0122E10
:1003E00015D18668570005FA07FC26EA0C06D1F8F5
:1003F0000CC00CFA07FC4CEA060CC0F808C04668B2
:10040000A6430C79C4F30014944034434460C66896
:10041000570005FA07FC8C6826EA0C06BC403443FA
:10042000C4604C68022C01D0122C13D1D40800EB0C
:100430008404A346D4F8209054074FEAD46A0EFAF5
:100440000AF629EA06090E6906FA0AF646EA0906D4
:10045000CBF8206004680E7924EA0C0406F0030649
:10046000BE40264306604C68E40056D52E4C2668F4
:1004700046F480462660246822F0030604F4804493
:1004800000942A4C3444A446D4F808489607370F01
:100490000EFA07F6B443264EB04201D1002615E00D
:1004A000244EB04201D1012610E0234EB04202D1C9
:1004B00002260BE031E0214EB04201D1032605E0D7
:1004C0001F4EB04201D1042600E00726BE4026435D
:1004D000CCF808681B4E34684F689C43FF0300D576
:1004E0001C433460174E361D34684F689C43BF036D
:1004F00000D51C433460134E083634684F689C4363
:10050000FF0200D51C4334600E4E0C3634684F6831
:100510009C43BF0200D51C433460521C102AFFF4D8
:1005200051AFBDE8F88F0000443802400030014070
:10053000000002400004024000080240000C02409B
:1005400000100240003C01400069084000D001203A
:100550007047426931EA020200D1090481617047A3
:100560000AB1816170470904FBE700000148806817
:100570007047000038010020024881680278114469
:1005800081607047380100200B4810B5016841F4C4
:1005900000710160016841F480610160016841F40B
:1005A00080710160032000F071F8002000F006F86F
:1005B00000F024F8002010BD003C024070B50D4D45
:1005C00004464FF47A712878B1FBF0F00A490968C3
:1005D000B1FBF0F000F004FB48B9102C07D2002268
:1005E0002146501E00F032F800206C6070BD0120E2
:1005F00070BD000038010020440100200B4882B08B
:10060000016841F480410160006800F4804000907E
:100610000648001F016841F080510160006800F049
:1006200080500090072002B000F030B844380240FB
:10063000002809DB00F01F020121914040098000E1
:1006400000F1E020C0F8001170470000F0B40E4B3C
:100650001B680C46C3F30223C3F10705042D00D920
:100660000425191D072901D2002300E0DB1E012605
:1006700006FA05F1491E214099409E40761E16401B
:100680003143F0BC00F055BE0CED00E0064900F02F
:10069000070208684FF6FF03184040EA0220034AA9
:1006A00010430860704700000CED00E00000FA0500
:1006B0002DE9F0470E46050065D0DFF81481D8F823
:1006C0000000F7B200F00F00B04207D288F80070C7
:1006D000D8F8000000F00F00B04254D128683D4C1B
:1006E000810712D5400703D5206840F4E050206010
:1006F0002878000703D5206840F460402060206817
:10070000A96820F0F000084320602878C0072DD0A9
:10071000304968680839012812D0022813D003280C
:1007200011D00968890700292DDA216821F0030119
:1007300001432160FFF71AFF814641F2883A0EE03B
:1007400009688903EFE709688901ECE7FFF70EFF05
:10075000A0EB0901514502D90320BDE8F0872068CC
:10076000696800F00C00B0EB810FEFD1D8F80010F1
:10077000404601F00F01B14207D90770006800F050
:100780000F00B04201D00120E7E72878400705D5E7
:100790002068E96820F4E0500843206028780007CA
:1007A00006D52068296920F4604040EAC100206035
:1007B00000F038F82168084AC1F30311515CC840C1
:1007C0000649086006480068FFF7F8FE0020C4E705
:1007D000003C024008380240F213000844010020A7
:1007E0003C0100200448054900680968044AC1F337
:1007F0008221515CC8407047440100200838024003
:10080000021400080448054900680968044AC1F355
:100810004231515CC8407047440100200838024012
:1008200002140008154810B5006810F00C021448B6
:1008300013D04110042A0FD0082A0ED10F4C241FC8
:100840002268236802F03F025B0207D52068C0F3EC
:100850008810A0FB010106E0084610BD2168C1F325
:100860008811A1FB00010023FFF7B2FC2168C1F34E
:100870000141491C4900B0FBF1F010BD08380240AD
:100880000024F4002DE9F84F04006ED02078DFF842
:100890003C93C007A9F104054AD009F1040001689E
:1008A000C1F38101012908D00068C0F3810002284A
:1008B0000AD1D9F80000400206D52868800337D550
:1008C00060680028E1D033E06068B0F5803F10D068
:1008D000B0F5A02F286810D020F480302860286858
:1008E00020F4802028606068A8B1FFF73FFE06462C
:1008F0000DE0286840F48030F4E740F48020286060
:10090000F7E700BFFFF732FE801B642873D8286822
:100910008003F7D50CE0FFF729FE064605E000BF8F
:10092000FFF724FE801B6428F0D828688003F7D4E2
:100930002078DFF89C8280074FF0000A3ED5A3485C
:10094000001D016811F00C0F08D00068C0F3810091
:1009500002280BD1D9F80000400207D4286880078C
:1009600016D5E068012800D112E02BE1E068B8B1AB
:100970000120C8F80000FFF7F9FD064605E000BFBA
:10098000FFF7F4FD801B0228C0D828688007F7D540
:100990002868216920F0F80040EAC10028600DE0D5
:1009A000C8F800A0FFF7E2FD064604E0FFF7DEFD11
:1009B000801B02281FD828688007F7D420780007FA
:1009C00022D5824E83486169703671B10121016080
:1009D000FFF7CCFD074604E0FFF7C8FDC01B022867
:1009E00009D830688007F7D50EE0C0F800A0FFF7FF
:1009F000BDFD074605E082E0FFF7B8FDC01B0228F9
:100A00007DD830688007F7D42078400768D5DFF8B4
:100A1000BCB100270BF13C0BDBF80000C0000BD48D
:100A2000DBF8001041F08051CBF80010DBF800003B
:100A3000012700F080500090674E3068C00510D448
:100A4000306840F480703060FFF790FD009005E062
:100A5000FFF78CFD0099401A022850D83068C00575
:100A6000F6D55A4EA0686C3601280FD0052830689C
:100A700010D020F001003060306820F004003060B9
:100A8000A068B8B1FFF772FD00900FE0306840F049
:100A90000100F4E740F004003060F7E7FFF766FD7F
:100AA0000099411A41F28830814266D83068800747
:100AB000F4D50EE0FFF75AFD009007E0FFF756FD72
:100AC0000099411A41F28830814256D83068800737
:100AD000F4D42FB1DBF8001021F08051CBF80010D6
:100AE000A069C8B33949091D0968C1F38101022908
:100AF0004AD00228504607D0C8F8600000E03CE029
:100B0000FFF734FD04463BE04746C8F86000FFF7B6
:100B10002DFD064605E000BFFFF728FD801B0228DB
:100B20002BD828688001F7D4D4E907010843A16ACB
:100B30002A4A490802EB0141626A41EA82110843EC
:100B400094F82C1040EA0161C9F8001001203866C1
:100B5000FFF70CFD044606E036E000BFFFF706FD98
:100B6000001B022809D828688001F7D52CE000BFB7
:100B7000FFF7FCFC001B022802D90320BDE8F88F18
:100B800028688001F4D41FE00128F7D0D9F80000CC
:100B9000E26900F48001914214D1226A00F03F0121
:100BA00091420FD147F6C071626A0140914209D16A
:100BB000A26A00F44031914204D1E16A00F0706011
:100BC000884201D00120D9E70020D7E7043802404D
:100BD00000004742800E4742007000400000FFFFC7
:100BE00010B5401EB0F1807F01D3012010BD4FF041
:100BF000E02460610F21601700F09BFB0020A061E2
:100C000007202061002010BD7047000070B5026809
:100C100004461068D168536910F00F0F52D003F0EA
:100C2000010501F490762E435FD0C20705D0CA05B6
:100C300003D5E26B42F00102E263420705D5DA0711
:100C400003D0E26B42F00202E263820705D5DA07C5
:100C500003D0E26B42F00402E263020707D501F021
:100C600020022A4303D0E26B42F00802E263E26B07
:100C7000002A33D0800604D5880602D5204600F02D
:100C800007FA20684069E16BC0F38010090700D4BF
:100C900028B3204600F0EEF92068416949061AD5CC
:100CA000416921F040014161606BA0B11B490165C0
:100CB000606BFFF75FFB002810D0606B016DBDE833
:100CC00070400847830610D58B060ED52046BDE838
:100CD000704000F0DDB92046FFF796FF70BD20465A
:100CE000FFF792FF0020E06370BD030606D50B06F8
:100CF00004D52046BDE8704000F0AABA4006F3D5FE
:100D00004806F1D5D168204621F04001D16020216C
:100D100084F8391000F0F8F870BD00006510000884
:100D200070B5040004D094F83900002510B106E035
:100D3000012070BD84F83850204600F023F82420AC
:100D400084F839002068C16821F40051C160204650
:100D500000F0EAF92068016921F4904101612068FE
:100D6000416921F02A0141612068C16841F40051C4
:100D7000C160E563202084F8390084F83A0000203F
:100D800070BD000070B586B0044614216846FFF7B8
:100D900057FA2A4E236800222949022407252948A8
:100DA000B34223D1264B14331E6846F010061E6052
:100DB0001B6803F0100305930B6843F001030B60FD
:100DC0000968049501F0010105914FF4C061CDE976
:100DD00000140321CDE902216946FFF7EBFA002256
:100DE00011462520FFF732FC252023E0164EB342A2
:100DF00022D1134B10331E6846F400361E601B6868
:100E000003F4003305930B6843F001030B6009689A
:100E100001F0010105910C210091CDE90142CDE9DC
:100E200003256946FFF7C6FA002211462620FFF780
:100E30000DFC2620FFF7FCFB06B070BD0010014042
:100E400030380240000002400044004070472DE965
:100E5000F843044690F839001F4616460D462028F0
:100E600050D1B5B1AEB194F8380001284AD0012074
:100E700084F838004FF00008C4F83C80212084F842
:100E80003900FFF773FBA6848146E68484F8388036
:100E900026E00120BDE8F883E08C401EE084A068D5
:100EA0004B46B0F5805F4FF000024FF080012046C6
:100EB000009703D000F0FDF9E8B90DE000F0F9F972
:100EC000C8B928882168C0F308004860206908B1C3
:100ED0006D1C05E0AD1C03E0216815F8010B4860AE
:100EE000E08C0028D8D14B460022402120460097B4
:100EF00000F0DFF908B10320CCE7202084F83900A6
:100F00000020C7E70220C5E77047FEE770B586B04E
:100F100014216846FFF794F91E480024016841F047
:100F200004010160016801F004010591016841F0CC
:100F300080010160016801F080010591016841F0C4
:100F4000010101600068144E00F0010005900022CC
:100F500020213046FFF704FB4FF4005000900F486B
:100F60000125CDE9010569460D48FFF723FA202048
:100F70000090CDE90154694630460394FFF71AFA10
:100F8000002211462820FFF761FB2820FFF750FBC5
:100F900006B070BD30380240000002400000211051
:100FA00000080240FEE7FEE770477047FFF7E4BA2B
:100FB00030B593B030216846FFF742F914210CA8F0
:100FC000FFF73EF91E480025016841F0805101609D
:100FD000006800F0805011901A48016821F44041E7
:100FE00041F4004101600068022400F44040119087
:100FF0000120039010200490009406940820CDE96D
:1010000007504020CDE9090407200B906846FFF700
:1010100039FC08B172B6FEE70F20CDE90C04902030
:101020000E904FF48050CDE90F0500210CA8FFF77A
:101030003FFB002801D072B6FEE713B030BD0000C0
:1010400040380240007000400548016841F47001DA
:10105000016003494FF0006080390860704700006C
:1010600088ED00E010B5806B0021C185C184FFF7D9
:10107000CBFD10BD0168CA6822F49072CA60016895
:101080004A6922F001024A61202180F83A10704733
:1010900010B590F83A10222901D0022010BD8168C5
:1010A000B1F5805F11D00169002901681FD049683E
:1010B00001F07F03816A4A1C82620B70C18D491E58
:1010C0000904090CC18518D02BE00269816A002A45
:1010D0000268526805D0D2B20A80816A491C8162D6
:1010E000ECE7C2F308020A80816A891CF7E74A68C4
:1010F000816A4B1C83620A70E0E70168CA6822F0CB
:101100002002CA600168CA6822F48072CA6001685D
:101110004A6922F001024A61202180F83A10FFF763
:1011200095FE002010BD00002DE9F0410446006846
:101130000169E26821F44051114301612169A0680D
:10114000E26908436169114308432168CA6849F2AA
:101150000C639A430243CA6020684169A26921F482
:10116000407111434161E069192764253226B0F5C9
:10117000004F354A354920684FF0000806D08842B4
:1011800001D0904236D1FFF73DFB35E0884201D0D7
:10119000904202D1FFF736FB01E0FFF723FB6168C5
:1011A0004A18A0FB070148EB0803FFF711F80146B6
:1011B000B0FBF5F00201B1FBF5F06FF018035843F6
:1011C00001EB800006EBC000B0FBF5F000F0F8008A
:1011D00002EB4002B1FBF5F0584301EB800006EB57
:1011E000C000B0FBF5F000F00700216810448860F3
:1011F000BDE8F081FFF7F6FA61688B0F8A00A0FB6B
:101200000701FEF7E5FF0146B0FBF5F06FF01802AD
:10121000504301EB800006EB0010B0FBF5F000F04E
:10122000F002B1FBF5F002EB0012B1FBF5F06FF04C
:101230001803584301EB800006EB0010B0FBF5F0FB
:1012400000F00F00D1E70000001401400010014041
:1012500090F83910212901D0022070478168B1F53A
:10126000805F016A0BD04A1C0262026809785160F3
:10127000C18C491E0904090CC1840ED017E00988ED
:101280000268C1F30801516001690029016A02D0B6
:10129000491C0162ECE7891CFBE70168CA6822F07F
:1012A0008002CA600068C16841F04001C16000204E
:1012B00070472DE9F041984617460E460446069DB4
:1012C0001DE0681C1BD02DB1FFF750F9A0EB080002
:1012D000A84214D92068C16821F4D071C160206887
:1012E000416921F001014161202084F8390084F82E
:1012F0003A00002084F838000320BDE8F08120681F
:10130000006836EA000004D00020B842D9D000209E
:10131000F3E70120F9E700000148FFF777BC000080
:10132000480100200148FFF771BC0000880100203F
:10133000FEE70907090E002804DB00F1E02080F831
:101340000014704700F00F0000F1E02080F8141D39
:10135000704702E008C8121F08C1002AFAD170477E
:101360007047002001E001C1121F002AFBD1704725
:10137000FFF70AF9FFF71CFEFFF7C8FD17481649EB
:101380004FF4165500240160C0E901540C26C460D6
:10139000C0E904468461C461FFF7C2FC08B172B6BB
:1013A000FEE70E480E4940300160C0E90154C460B8
:1013B000C0E904468461C461FFF7B2FC08B172B6AB
:1013C000FEE70848FEF747FF82B24FF0FF330549BA
:1013D0000248FFF73CFDFEE70010014048010020F5
:1013E00000440040220100204154480D0A00000042
:1013F00000000000000000000000010203040607D6
:101400000809000000000102030400002C14000879
:101410000000002048010000C8020008D0140008A5
:1014200048010020D040000062130008900C415495
:101430002B434D47463D3F0D0A6914FA3114001302
:101440001A533D222B32353437323738383038385A
:1014500037220D182248454C4C4F20454E47494EE7
:101460004545522041524F4E2C54484953204D453A
:101470005353414745200B182246524F4D20535499
:101480004D33324634343652452E49204841564574
:10149000204245454E20544F4C44051810205341DE
:1014A000592048492042592045444953461C484F39
:1014B000574F1E4520594F5520055C4441593F7DEB
:1014C00041544430F1643B0D0A320182101324F47C
:040000050800019559
:00000001FF
