:020000040800F2
:1000000040040020DD0100086F0E0008FD0D00080F
:100010006D0E0008E9020008350F0008000000001E
:10002000000000000000000000000000730E000847
:10003000EB02000800000000710E0008750E0008B9
:10004000F7010008F7010008F7010008F7010008B0
:10005000F7010008F7010008F7010008F7010008A0
:10006000F7010008F7010008F7010008F701000890
:10007000F7010008F7010008F7010008F701000880
:10008000F7010008F7010008F7010008F701000870
:10009000F7010008F7010008F7010008F701000860
:1000A000F7010008F7010008F7010008F701000850
:1000B000F7010008F7010008F7010008F701000840
:1000C000F7010008F7010008F7010008F701000830
:1000D000F7010008F7010008F7010008F701000820
:1000E000F7010008F7010008F7010008F701000810
:1000F000F7010008F7010008F7010008F701000800
:10010000F7010008F7010008F7010008F7010008EF
:10011000F7010008F7010008F7010008F7010008DF
:10012000F7010008F7010008F7010008F7010008CF
:10013000F70100080000000000000000F7010008BF
:10014000F7010008F7010008F7010008F7010008AF
:10015000F7010008F7010008F7010008F70100089F
:10016000F7010008F7010008F7010008F70100088F
:10017000F7010008F7010008F7010008000000007F
:1001800000000000F701000800000000000000006F
:10019000F70100080000000000000000F70100085F
:1001A000000000000000000000000000F70100084F
:1001B000F7010008F7010008F7010008F70100083F
:1001C000F7010008DFF810D000F07CF80048004785
:1001D000750F0008AFF300804004002006488047F8
:1001E00006480047FEE7FEE7FEE7FEE7FEE7FEE71C
:1001F000FEE7FEE7FEE7FEE7190F0008C50100086D
:100200002DE9F05F0546002092469B46884606464B
:10021000814640241BE0284641464746224600F0DE
:1002200041F853465A46C01A914110D31146184618
:10023000224600F028F82D1A67EB01084F462246A7
:100240000120002100F01FF817EB00094E41201E8D
:10025000A4F10104DFDC484631462A464346BDE8A6
:10026000F09FD2B201E000F8012B491EFBD270478B
:100270000022F6E710B513460A4604461946FFF772
:10028000F0FF204610BD202A04DB203A00FA02F1DC
:10029000002070479140C2F1200320FA03F3194374
:1002A00090407047202A04DB203A21FA02F0002116
:1002B000704721FA02F3D040C2F120029140084376
:1002C00019467047064C074D06E0E06840F0010310
:1002D00094E8070098471034AC42F6D3FFF776FF56
:1002E0004010000860100008FEE77047002229B1A6
:1002F00001291AD002291BD04FF440720E490B6815
:1003000023F440730B600B6813430B600A6822F000
:10031000F8020A600A68022303EBC00002430A6085
:10032000086840F48030086070474FF48072E5E759
:100330004FF40072E2E70000103C0240064A1368E6
:1003400023F44073136013681360136843F00103D0
:100350001360017070470000103C0240094910B55D
:100360000C6824F440740C600C6844F440740C6015
:100370000C6844F001040C600260BFF36F8F4360AF
:1003800010BD0000103C0240074A136823F440737C
:100390001360136843F480731360136843F0010320
:1003A0001360018070470000103C0240074A136848
:1003B00023F440731360136843F4007313601368ED
:1003C00043F001031360016070470000103C0240DD
:1003D0001C490868C2061C4805D5C26942F01002D3
:1003E000C26110220A600A68920605D5C26942F00D
:1003F0000802C26120220A600A68520605D5C26955
:1004000042F00402C26140220A600A68120605D561
:10041000C26942F00202C26180220A600A68D20503
:1004200006D5C26942F00102C2614FF480720A60CF
:100430000A68920705D5C26942F02002C261022013
:10044000086070470C3C02402000002070B5114944
:1004500004460020C86100F06BF906460E4D09E025
:10046000601C07D024B100F063F9801BA04201D9C1
:10047000032070BD2868C003F2D42868C00701D0EB
:1004800001202860286810F4F970F2D0FFF7A0FF6F
:10049000012070BD200000200C3C024070B50446D5
:1004A00000F046F90546601C02D004480078044478
:1004B00000F03EF9401BA042FAD370BD10000020AE
:1004C0000348016841F000410160002070470000CE
:1004D000103C02402DE9F0471B4E05461446307E85
:1004E0001F468946012808D0012030764CF250384A
:1004F0004046FFF7ABFF18B114E00220BDE8F087DB
:100500009DB1012D16D0022D19D022463B464846FA
:10051000FFF724FF4046FFF799FF0C490A6822F0D5
:1005200001020A6000213176E8E7E1B24846FFF7B0
:1005300005FFEFE7A1B24846FFF726FFEAE72146AD
:100540004846FFF733FFE5E720000020103C02405B
:10055000074900200A68002A09DA054A054B0C3AC7
:100560001360054B13600968002900DA0120704709
:10057000103C024023016745AB89EFCD2DE9F84FD0
:1005800000224FF0010803254FF00F0E0B6808FA08
:1005900002F42340A3426ED14E68012E05D0022EF4
:1005A00003D0112E01D0122E12D186684FEA420CD0
:1005B00005FA0CF7BE43CF6807FA0CF7374387609C
:1005C0004668A6430C79C4F3001494403443446055
:1005D000C668570005FA07FC8C6826EA0C06BC4082
:1005E0003443C4604C68022C01D0122C13D1D408BF
:1005F00000EB8404A346D4F8209054074FEAD46A51
:100600000EFA0AF629EA06090E6906FA0AF646EA19
:100610000906CBF8206006680C7926EA0C0604F07F
:100620000304BC40344304604C68E40060D5334CA0
:10063000266846F480462660246822F0030604F407
:10064000804400942E4C3444A446D4F808489607BD
:10065000370F0EFA07F6B4432A4EB04201D10026F6
:100660001FE0294EB04201D101261AE0274EB042C8
:1006700002D1022615E03BE0254EB04201D103260F
:100680000FE0244EB04201D104260AE0224EB042CF
:1006900001D1052605E0214EB04201D1062600E039
:1006A0000726BE402643CCF808681D4E34684F68C4
:1006B0009C43FF0300D51C433460194E361D34683B
:1006C0004F689C43BF0300D51C433460144E08366A
:1006D00034684F689C43FF0200D51C433460104EC1
:1006E0000C3634684F689C43BF0200D51C4334600D
:1006F000521C102AFFF44AAFBDE8F88F443802407C
:1007000000300140000002400004024000080240A6
:10071000000C024000100240001402400018024089
:10072000003C01400AB1816170470904FBE7000009
:10073000014880687047000010000020024881686E
:100740000278114481607047100000200B4810B5FA
:10075000016841F400710160016841F48061016049
:10076000016841F480710160032000F063F800200B
:1007700000F006F800F024F8002010BD003C024014
:1007800070B50D4D04464FF47A712878B1FBF0F046
:100790000A490968B1FBF0F000F01CFB48B9102CC5
:1007A00007D200222146501E00F024F800206C6081
:1007B00070BD012070BD0000100000201C00002052
:1007C0000B4882B0016841F480410160006800F488
:1007D000804000900648001F016841F08051016090
:1007E000006800F080500090072002B000F022B8AE
:1007F00044380240F0B40E4B1B680C46C3F302238E
:10080000C3F10705042D00D90425191D072901D2BC
:10081000002300E0DB1E012606FA05F1491E2140F7
:1008200099409E40761E16403143F0BC00F083BBD9
:100830000CED00E0064900F0070208684FF6FF03E0
:10084000184040EA0220034A104308607047000045
:100850000CED00E00000FA052DE9F84317480168A7
:1008600041F0805101600068154F00F08050012672
:1008700000903E64FFF75CFF05464FF47A78114C18
:1008800005E000BFFFF754FF401B40450DD86068EE
:10089000C003F7D57E64FFF74BFF0546464607E0E9
:1008A000FFF746FF401BB04202D90320BDE8F883A2
:1008B00060688003F4D50020F8E70000403802406B
:1008C00000000E42007000402DE9F0470E46050082
:1008D00065D0DFF81481D8F80000F7B200F00F00FF
:1008E000B04207D288F80070D8F8000000F00F007E
:1008F000B04254D128683D4C810712D5400703D53A
:10090000206840F4E05020602878000703D5206874
:1009100040F4604020602068A96820F0F00008439F
:1009200020602878C0072DD0304968680839012830
:1009300012D0022813D0032811D009688907002992
:100940002DDA216821F0030101432160FFF7F0FE59
:10095000814641F2883A0EE009688903EFE70968A9
:100960008901ECE7FFF7E4FEA0EB0901514502D94C
:100970000320BDE8F0872068696800F00C00B0EB48
:10098000810FEFD1D8F80010404601F00F01B142BD
:1009900007D90770006800F00F00B04201D00120B5
:1009A000E7E72878400705D52068E96820F4E0509B
:1009B000084320602878000706D52068296920F4BC
:1009C000604040EAC100206000F018F82168084A41
:1009D000C1F30311515CC84006490860064800682D
:1009E000FFF7CEFE0020C4E7003C0240083802407A
:1009F000301000081C00002014000020224810B510
:100A0000006810F00C02214815D04110042A11D0C2
:100A10001D4C241F082A0FD00C2A0CD122682368F1
:100A200002F03F025B0221D52068C0F38810A0FBD2
:100A3000010120E0084610BD2268236802F03F0251
:100A40005B0205D52068C0F38810A0FB010104E01B
:100A50002168C1F38811A1FB00010023FFF7D0FB3F
:100A60002168C1F30141491C49000AE02168C1F332
:100A70008811A1FB00010023FFF7C2FB2168C1F32D
:100A80000271B0FBF1F010BD083802400024F40000
:100A90002DE9F84F0546DFF828B30078ABF10407DD
:100AA000C007A7F1040451D0DBF800105846C1F389
:100AB000810101290FD00168C1F38101022902D10E
:100AC0003968490207D40068C0F38100032809D1BE
:100AD0003868400206D52068800337D5686800284A
:100AE00072D033E06868B0F5803F10D0B0F5A02F29
:100AF000206810D020F480302060206820F480200E
:100B000020606868A8B1FFF713FE06460DE0206874
:100B100040F48030F4E740F480202060F7E700BF25
:100B2000FFF706FE801B642878D820688003F7D57D
:100B30000CE0FFF7FDFD064605E000BFFFF7F8FDFE
:100B4000801B6428F0D820688003F7D42878DFF869
:100B5000749280074FF0000A46D5DBF80010584623
:100B600011F00C0F0FD00168C1F38101022902D1ED
:100B70003968490207D50068C0F38100032809D10C
:100B80003868400206D42068800715D5E868012837
:100B90001AD111E0E868C0B10120C9F80000FFF7E0
:100BA000C7FD064605E000BFFFF7C2FD801B022817
:100BB000BAD820688007F7D52068296920F0F800A6
:100BC00040EAC10020600FE0F7E0C9F800A0FFF79D
:100BD000AFFD064605E000BFFFF7AAFD801B022817
:100BE0001CD820688007F7D42878000727D5DFF8BD
:100BF000D0817548696908F16C0881B101210160F3
:100C0000FFF796FD064604E0FFF792FD801B0228E1
:100C100004D8D8F800008007F6D510E089E0C0F8C5
:100C200000A0FFF785FD064605E000BFFFF780FD49
:100C3000801B02287DD8D8F800008007F6D42878D9
:100C4000400769D55E484FF0000838300068C000A2
:100C50000BD45B483830016841F080510160006876
:100C60004FF0010800F080500090584E3068C005E9
:100C700011D4306840F480703060FFF759FD009067
:100C800006E000BFFFF754FD0099401A022850D833
:100C90003068C005F6D54A4EA868683601280FD0DE
:100CA0000528306810D020F001003060306820F056
:100CB00004003060A868B8B1FFF73AFD00900FE07B
:100CC000306840F00100F4E740F004003060F7E7DE
:100CD000FFF72EFD0099411A41F28830814264D815
:100CE00030688007F4D50EE0FFF722FD009007E0A2
:100CF000FFF71EFD0099411A41F28830814254D815
:100D000030688007F4D4B8F1000F05D02C48383093
:100D1000016821F080510160A869A8B3DBF80010D8
:100D2000C1F38101022948D00228C9F860A005D08A
:100D300000E03AE0FFF7FCFC054639E0FFF7F8FC7D
:100D4000064604E0FFF7F4FC801B02282DD820683B
:100D50008001F7D4F5E907010843E9681C4A49080E
:100D600002EB0141AA6841EA82110843297C40EA6A
:100D70000160297D40EA017038600120C9F86000F7
:100D8000FFF7D6FC054606E015E000BFFFF7D0FCF4
:100D9000401B022809D820688001F7D50BE000BF6E
:100DA000FFF7C6FC401B022802D90320BDE8F88FDC
:100DB00020688001F4D40020F8E70120F6E7000065
:100DC0000838024000004742800E47420070004051
:100DD0000000FFFF10B5401EB0F1807F01D301205D
:100DE00010BD4FF0E02460610F21601700F0A3F800
:100DF0000020A06107202061002010BDFEE7000058
:100E000030B587B014216846FFF732FA1548002440
:100E1000016841F004010160016801F004010591DD
:100E2000016841F080010160016801F080010591D5
:100E3000016841F00101016000680B4D00F0010004
:100E40000590002220212846FFF76CFC202000900E
:100E50000120CDE90104694628460394FFF78EFB83
:100E600007B030BD3038024000000240FEE7FEE728
:100E700070477047FFF762BC30B593B034216846C5
:100E8000FFF7F6F914210DA8FFF7F2F92048002525
:100E9000016841F080510160006800F080501290BC
:100EA0001C48016841F4404101600068022400F4DC
:100EB0004040129001200090000401908001CDE993
:100EC000064004200890B420CDE909040B9468463C
:100ED0000C94FFF7DDFD08B172B6FEE7FFF7BCFC2E
:100EE00008B172B6FEE70DA90F2081E831004FF47A
:100EF000A05010904FF48050119005210DA8FFF7DD
:100F0000E3FC002801D072B6FEE713B030BD00004C
:100F100040380240007000400548016841F470010B
:100F2000016003494FF0006080390860704700009D
:100F300088ED00E0FEE70907090E002804DB00F158
:100F4000E02080F80014704700F00F0000F1E0206E
:100F500080F8141D704702E008C8121F08C1002A5B
:100F6000FAD170477047002001E001C1121F002A2A
:100F7000FBD17047FFF7EAFBFFF77EFFFFF740FF6B
:100F8000FFF7E6FA02210620FFF7B0F9FFF798FA1B
:100F9000FFF7DEFA234C002604F1080526702078BE
:100FA000002361682A5C1846FFF794FA6068401CC9
:100FB00060602078401CC0B220700328EFD9FFF792
:100FC0007FFA19486060FFF7C3FA164D26700C359A
:100FD000606810F8012B21786A54491C6060C8B21F
:100FE00020700328F4D9FFF76BFA26700F4E4FF4E8
:100FF0007A7712E0012220213046FFF793FB384632
:10100000FFF74CFA002220213046FFF78BFB3846D1
:10101000FFF744FA2078401C2070687821788842D5
:10102000E8D2FEE7000000200000040800000240B3
:101030000000000000000000010203040607080988
:10104000601000080000002020000000560F00087B
:10105000801000082000002020040000660F000817
:10106000000000000000040805060708000000005A
:101070000100000010000000000000000024F40047
:04000005080001C529
:00000001FF
