:020000040800F2
:1000000038040020DD010008571100086D0D0008BC
:1000100055110008D5040008151200080000000062
:100020000000000000000000000000005B1100085C
:10003000D704000800000000591100085D110008F5
:10004000F7010008F7010008F7010008F7010008B0
:10005000F7010008F7010008F7010008F7010008A0
:10006000F7010008F7010008F7010008F701000890
:10007000F7010008F7010008F7010008F701000880
:10008000F7010008F7010008F7010008F701000870
:10009000F7010008F7010008F7010008F701000860
:1000A000F7010008F7010008F7010008F701000850
:1000B000F7010008F7010008F7010008F701000840
:1000C000F7010008F7010008F7010008F701000830
:1000D000F7010008F7010008F7010008F701000820
:1000E000F7010008F7010008F7010008F701000810
:1000F000F7010008F7010008F7010008F701000800
:10010000F7010008F7010008F7010008F7010008EF
:10011000F7010008F7010008F7010008F7010008DF
:10012000F7010008F7010008F7010008F7010008CF
:10013000F70100080000000000000000F7010008BF
:10014000F7010008F7010008F7010008F7010008AF
:10015000F7010008F7010008F7010008F70100089F
:10016000F7010008F7010008F7010008F70100088F
:10017000F7010008F7010008F7010008000000007F
:1001800000000000F701000800000000000000006F
:10019000F70100080000000000000000F70100085F
:1001A000000000000000000000000000F70100084F
:1001B000F7010008F7010008F7010008F70100083F
:1001C000F7010008DFF810D000F072F9004800478E
:1001D00055120008AFF3008038040020064880471D
:1001E00006480047FEE7FEE7FEE7FEE7FEE7FEE71C
:1001F000FEE7FEE7FEE7FEE7F9110008C50100088B
:100200002DE9F05F0546002092469B46884606464B
:10021000814640241BE0284641464746224600F0DE
:10022000D9F853465A46C01A914110D31146184680
:10023000224600F0C0F82D1A67EB01084F4622460F
:100240000120002100F0B7F817EB00094E41201EF5
:10025000A4F10104DFDC484631462A464346BDE8A6
:10026000F09FD2B201E000F8012B491EFBD270478B
:100270000022F6E710B513460A4604461946FFF772
:10028000F0FF204610BD2DE9FE4F81EA030404F083
:10029000004421F0004100944FF0000B23F0004394
:1002A00050EA01045ED052EA03045BD0C3F30A545F
:1002B000C1F30A552C44A4F2F3340194A0FB025478
:1002C000C1F3130141F48011C3F3130343F480130A
:1002D00001FB024400FB034E840A970A44EA81545E
:1002E00047EA8357A4FB076802958D0A05FB07853B
:1002F0004FEA932C04FB0C542705029D4FEA065845
:1003000047EA1637B5EB08056EEB070C870E920E21
:1003100047EA811742EA8312A7FB0201B6EB0B0101
:1003200064EB00042B0D43EA0C335E1844EB1C50C5
:10033000DA465146E7FB0201C5F313044FEA0B33DB
:1003400043EA14534FEA0432019C43EA0603A4F142
:100350000C040294009CCDE900B400F05AF803B0FC
:10036000BDE8F08F00200146F9E70EB540F23341B9
:1003700002910021CDE900110A460B4600F049F830
:1003800003B000BDC1F30A5210B5C1F3130140F22E
:10039000FF3341F480119A4201DA002010BD40F28F
:1003A00033439A42A2F2334203DC524200F012F885
:1003B00010BD904010BD202A04DB203A00FA02F163
:1003C000002070479140C2F1200320FA03F3194343
:1003D00090407047202A04DB203A21FA02F00021E5
:1003E000704721FA02F3D040C2F120029140084345
:1003F0001946704710B5141E73F1000408DA401C4A
:1004000041F1000192185B411A4301D120F0010033
:1004100010BD2DE9F04D92469B4611B1B1FA81F223
:1004200002E0B0FA80F220329046FFF7C4FF0446A3
:100430000F4640EA0A0041EA0B0153465A46084378
:1004400013D0114653EA010019D0C8F140025046BA
:10045000FFF7C0FF05460E46504659464246FFF795
:10046000AAFF084305D0012004E020463946BDE834
:10047000F08D0020054346EAE0762C4337430A9886
:100480006305E40AA0EB08000022FD0A44EA475491
:100490000A3002D500200146E9E70105101969413B
:1004A000DDE9084500196941BDE8F04DA2E700000B
:1004B000064C074D06E0E06840F0010394E80700B1
:1004C00098471034AC42F6D3FFF780FEDC120008E8
:1004D000FC120008FEE7704770B5044600F0E8F82B
:1004E0000546601C02D004480078044400F0E0F89F
:1004F000401BA042FAD370BD240000202DE9F84F24
:1005000000224FF0010803254FF00F0E0B6808FA88
:1005100002F42340A3426ED14E68012E05D0022E74
:1005200003D0112E01D0122E12D186684FEA420C50
:1005300005FA0CF7BE43CF6807FA0CF7374387601C
:100540004668A6430C79C4F30014944034434460D5
:10055000C668570005FA07FC8C6826EA0C06BC4002
:100560003443C4604C68022C01D0122C13D1D4083F
:1005700000EB8404A346D4F8209054074FEAD46AD1
:100580000EFA0AF629EA06090E6906FA0AF646EA9A
:100590000906CBF8206006680C7926EA0C0604F000
:1005A0000304BC40344304604C68E40060D5334C21
:1005B000266846F480462660246822F0030604F488
:1005C000804400942E4C3444A446D4F8084896073E
:1005D000370F0EFA07F6B4432A4EB04201D1002677
:1005E0001FE0294EB04201D101261AE0274EB04249
:1005F00002D1022615E03BE0254EB04201D1032690
:100600000FE0244EB04201D104260AE0224EB0424F
:1006100001D1052605E0214EB04201D1062600E0B9
:100620000726BE402643CCF808681D4E34684F6844
:100630009C43FF0300D51C433460194E361D3468BB
:100640004F689C43BF0300D51C433460144E0836EA
:1006500034684F689C43FF0200D51C433460104E41
:100660000C3634684F689C43BF0200D51C4334608D
:10067000521C102AFFF44AAFBDE8F88F44380240FC
:100680000030014000000240000402400008024027
:10069000000C02400010024000140240001802400A
:1006A000003C01400AB1816170470904FBE700008A
:1006B00001488068704700002400002002488168DB
:1006C0000278114481607047240000200B4810B567
:1006D000016841F400710160016841F480610160CA
:1006E000016841F480710160032000F063F800208C
:1006F00000F006F800F024F8002010BD003C024095
:1007000070B50D4D04464FF47A712878B1FBF0F0C6
:100710000A490968B1FBF0F000F014FB48B9102C4D
:1007200007D200222146501E00F024F800206C6001
:1007300070BD012070BD00002400002030000020AA
:100740000B4882B0016841F480410160006800F408
:10075000804000900648001F016841F08051016010
:10076000006800F080500090072002B000F022B82E
:1007700044380240F0B40E4B1B680C46C3F302230E
:10078000C3F10705042D00D90425191D072901D23D
:10079000002300E0DB1E012606FA05F1491E214078
:1007A00099409E40761E16403143F0BC00F033BDA8
:1007B0000CED00E0064900F0070208684FF6FF0361
:1007C000184040EA0220034A1043086070470000C6
:1007D0000CED00E00000FA052DE9F0470E4605009B
:1007E00065D0DFF81481D8F80000F7B200F00F00F0
:1007F000B04207D288F80070D8F8000000F00F006F
:10080000B04254D128683D4C810712D5400703D52A
:10081000206840F4E05020602878000703D5206865
:1008200040F4604020602068A96820F0F000084390
:1008300020602878C0072DD0304968680839012821
:1008400012D0022813D0032811D009688907002983
:100850002DDA216821F0030101432160FFF728FF11
:10086000814641F2883A0EE009688903EFE709689A
:100870008901ECE7FFF71CFFA0EB0901514502D904
:100880000320BDE8F0872068696800F00C00B0EB39
:10089000810FEFD1D8F80010404601F00F01B142AE
:1008A00007D90770006800F00F00B04201D00120A6
:1008B000E7E72878400705D52068E96820F4E0508C
:1008C000084320602878000706D52068296920F4AD
:1008D000604040EAC100206000F048F82168084A02
:1008E000C1F30311515CC84006490860064800681E
:1008F000FFF706FF0020C4E7003C02400838024032
:10090000C412000830000020280000200F220260DE
:100910000C4A136803F003034360136803F0F00309
:100920008360136803F4E053C36012684FF4E0532C
:1009300003EAD20202610448006800F00F00086078
:100940007047000008380240003C02400448054956
:1009500000680968044AC1F38221515CC8407047AD
:100960003000002008380240D4120008224810B598
:10097000006810F00C02214815D04110042A11D053
:100980001D4C241F082A0FD00C2A0CD12268236882
:1009900002F03F025B0221D52068C0F38810A0FB63
:1009A000010120E0084610BD2268236802F03F02E2
:1009B0005B0205D52068C0F38810A0FB010104E0AC
:1009C0002168C1F38811A1FB00010023FFF718FC87
:1009D0002168C1F30141491C49000AE02168C1F3C3
:1009E0008811A1FB00010023FFF70AFC2168C1F375
:1009F0000271B0FBF1F010BD083802400024F40091
:100A00002DE9F84F0546DFF828B30078ABF104076D
:100A1000C007A7F1040451D0DBF800105846C1F319
:100A2000810101290FD00168C1F38101022902D19E
:100A30003968490207D40068C0F38100032809D14E
:100A40003868400206D52068800337D568680028DA
:100A500072D033E06868B0F5803F10D0B0F5A02FB9
:100A6000206810D020F480302060206820F480209E
:100A700020606868A8B1FFF71BFE06460DE02068FD
:100A800040F48030F4E740F480202060F7E700BFB6
:100A9000FFF70EFE801B642878D820688003F7D506
:100AA0000CE0FFF705FE064605E000BFFFF700FE7D
:100AB000801B6428F0D820688003F7D42878DFF8FA
:100AC000749280074FF0000A46D5DBF800105846B4
:100AD00011F00C0F0FD00168C1F38101022902D17E
:100AE0003968490207D50068C0F38100032809D19D
:100AF0003868400206D42068800715D5E8680128C8
:100B00001AD111E0E868C0B10120C9F80000FFF770
:100B1000CFFD064605E000BFFFF7CAFD801B022897
:100B2000BAD820688007F7D52068296920F0F80036
:100B300040EAC10020600FE0F7E0C9F800A0FFF72D
:100B4000B7FD064605E000BFFFF7B2FD801B022897
:100B50001CD820688007F7D42878000727D5DFF84D
:100B6000D0817548696908F16C0881B10121016083
:100B7000FFF79EFD064604E0FFF79AFD801B022862
:100B800004D8D8F800008007F6D510E089E0C0F856
:100B900000A0FFF78DFD064605E000BFFFF788FDCA
:100BA000801B02287DD8D8F800008007F6D428786A
:100BB000400769D55E484FF0000838300068C00033
:100BC0000BD45B483830016841F080510160006807
:100BD0004FF0010800F080500090584E3068C0057A
:100BE00011D4306840F480703060FFF761FD0090F0
:100BF00006E000BFFFF75CFD0099401A022850D8BC
:100C00003068C005F6D54A4EA868683601280FD06E
:100C10000528306810D020F001003060306820F0E6
:100C200004003060A868B8B1FFF742FD00900FE003
:100C3000306840F00100F4E740F004003060F7E76E
:100C4000FFF736FD0099411A41F28830814264D89D
:100C500030688007F4D50EE0FFF72AFD009007E02A
:100C6000FFF726FD0099411A41F28830814254D89D
:100C700030688007F4D4B8F1000F05D02C48383024
:100C8000016821F080510160A869A8B3DBF8001069
:100C9000C1F38101022948D00228C9F860A005D01B
:100CA00000E03AE0FFF704FD054639E0FFF700FDFC
:100CB000064604E0FFF7FCFC801B02282DD82068C4
:100CC0008001F7D4F5E907010843E9681C4A49089F
:100CD00002EB0141AA6841EA82110843297C40EAFB
:100CE0000160297D40EA017038600120C9F8600088
:100CF000FFF7DEFC054606E015E000BFFFF7D8FC75
:100D0000401B022809D820688001F7D50BE000BFFE
:100D1000FFF7CEFC401B022802D90320BDE8F88F64
:100D200020688001F4D40020F8E70120F6E70000F5
:100D30000838024000004742800E474200700040E1
:100D40000000FFFF10B5401EB0F1807F01D30120ED
:100D500010BD4FF0E02460610F21601700F05BFAD6
:100D60000020A06107202061002010BDFEE70121C6
:100D7000084600F0E5B80121022000F0E1B80000CB
:100D80002DE9F04106AC94E8E0101E4CA061A18072
:100D9000E280236225826682A782A4F816C000F052
:100DA00053F8022020702820A0701420FFF794FB35
:100DB000032000F045F90520FFF78EFB032000F02B
:100DC0003FF90120FFF788FB032000F039F90120EB
:100DD000FFF782FB022000F033F90120FFF77CFBD4
:100DE0000F2000F051F9012000F04EF90320FFF729
:100DF00073FB282000F048F9BDE8F0410320FFF71D
:100E00006BBB00000000002010B5094C0122E188F6
:100E1000A069FFF747FC0A2000F060F80022E18893
:100E2000A069FFF73FFCBDE810403C2000F056B839
:100E300000000020020003488188806900D0012260
:100E4000FFF730BC0000002000B587B005A9684658
:100E5000FFF75CFD0398A8B3FFF778FD5FEA400059
:100E6000FFF783FA9FED191B53EC112BFFF70BFAD9
:100E7000FFF788FA17490A6842F002020A60164929
:100E80000A6822F010020A600A6822F001020A6071
:100E90000A6822F004020A600A6842F008020A6046
:100EA0000D492831401E08600920091D08600A49C3
:100EB000012014310860081F016821F00101016060
:100EC00007B000BDFFE7FFF741FDC9E78DEDB5A015
:100ED000F7C6B03E40380240000400400949401EB9
:100EE000086008481C38016821F0010101600549CB
:100EF0002C390A6842F001020A600168C907FCD077
:100F0000704700002C04004010B5012000F0BCF830
:100F1000BDE810400320FFF7DFBA70B50646002495
:100F200009E00120FFF786FF284600F017F8641C4F
:100F3000E4B2102C02D2355D002DF2D170BD00005C
:100F4000491E01F00F01012804D041F0C00000BF8C
:100F500000F09AB841F08000FAE700002DE9F84F60
:100F60000209364C02F0080302F0040B217802F06B
:100F7000020902F0010700F0080A00F0040600F080
:100F8000020500F00108009301292FD0022952D157
:100F90003A46218A206AFFF785FB4A46618A206A21
:100FA000FFF780FB5A46A18A206AFFF77BFBE18AA4
:100FB000009A206AFFF776FBFFF726FF4246218A58
:100FC000206AFFF76FFB2A46618A206AFFF76AFBF7
:100FD0003246A18A206AFFF765FB5246E18A206A01
:100FE000FFF760FBBDE8F84FFFF70EBF42462189CF
:100FF000E069FFF757FB2A466189E069FFF752FB7A
:101000003246A189E069FFF74DFB5246E189E0696C
:10101000FFF748FB3A46218A206AFFF743FB4A461E
:10102000618A206AFFF73EFB5A46A18A206AFFF7D1
:1010300039FB009AD2E7BDE8F88F000000000020DD
:1010400070B505460020FFF7F5FE0E4C05F00102D5
:10105000218A206AFFF726FB05F00202618A206AD6
:10106000FFF720FB05F00402A18A206AFFF71AFBB4
:1010700005F00802E18A206AFFF714FBBDE8704022
:10108000FFF7C2BE0000002010B504460020FFF7A5
:10109000D1FE2046BDE81040FFF760BFF0B587B035
:1010A00014216846FFF7E4F826480024016841F05F
:1010B00004010160016801F004010591016841F03B
:1010C00080010160016801F080010591016841F033
:1010D00001010160016801F001010591016841F021
:1010E000020101600068184E00F002000590002225
:1010F000FF213046FFF7D6FA144F0022A0213846D0
:10110000FFF7D0FA4FF4005000901148CDE90104E8
:1011100069463046FFF7F2F9FF2000900125CDE93E
:101120000154694630460394FFF7E8F9A020009087
:10113000CDE90154694638460394FFF7DFF907B05B
:10114000F0BD0000303802400008024000040240B8
:1011500000002110FEE7FEE770477047FFF7AEBAC8
:1011600030B593B034216846FFF782F814210DA8FA
:10117000FFF77EF81E480025016841F080510160AC
:10118000006800F0805012901A48016821F4404134
:1011900041F4804101600068022400F44040129054
:1011A000012003901020009406940490CDE907508C
:1011B0004FF4A87009900420CDE90A0468460C9405
:1011C000FFF71EFC08B172B6FEE70DA90F2081E8FB
:1011D00031004FF48050CDE9100502210DA8FFF732
:1011E000FBFA002801D072B6FEE713B030BD000054
:1011F00040380240007000400548016841F4700129
:10120000016003494FF000608039086070470000BA
:1012100088ED00E0FEE70907090E002804DB00F175
:10122000E02080F80014704700F00F0000F1E0208B
:1012300080F8141D704702E008C8121F08C1002A78
:10124000FAD170477047002001E001C1121F002A47
:10125000FBD170471FB5FFF739FAFFF781FFFFF7A2
:101260001DFF80234022202110208DE80F000B4B12
:1012700080220B48FFF784FD4FF47A74FFF744FE99
:10128000FFF775FD07A0FFF748FEFFF774FD08A004
:10129000FFF743FE2046FFF71FF9EFE70008024083
:1012A00000040240504C4541534520444F4E5400E9
:1012B0003447455420322053554253435249424506
:1012C0000000000000000000000000000102030414
:1012D000060708090000000001020304FC120008D0
:1012E000000000203400000036120008301300080F
:1012F000340000200404000046120008010F3800EA
:1013000000000000000000000000000000000000DD
:1013100000000000000000000000000000000000CD
:101320000100000010000000000000000024F40094
:04000005080001C529
:00000001FF
