:020000040800F2
:100000006806002049020008510200085302000857
:1000100055020008570200085902000800000000BD
:100020000000000000000000000000005B0200086B
:100030005D020008000000005F0200086102000885
:1000400063020008630200086302000863020008FC
:1000500063020008630200086302000863020008EC
:1000600063020008630200086302000863020008DC
:1000700063020008630200086302000863020008CC
:1000800063020008630200086302000863020008BC
:1000900063020008630200086302000863020008AC
:1000A000630200086302000863020008630200089C
:1000B000630200086302000863020008630200088C
:1000C000630200086302000863020008630200087C
:1000D000630200086302000863020008630200086C
:1000E000630200086302000863020008630200085C
:1000F000630200086302000863020008630200084C
:10010000630200086302000863020008630200083B
:10011000630200086302000863020008630200082B
:10012000630200086302000863020008630200081B
:1001300063020008000000000000000063020008E5
:1001400063020008630200086302000863020008FB
:1001500063020008630200086302000863020008EB
:1001600063020008630200086302000863020008DB
:100170006302000863020008630200080000000038
:100180000000000063020008000000000000000002
:100190006302000800000000000000006302000885
:1001A00000000000000000000000000063020008E2
:1001B000630200086302000863020008630200088B
:1001C0006302000800F002F800F02EF80AA090E8A0
:1001D000000C82448344AAF10107DA4501D100F002
:1001E00023F8AFF2090EBAE80F0013F0010F18BFA1
:1001F000FB1A43F001031847FC0100000C02000049
:100200000023002400250026103A28BF78C1FBD81F
:10021000520728BF30C148BF0B6070471FB500F0C0
:10022000DCF81FBD10B510BD00F031F81146FFF726
:10023000F5FF00F075F800F04FF803B4FFF7F2FF98
:1002400003BC00F057F80000094880470948004700
:10025000FEE7FEE7FEE7FEE7FEE7FEE7FEE7FEE776
:10026000FEE7FEE704480549054A064B70470000D3
:1002700005030008C501000868000020680600208A
:10028000680200206802002070477047704775467A
:1002900000F02CF8AE4605006946534620F00700F2
:1002A000854618B020B5FFF7DDFFBDE820404FF0D0
:1002B00000064FF000074FF000084FF0000BAC466F
:1002C000ACE8C009ACE8C009ACE8C009ACE8C009BA
:1002D00021F007018D46704710B50446AFF300804A
:1002E0002046BDE81040FFF7A8BF00000048704757
:1002F0000000002001491820ABBEFEE726000200E6
:10030000704700004EF68850CEF20000016841F4BC
:10031000700101604FF0006140F8801C70470000E0
:1003200043F6400EC4F2020E5EF8100C002240F0BC
:1003300001004EF8100CC4F2020210684FF0000CDD
:1003400040F400601060106A40F480101062DEF823
:100350000030202043F00103C4F20000CEF800304A
:1003600040F23F63836042F20F73C360302340F872
:10037000083CC0F814C0036843F001030360C0F8F0
:1003800004C04FF0804C0123CCF80030116841F4D8
:1003900000511160116A41F000711162DEF8001025
:1003A00040F2600241F00201CEF8001043F67F6196
:1003B000C0F8081440F23441C4F20001C2F2000255
:1003C000C0F8F833C0F80034C0F8E033D0F8F033A8
:1003D0009B07FBD50B681360F8E7F1EE100A4FF6A8
:1003E000FF71C0F2C03120EA010040F04070E1EE40
:1003F000100A70470404000800000020680600008E
:0404000000020008EE
:0400000508000249A4
:00000001FF
