:020000040800F2
:10000000600600204902000851020008530200085F
:1000100055020008570200085902000800000000BD
:100020000000000000000000000000005B0200086B
:100030005D020008000000005F0200086102000885
:1000400063020008630200086302000863020008FC
:1000500063020008630200086302000863020008EC
:1000600063020008630200086302000863020008DC
:1000700063020008630200086302000863020008CC
:1000800063020008630200086302000863020008BC
:1000900063020008630200086302000863020008AC
:1000A000630200086302000863020008630200089C
:1000B000630200086302000863020008630200088C
:1000C000630200086302000863020008630200087C
:1000D0006302000863020008750300086302000859
:1000E000630200086302000863020008630200085C
:1000F000630200086302000863020008630200084C
:10010000630200086302000863020008630200083B
:10011000630200086302000863020008630200082B
:10012000630200086302000863020008630200081B
:1001300063020008000000000000000063020008E5
:1001400063020008630200086302000863020008FB
:1001500063020008630200086302000863020008EB
:1001600063020008630200086302000863020008DB
:100170006302000863020008630200080000000038
:100180000000000063020008000000000000000002
:100190006302000800000000000000006302000885
:1001A00000000000000000000000000063020008E2
:1001B000630200086302000863020008630200088B
:1001C0006302000800F002F800F02EF80AA090E8A0
:1001D000000C82448344AAF10107DA4501D100F002
:1001E00023F8AFF2090EBAE80F0013F0010F18BFA1
:1001F000FB1A43F001031847840200009402000038
:100200000023002400250026103A28BF78C1FBD81F
:10021000520728BF30C148BF0B6070471FB500F0C0
:1002200020F91FBD10B510BD00F031F81146FFF7E1
:10023000F5FF00F0F5F800F04FF803B4FFF7F2FF18
:1002400003BC00F057F80000094880470948004700
:10025000FEE7FEE7FEE7FEE7FEE7FEE7FEE7FEE776
:10026000FEE7FEE704480549054A064B70470000D3
:1002700005030008C501000860000020600600209A
:10028000600200206002002070477047704775468A
:1002900000F02CF8AE4605006946534620F00700F2
:1002A000854618B020B5FFF7DDFFBDE820404FF0D0
:1002B00000064FF000074FF000084FF0000BAC466F
:1002C000ACE8C009ACE8C009ACE8C009ACE8C009BA
:1002D00021F007018D46704710B50446AFF300804A
:1002E0002046BDE81040FFF7A8BF00000048704757
:1002F0000000002001491820ABBEFEE726000200E6
:10030000704700004EF68850CEF20000016841F4BC
:10031000700101604FF0006140F8801C70470000E0
:1003200043F63000C4F20200016841F001010160AF
:10033000016941F4003101610020C4F20200016A48
:1003400041F4E0410162016841F08001016044F242
:100350000C40C4F2000050F8041C41F08B0140F83E
:10036000041C016841F004010160016841F400517E
:100370000160704780B582B044F20040C4F20000D2
:100380000168890606D540688DF807009DF80700CA
:1003900000F024F802B080BD4EF20410CEF200004E
:1003A00040210160704700004EF21001CEF20001C2
:1003B0004FF47A524FF0000C052301284A60C1F82F
:1003C00008C00B6006DB00230A68D203FCD50133AA
:1003D0008342F9D1C1F800C070470000F0B581B088
:1003E000C11700EB117121F00F01401A012814DB35
:1003F0001824C4F20204451C20264FF4001700BF45
:100400004FF47A702660FFF7CFFF4FF47A702760C1
:10041000FFF7CAFF013D012DF2DC01B0F0BD000085
:10042000EFF3108072B643F63000C4F202000168A8
:1004300041F0010101600020C4F20200016841F4B2
:1004400080610160FFF76CFF44F20C40C4F20000D1
:10045000016841F020010160FFF79EFF62B600BF16
:10046000FEE7F1EE100A4FF6FF71C0F2C03120EA4C
:10047000010040F04070E1EE100A70478C04000863
:0C048000000000206006000000020008E0
:0400000508000249A4
:00000001FF
