:020000040800F2
:1000000010050020DD010008031E0008E71C0008A1
:10001000011E0008510900084D20000800000000E2
:10002000000000000000000000000000071E0008A3
:10003000050A000800000000051E0008091E00084F
:10004000F7010008F7010008F7010008F7010008B0
:10005000F7010008F7010008F7010008F7010008A0
:10006000F7010008F7010008F7010008F701000890
:10007000F7010008F7010008F7010008F701000880
:10008000F7010008F70100081D080008F701000843
:10009000F7010008F7010008F7010008F701000860
:1000A000F7010008F7010008F7010008F701000850
:1000B000F7010008F7010008F7010008F701000840
:1000C000F7010008F7010008F7010008F701000830
:1000D000F7010008F7010008F7010008F701000820
:1000E000F7010008F7010008F7010008F701000810
:1000F000F7010008F7010008F7010008F701000800
:10010000F7010008F7010008F7010008F7010008EF
:10011000F7010008F7010008F7010008F7010008DF
:1001200055090008F7010008F7010008F701000869
:10013000F70100080000000000000000F7010008BF
:10014000F7010008F7010008F7010008F7010008AF
:10015000F7010008F7010008F7010008F70100089F
:10016000F7010008F7010008F7010008F70100088F
:10017000F7010008F7010008F7010008000000007F
:1001800000000000F701000800000000000000006F
:10019000F70100080000000000000000F70100085F
:1001A000000000000000000000000000F70100084F
:1001B000F7010008F7010008F7010008F70100083F
:1001C000F7010008DFF810D000F0CEFA0048004731
:1001D0004D290008AFF30080100500200648804735
:1001E00006480047FEE7FEE7FEE7FEE7FEE7FEE71C
:1001F000FEE7FEE7FEE7FEE7A51E0008C5010008D2
:100200002DE9F05F0546002092469B46884606464B
:10021000814640241BE0284641464746224600F0DE
:10022000F3F953465A46C01A914110D31146184665
:10023000224600F0DAF92D1A67EB01084F462246F4
:100240000120002100F0D1F917EB00094E41201EDA
:10025000A4F10104DFDC484631462A464346BDE8A6
:10026000F09FD2B201E000F8012B491EFBD270478B
:100270000022F6E710B513460A4604461946FFF772
:10028000F0FF204610BD421C10F8011B0029FBD1D5
:10029000801A70472DE9FE4F804681EA0300C00FA7
:1002A0000C46009021F0004123F00045B8EB02001D
:1002B000A94105D24046214690461C460B460246BF
:1002C00023F00040104347D0270DC7F30A00C3F3C3
:1002D0000A510290401A019040286BDAC3F31300D0
:1002E00040F4801B0098924620B10023D2EB030A11
:1002F00063EB0B0B01985946C0F14002504600F0E9
:1003000074F906460D4650465946019A00F08CF99C
:1003100010EB08006141002487EA115284EAE77378
:100320001A4340D0009A62B3019A012A4FEA075259
:1003300015DC001B61EB02014FF0004202EA07529C
:10034000CDE90042001C41F5801132462B4600F0F9
:100350008CF903B0BDE8F08F40462146F9E7001B59
:1003600061EB0201001C41F5801300185B4120186D
:10037000A2F5001747EB030140EAD570B6196D41AD
:1003800011E06D084FEA360645EAC0754FEA07529C
:10039000001B61EB0201001C41F5801149084FEA86
:1003A00030000019514132462B4603B0BDE8F04FF2
:1003B00000F04CB90098012240000023D0EB02026B
:1003C00063EBE073009821464FEAE074B8EB00005D
:1003D00061EB0401E9E783F000435BE781F0004152
:1003E00058E72DE9FE4F81EA030404F0004421F0B0
:1003F000004100944FF0000B23F0004350EA010449
:100400005ED052EA03045BD0C3F30A54C1F30A5529
:100410002C44A4F2F3340194A0FB0254C1F3130161
:1004200041F48011C3F3130343F4801301FB02442E
:1004300000FB034E840A970A44EA815447EA835733
:10044000A4FB076802958D0A05FB07854FEA932CEC
:1004500004FB0C542705029D4FEA065847EA16375D
:10046000B5EB08056EEB070C870E920E47EA811775
:1004700042EA8312A7FB0201B6EB0B0164EB000416
:100480002B0D43EA0C335E1844EB1C50DA46514600
:10049000E7FB0201C5F313044FEA0B3343EA14539D
:1004A0004FEA0432019C43EA0603A4F10C040294CF
:1004B000009CCDE900B400F0D8F803B0BDE8F08F9F
:1004C00000200146F9E72DE9F04D81EA030404F02C
:1004D000004B21F0004514464FF0000A23F0004184
:1004E00050EA050220D054EA01021DD0C5F30A5794
:1004F0000246C5F31303C1F31300C1F30A5640F4D7
:10050000801543F48013A7EB0608101BD64608F2AB
:10051000FD3873EB050002D308F1010801E09218E1
:100520005B41B8F1000F03DA00200146BDE8F08D11
:1005300000204FF48011064684460EE0171B73EB33
:10054000050705D3121B63EB050306434CEA010CB8
:1005500049084FEA300092185B4150EA0107EDD19B
:1005600052EA030012D082EA040083EA050108433C
:1005700005D0101BAB4106D20122002306E0002269
:100580004FF0004302E06FF0010253101AEB060037
:100590004CEB085110EB0A0041EB0B01BDE8F04DAC
:1005A00000F054B80EB540F2334102910021CDE97C
:1005B00000110A460B4600F058F803B000BD30B5F4
:1005C0000B46014600202022012409E021FA02F511
:1005D0009D4205D303FA02F5491B04FA02F52844AB
:1005E000151EA2F10102F1DC30BD202A04DB203A05
:1005F00000FA02F1002070479140C2F1200320FA76
:1006000003F3194390407047202A04DB203A21FA73
:1006100002F00021704721FA02F3D040C2F120021B
:100620009140084319467047202A06DBCB17203A31
:1006300041FA02F043EAE07306E041FA02F3D040E7
:10064000C2F12002914008431946704710B5141EAC
:1006500073F1000408DA401C41F1000192185B417B
:100660001A4301D120F0010010BD2DE9F04D924652
:100670009B4611B1B1FA81F202E0B0FA80F2203269
:100680009046FFF7B2FF04460F4640EA0A0041EAEF
:100690000B0153465A46084313D0114653EA010052
:1006A00019D0C8F140025046FFF7AEFF05460E468E
:1006B000504659464246FFF798FF084305D00120AF
:1006C00004E020463946BDE8F08D0020054346EAA7
:1006D000E0762C4337430A986305E40AA0EB080050
:1006E0000022FD0A44EA47540A3002D500200146A0
:1006F000E9E7010510196941DDE90845001969417B
:10070000BDE8F04DA2E7C1F30A52C1F3130140F274
:10071000FF3341F480119A4202DA0020014670470B
:1007200040F233439A42A2F2334202DC5242FFF7D4
:100730006BBFFFF75ABF000030B5041E71F1000413
:1007400004DB4FF00044404264EB0101141E73F1DE
:10075000000405DB1C464FF00043524263EB0403E8
:10076000994208BF904230BD064C074D06E0E06854
:1007700040F0010394E8070098471034AC42F6D3E8
:10078000FFF724FDF0290008102A000810B50146E3
:10079000806B026C12F0500F05D0026CD20626D589
:1007A00000F06DFA10BD016C41F400710164016844
:1007B0008A6812F0405F17D1027EAAB9CA6A12F4A1
:1007C000700F02D08A6852050ED44A6822F02002C7
:1007D0004A60016C21F480710164016CC90403D486
:1007E000016C41F00101016400F0C2F910BD806BA1
:1007F000C26CBDE810400846104710B5806B402120
:100800000164416C41F00401416400F038FA10BD0C
:1008100010B5806B00F032FA10BD0000014800F006
:100820002FBA000028000020464910B54A6822F47B
:1008300040324A604A6843681A434A6001684A681D
:1008400022F480724A6001684A68036942EA03221E
:100850004A6001684A6822F040724A6001684A684A
:1008600083681A434A6001688A6822F400628A60D9
:1008700001688A68C3681A438A60816A6FF070628F
:10088000D14201688A6822F070628A6001688A68D1
:100890000CD0836A1A438A6001688A6822F0405249
:1008A0008A6001688A68C36A1A4301E022F04052F4
:1008B0008A6001688A6822F002028A6001688A6898
:1008C000037E42EA43028A6090F820100029016802
:1008D0004A680FD042F400624A6001684A6822F414
:1008E00060424A6001684A68174C436A04EB43332C
:1008F0001A4301E022F400624A600168CA6A22F4E5
:100900007002CA620168CA6A838B104C04EB0353FD
:100910001A43CA6201688A6822F400728A60016818
:100920008A6890F8303042EA43228A6001688A6817
:1009300022F480628A6001688A68406942EA802005
:10094000886010BD0023014000E0FFFF0000F0FFC1
:10095000FEE70000014800F049BB0000B0000020A5
:1009600001681823CAB2103AB2FBF3F2054B6FF3D9
:100970000901032A9B5CC36500D9091D81650846EE
:1009800070470000D029000810B5014600208B698F
:100990008A6A4FF0C07453B1B3F5005F15D072B1DD
:1009A000012A0CD0022A0AD0032A09D104E01AB184
:1009B000012A06D0022A03D1C96AC90100D5012043
:1009C00010BDC96AA142FAD010BD002AF7D0012A91
:1009D000F2D0022AF3D0032AF3D010BD30B5046858
:1009E000256825F480252560046863608368402BB2
:1009F000036803D099600068C26030BD9A600068E7
:100A0000C16030BD704772B6FEE7704778B500240C
:100A1000009490F83C20012A19D0012280F83C2053
:100A20000A6807230568092A13D9EE680A3A02EB17
:100A3000420293409E43EE600B788A680A3B03EBC8
:100A400043039A400368DD682A43DA6010E002201D
:100A500078BD2E6902EB420293409E432E610B78D3
:100A60008A6803EB43039A4003681D692A431A61AD
:100A70004A681F23072A13D205686E6B521E02EBC9
:100A8000820293409E436E630A8893B20A79521E93
:100A900002EB820293400268556B2B43536327E0BD
:100AA00005680D2A12D22E6BD21F02EB82029340F0
:100AB0009E432E630B790A88DB1F92B203EB8303FC
:100AC0009A4003681D6B2A431A6311E0EE6A0D3ADF
:100AD00002EB820293409E43EE620B790A880D3B43
:100AE00092B203EB83039A400368DD6A2A43DA6219
:100AF0001B4B0568194A9D420AD10D68122D07D17A
:100B0000556825F400055560556845F48005556025
:100B100005689D421DD1134D0B68AB4201D0112BCE
:100B200017D1536823F480035360536843F40003E0
:100B300053600968A9420CD10B490C4A0968B1FB02
:100B4000F2F101EB8101490000E0491E009100290A
:100B5000FBD180F83C40002078BD0000002301401C
:100B600000200140120000102400002040420F002D
:100B700070B52F4D2DED048B2888FFF713FD9FEDE9
:100B80002D1B53EC112BFFF72CFC9FED2C9B53ECF2
:100B9000192BFFF798FC41EC180BAC1E84ED028B6F
:100BA0006888FFF7FFFC53EC192BFFF78CFC9FEDD7
:100BB000251B53EC112BFFF714FC9FED241B53EC6A
:100BC000112BFFF708FC9FED231B53EC112BFFF7B4
:100BD0007AFC9FED221B53EC112BFFF75BFBC4E962
:100BE000040153EC182B1FA1204601F031FA2046D6
:100BF000FFF749FB82B24FF0FF352B4621461B48D9
:100C000001F014F894ED040B19A153EC102B2046BD
:100C100001F01EFA2046FFF736FBBDEC048B2B4695
:100C20002146BDE8704082B2104800F0FFBF0000CE
:100C3000020000206666666666660A4000000000E4
:100C400000FEAF400000000000C8A9400000000006
:100C500000C08740000000000000044000000000C9
:100C6000000039406164633D25660A007000002081
:100C700074656D703D25660A00000000704770477E
:100C800070B50446006801684268C1F34001C2F3D0
:100C9000401251B34AB3216CC90603D4216C41F40C
:100CA00000712164816811F0405F17D1217EA9B9DC
:100CB000C16A11F4700F02D0816849050ED44168F1
:100CC00021F020014160206C20F480702064206CB1
:100CD000C00403D4206C40F0010020642046FFF7DC
:100CE00047FF21686FF012000860206801684268C1
:100CF000C1F38001C2F3C01289B382B3216CC9066B
:100D000003D4216C41F400512164816811F4401F27
:100D10001ED1816B11F4401F02D08168490517D4A0
:100D20004168490514D4816811F0405F10D1217EDB
:100D300071B9416821F080014160206C20F480503D
:100D40002064206CC00503D4206C40F001002064B6
:100D50002046FFF75AFE21686FF00C0008602068FB
:100D60000168426811F0010FC2F380120ED06AB11F
:100D70000068C0070AD0206C40F480302064204610
:100D800000F046F821686FF00100086020680168F3
:100D90004268C1F34011C2F3806200290DD0002ADD
:100DA0000BD0616C41F0020161646FF020050560B9
:100DB0002046FFF764FF2068056070BD70B5040031
:100DC0004FF0000503D0206C002610B107E0012091
:100DD00070BD204600F01EF8666484F83C60206C0C
:100DE000C00610D4206C20F4885040F0020020642B
:100DF0002046FFF719FD6664206C20F0020040F0E9
:100E00000100206400E0012584F83C60284670BDA4
:100E10007047000070B586B0064614216846FFF79B
:100E200027FA2149306888423BD1204800250168D3
:100E300041F480710160006800F4807005901B48E7
:100E40001438016841F0010101600068694600F052
:100E500001000590012000900320CDE90105144810
:100E600000F048FA144C1348C4E900050015A560C9
:100E7000C4E90350400060618000C4E906052562B2
:100E80002046656200F082F908B1FFF7BCFDB4634B
:100E9000002211461220A66300F076FB122000F01B
:100EA00065FB06B070BD00000020014044380240E0
:100EB0000000024010640240B0000020F8B50E4669
:100EC00000210446009190F83C00012807D0012041
:100ED00084F83C0020688368DB0702D011E0022020
:100EE000F8BD836843F0010383603748374B0068DF
:100EF000B0FBF3F000EB400000E0401E0090002843
:100F0000FBD120688368DB075CD0236C40F201656D
:100F1000AB4343F4807323644068400505D5206CDF
:100F200020F4005040F480502064206CC00404D5AC
:100F3000606C20F00600606400E0616484F83C109E
:100F4000A16B2448224DC863A16B23480864A16BA0
:100F50002248C86421686FF0220008602068416858
:100F600041F0806141602068816841F48071816056
:100F70002168134632464C31A06B00F071F9686865
:100F80001749C006206806D088421BD1816811F03D
:100F9000405F13D016E08842F8D0124A904203D145
:100FA000D1F80423D206F1D00F4A90420AD1D1F8E9
:100FB000041301F01F011029E8D303E0816841F018
:100FC000804181600020F8BD2400002040420F00D5
:100FD000002301408D07000811080008FB070008E6
:100FE0000020014000210140002201402DE9F8438A
:100FF00004464FF00009CDF8009063484FF41651B5
:10100000A56D0068B0FBF1F72E6894F85C1008201D
:1010100000FA01F131420FD021680A6852070BD55E
:101020000A6822F004020A6094F85C108840A86004
:10103000606D40F00100606594F85C104FF00108AD
:1010400008FA01F0304208D021684969090604D540
:10105000A860606D40F00200606594F85C100420A8
:101060008840304208D021680968890704D5A86003
:10107000606D40F00400606594F85C1010208840BA
:10108000304218D021680968090714D5A860206883
:101090000168490304D50068000308D5A16C07E086
:1010A0000168C90503D4016821F008010160216CC1
:1010B00009B12046884794F85C10202088403042CF
:1010C00031D021680968C9062DD5A86094F835008B
:1010D00005282068016806D0490347D50068000349
:1010E0001DD4616C1CE021F016010160206841698B
:1010F00021F080014161206C08B9A06C20B120680A
:10110000016821F00801016094F85C103F208840DC
:10111000A86084F8349084F83580216D1FE0E16B7D
:1011200009B120468847606D00282BD0606DC0074C
:1011300014D0052084F835002068016821F00101F1
:1011400001600098401C0090B84203D820680068F5
:10115000C007F6D184F8349084F83580E16C00291A
:1011600010D001B02046BDE8F04308470168C9052A
:10117000D5D4016821F01001016084F8349084F81E
:101180003580CCE7BDE8F883240000202DE9F0414C
:10119000044600F089F906465CB1002584F8345015
:1011A000022084F835002068016821F00101016007
:1011B0000DE00120BDE8F08100F076F9801B0528E4
:1011C00005D920206065032084F83500F2E7206807
:1011D0000068C007F0D12268116820480140D4E9B6
:1011E00001031843D4E903363343184363691843B2
:1011F000A3691843E3691843236A18430843616AE3
:10120000042903D1D4E90B13194308431060206863
:101210004069666A20F0070130460E430127042822
:101220000CD1A06A0643E06A40B12046FFF7ACFB50
:1012300020B14020606584F83570BAE720684661C7
:101240002046FFF78DFB94F85C203F2191408160A0
:10125000656584F835700020ACE700003F8010F031
:101260002DE9F0410446866D90F8340000250128F0
:101270000DD0012084F8340094F835700020012F3F
:1012800007D084F8340002252846BDE8F08102200A
:10129000FBE7022784F8357060652046FFF79EFB68
:1012A00094F85C103F208840B0602068016841F0ED
:1012B00016010160206C20B12068016841F008012E
:1012C00001602068016841F001010160DCE7000075
:1012D00070B5044600F0E8F80546601C02D00448EA
:1012E0000078044400F0E0F8401BA042FAD370BD3F
:1012F000180000202DE9F84F00224FF001080325C7
:101300004FF00F0E0B6808FA02F42340A3426ED18F
:101310004E68012E05D0022E03D0112E01D0122EC0
:1013200012D186684FEA420C05FA0CF7BE43CF682B
:1013300007FA0CF7374387604668A6430C79C4F375
:101340000014944034434460C668570005FA07FC13
:101350008C6826EA0C06BC403443C4604C68022CFE
:1013600001D0122C13D1D40800EB8404A346D4F886
:10137000209054074FEAD46A0EFA0AF629EA0609C1
:101380000E6906FA0AF646EA0906CBF820600668F6
:101390000C7926EA0C0604F00304BC4034430460D4
:1013A0004C68E40060D5334C266846F480462660DD
:1013B000246822F0030604F4804400942E4C344444
:1013C000A446D4F808489607370F0EFA07F6B44338
:1013D0002A4EB04201D100261FE0294EB04201D171
:1013E00001261AE0274EB04202D1022615E03BE06A
:1013F000254EB04201D103260FE0244EB04201D168
:1014000004260AE0224EB04201D1052605E0214E15
:10141000B04201D1062600E00726BE402643CCF8A4
:1014200008681D4E34684F689C43FF0300D51C4379
:101430003460194E361D34684F689C43BF0300D595
:101440001C433460144E083634684F689C43FF02D6
:1014500000D51C433460104E0C3634684F689C43F2
:10146000BF0200D51C433460521C102AFFF44AAF5F
:10147000BDE8F88F443802400030014000000240CF
:101480000004024000080240000C0240001002402C
:101490000014024000180240003C01400AB1816182
:1014A00070470904FBE700000148806870470000AE
:1014B000180000200248816802781144816070475A
:1014C000180000200B4810B5016841F4007101605C
:1014D000016841F480610160016841F4807101603C
:1014E000032000F071F8002000F006F800F024F866
:1014F000002010BD003C024070B50D4D04464FF475
:101500007A712878B1FBF0F00A490968B1FBF0F074
:1015100000F012FB48B9102C07D200222146501EC1
:1015200000F032F800206C6070BD012070BD00003A
:1015300018000020240000200B4882B0016841F40C
:1015400080410160006800F4804000900648001F60
:10155000016841F080510160006800F08050009007
:10156000072002B000F030B844380240002809DB00
:1015700000F01F02012191404009800000F1E020AD
:10158000C0F8001170470000F0B40E4B1B680C4609
:10159000C3F30223C3F10705042D00D90425191D47
:1015A000072901D2002300E0DB1E012606FA05F11F
:1015B000491E214099409E40761E16403143F0BCA2
:1015C00000F05ABD0CED00E0064900F00702086883
:1015D0004FF6FF03184040EA0220034A1043086018
:1015E000704700000CED00E00000FA052DE9F0471F
:1015F0000E46050065D0DFF81481D8F80000F7B278
:1016000000F00F00B04207D288F80070D8F8000050
:1016100000F00F00B04254D128683D4C810712D52C
:10162000400703D5206840F4E05020602878000788
:1016300003D5206840F4604020602068A96820F04D
:10164000F000084320602878C0072DD03049686832
:101650000839012812D0022813D0032811D00968B4
:10166000890700292DDA216821F003010143216057
:10167000FFF71AFF814641F2883A0EE009688903B4
:10168000EFE709688901ECE7FFF70EFFA0EB09011E
:10169000514502D90320BDE8F0872068696800F051
:1016A0000C00B0EB810FEFD1D8F80010404601F0EC
:1016B0000F01B14207D90770006800F00F00B04277
:1016C00001D00120E7E72878400705D52068E968C0
:1016D00020F4E050084320602878000706D52068F1
:1016E000296920F4604040EAC100206000F038F829
:1016F0002168084AC1F30311515CC84006490860DB
:1017000006480068FFF7F8FE0020C4E7003C0240EE
:1017100008380240D8290008240000201C000020BE
:101720000448054900680968044AC1F38221515CF4
:10173000C84070472400002008380240E82900080B
:101740000448054900680968044AC1F34231515C04
:10175000C84070472400002008380240E8290008EB
:10176000224810B5006810F00C02214815D0411035
:10177000042A11D01D4C241F082A0FD00C2A0CD18A
:101780002268236802F03F025B0221D52068C0F383
:101790008810A0FB010120E0084610BD22682368E4
:1017A00002F03F025B0205D52068C0F38810A0FB61
:1017B000010104E02168C1F38811A1FB00010023AD
:1017C000FEF71EFD2168C1F30141491C49000AE0F2
:1017D0002168C1F38811A1FB00010023FEF710FD71
:1017E0002168C1F30271B0FBF1F010BD083802406E
:1017F0000024F4002DE9F84F0546DFF828B30078FF
:10180000ABF10407C007A7F1040451D0DBF80010C6
:101810005846C1F3810101290FD00168C1F381014C
:10182000022902D13968490207D40068C0F3810057
:10183000032809D13868400206D52068800337D5CF
:101840006868002872D033E06868B0F5803F10D037
:10185000B0F5A02F206810D020F4803020602068E0
:1018600020F4802020606868A8B1FFF71DFE0646BE
:101870000DE0206840F48030F4E740F480202060E0
:10188000F7E700BFFFF710FE801B642878D82068B8
:101890008003F7D50CE0FFF707FE064605E000BF22
:1018A000FFF702FE801B6428F0D820688003F7D47D
:1018B0002878DFF8749280074FF0000A46D5DBF8ED
:1018C0000010584611F00C0F0FD00168C1F38101D0
:1018D000022902D13968490207D50068C0F38100A6
:1018E000032809D13868400206D42068800715D53E
:1018F000E86801281AD111E0E868C0B10120C9F8F0
:101900000000FFF7D1FD064605E000BFFFF7CCFD64
:10191000801B0228BAD820688007F7D5206829697B
:1019200020F0F80040EAC10020600FE0F7E0C9F8BD
:1019300000A0FFF7B9FD064605E000BFFFF7B4FDC4
:10194000801B02281CD820688007F7D4287800075D
:1019500027D5DFF8D0817548696908F16C0881B135
:1019600001210160FFF7A0FD064604E0FFF79CFDA2
:10197000801B022804D8D8F800008007F6D510E0B4
:1019800089E0C0F800A0FFF78FFD064605E000BF24
:10199000FFF78AFD801B02287DD8D8F80000800759
:1019A000F6D42878400769D55E484FF000083830F3
:1019B0000068C0000BD45B483830016841F08051AA
:1019C000016000684FF0010800F080500090584E10
:1019D0003068C00511D4306840F480703060FFF783
:1019E00063FD009006E000BFFFF75EFD0099401A1E
:1019F000022850D83068C005F6D54A4EA868683627
:101A000001280FD00528306810D020F00100306088
:101A1000306820F004003060A868B8B1FFF744FDDA
:101A200000900FE0306840F00100F4E740F004005F
:101A30003060F7E7FFF738FD0099411A41F288302E
:101A4000814264D830688007F4D50EE0FFF72CFDA2
:101A5000009007E0FFF728FD0099411A41F2883015
:101A6000814254D830688007F4D4B8F1000F05D013
:101A70002C483830016821F080510160A869A8B372
:101A8000DBF80010C1F38101022948D00228C9F80F
:101A900060A005D000E03AE0FFF706FD054639E01A
:101AA000FFF702FD064604E0FFF7FEFC801B02285C
:101AB0002DD820688001F7D4F5E907010843E968CB
:101AC0001C4A490802EB0141AA6841EA8211084315
:101AD000297C40EA0160297D40EA017038600120DC
:101AE000C9F86000FFF7E0FC054606E015E000BF1E
:101AF000FFF7DAFC401B022809D820688001F7D5DF
:101B00000BE000BFFFF7D0FC401B022802D90320E6
:101B1000BDE8F88F20688001F4D40020F8E70120A8
:101B2000F6E700000838024000004742800E4742B6
:101B3000007000400000FFFF10B5401EB0F1807F34
:101B400001D3012010BD4FF0E02460610F21601728
:101B500000F092FA0020A06107202061002010BD53
:101B600070B5040004D094F83900002510B106E0E7
:101B7000012070BD84F83850204600F023F824205E
:101B800084F839002068C16821F40051C160204602
:101B900000F096F92068016921F490410161206804
:101BA000416921F02A0141612068C16841F4005176
:101BB000C160E563202084F8390084F83A000020F1
:101BC00070BD000010B586B0044614216846FEF7CB
:101BD0004FFB13492068884220D112480021026837
:101BE00042F400320260006800F4003005900D48B5
:101BF0001038026842F001020260006800F0010043
:101C000005900C2000900220CDE9010103200390F3
:101C10000720049069460448FFF76CFB06B010BD2E
:101C20000044004040380240000002402DE9F843E3
:101C3000044690F839001F4616460D46202850D11C
:101C4000B5B1AEB194F8380001284AD0012084F82B
:101C500038004FF00008C4F83C80212084F8390097
:101C6000FFF722FCA6848146E68484F8388026E0CB
:101C70000120BDE8F883E08C401EE084A0684B465C
:101C8000B0F5805F4FF000024FF0800120460097D2
:101C900003D000F0A9F9E8B90DE000F0A5F9C8B942
:101CA00028882168C0F308004860206908B16D1CCD
:101CB00005E0AD1C03E0216815F8010B4860E08CDD
:101CC0000028D8D14B46002240212046009700F042
:101CD0008BF908B10320CCE7202084F839000020DC
:101CE000C7E70220C5E7FEE77FB500251B48009542
:101CF0000195029518490395016001244FF4803144
:101D00000461C0E90115047680F820501449C0E947
:101D10000A150226C661C56080F830404461FFF7AD
:101D20004DF808B172B6FEE7CDE9005469460B489C
:101D30000295FEF76BFE08B172B6FEE70948CDE9E1
:101D40000006694605480296FEF760FE002801D0AD
:101D500072B6FEE77FBD0000002001402800002091
:101D60000100000F1200001030B587B01421684642
:101D7000FEF77EFA1E480024016841F0040101606C
:101D8000016801F004010591016841F080010160E2
:101D9000016801F080010591016841F001010160D5
:101DA000016801F001010591016841F00201016043
:101DB0000068104D00F00200059000222021284606
:101DC000FFF76CFB4FF4005000900B48CDE9010485
:101DD00069460A48FFF78EFA202000900120CDE9DD
:101DE0000104694628460394FFF784FA07B030BD22
:101DF000303802400000024000002110000802407C
:101E0000FEE7FEE770477047FFF754BB30B593B06D
:101E100034216846FEF72CFA14210DA8FEF728FAA3
:101E20001E480025016841F080510160006800F003
:101E3000805012901A48016821F4404141F48041D9
:101E400001600068022400F44040129001200390D9
:101E50001020009406940490CDE907504FF4A87028
:101E600009900420CDE90A0468460C94FFF7C2FCEF
:101E700008B172B6FEE70DA90F2081E831004FF4DA
:101E80008050CDE9100502210DA8FFF7AFFB002817
:101E900001D072B6FEE713B030BD000040380240FA
:101EA000007000400548016841F470010160034979
:101EB0004FF00060803908607047000088ED00E056
:101EC0002DE9F041044600680169E26821F44051BF
:101ED000114301612169A068E26908436169114306
:101EE00008432168CA6849F20C639A430243CA60F6
:101EF00020684169A26921F4407111434161E069A0
:101F0000192764253226B0F5004F354A3549206837
:101F10004FF0000806D0884201D0904236D1FFF73A
:101F20000FFC35E0884201D0904202D1FFF708FC57
:101F300001E0FFF7F5FB61684A18A0FB070148EBD9
:101F40000803FEF75DF90146B0FBF5F00201B1FBB5
:101F5000F5F06FF01803584301EB800006EBC0006A
:101F6000B0FBF5F000F0F80002EB4002B1FBF5F039
:101F7000584301EB800006EBC000B0FBF5F000F029
:101F80000700216810448860BDE8F081FFF7C8FBB6
:101F900061688B0F8A00A0FB0701FEF731F901464B
:101FA000B0FBF5F06FF01802504301EB800006EB38
:101FB0000010B0FBF5F000F0F002B1FBF5F002EB21
:101FC0000012B1FBF5F06FF01803584301EB8000ED
:101FD00006EB0010B0FBF5F000F00F00D1E70000B9
:101FE00000140140001001402DE9F04198461746C9
:101FF0000E460446069D1DE0681C1BD02DB1FFF760
:1020000053FAA0EB0800A84214D92068C16821F453
:10201000D071C1602068416921F001014161202037
:1020200084F8390084F83A00002084F8380003204E
:10203000BDE8F0812068006836EA000004D0002086
:10204000B842D9D00020F3E70120F9E7FEE700000D
:102050000FB4084B10B504A902AA039800F0EEF8DB
:10206000044602A9002000F06CFC204610BC5DF87C
:1020700014FB0000432900080907090E002804DBAF
:1020800000F1E02080F80014704700F00F0000F12C
:10209000E02080F8141D704702E008C8121F08C134
:1020A000002AFAD170477047002001E001C1121FD9
:1020B000002AFBD1704700002DE9FF5F82B00021AC
:1020C000DDE90430020DDDF840B0034318D044F6DA
:1020D0001050A2F2FF3242431514119801281FD06C
:1020E000A5EB0B00401C5FEA000A4FF000064E4FC4
:1020F000DFF83891B046504615D5CAF1000413E018
:10210000119801244AA3012801D16FEA0B0102981A
:10211000119AC0E90031C0E9024206B0BDE8F09F63
:10212000CBF10000DFE704460021404A491842EBAA
:102130000450CDE9001012E0E00707D032463B46DC
:1021400040464946FEF74DF98046894632463B46B1
:1021500010461946FEF745F906460F466410002C56
:10216000EAD1DDE90401DDE90023BAF1000F06DA66
:10217000FEF737F942464B46FEF733F905E0FEF726
:10218000A2F942464B46FEF79EF904460E4600224F
:10219000284BFEF7D1FA03D84FF0FF30014607E095
:1021A0000022254B20463146FEF774F8FEF7ABFAC5
:1021B000102409E0002C0ADB0A220023FEF720F895
:1021C000039B30321A55641E50EA0102F2D1641C9E
:1021D000039AC4F111031444119A012A03D0012275
:1021E00008430DD10AE0084304D000204FF0110B42
:1021F000119072E7A3EB0B056D1E0DE05B4504DD4E
:102200004FF0000205F1010504E003DA4FF000028F
:10221000A5F10105002AECD002981199C0E902311C
:10222000C0E9004579E70000000014400000F03FDD
:10223000300000000000F0430000E03F2DE9FF4FB8
:1022400095B09A46884606460025EEE1252877D1C6
:1022500000242746F94A0121039400E0044316F8BC
:10226000013F203B01FA03F01042F7D130782A28D1
:1022700011D06FF02F033078A0F13002092A16D860
:10228000039A44F0020402EB820203EB4202104480
:10229000761C0390EFE758F8042B0392002A03DA28
:1022A000504244F40054039044F00204761C307809
:1022B0002E2816D116F8010F44F004042A280DD058
:1022C0006FF02F023078A0F13003092B09D807EB0B
:1022D000870302EB4303C718761CF3E758F8047B27
:1022E000761C30786C280FD006DC4C2817D0682874
:1022F0000DD06A2814D104E0742810D07A280FD1A8
:102300000DE044F400140AE044F4801401E044F4C5
:1023100040147278824202D104F58014761C761C37
:10232000307866280BD013DC582877D009DC0028D9
:1023300075D04528F6D04628F4D047281AD193E125
:1023400018E0632835D0642879D0652812D18BE154
:10235000702873D008DC6728F1D069286FD06E2808
:102360000DD06F2806D1ACE073282CD0752874D01E
:10237000782853D05246179990476D1C54E1C4F306
:102380000250022809D003280DD0D8F800100428E4
:102390000DD00D6008F1040846E1D8F80010EA17E6
:1023A000C1E90052F6E7D8F800100D80F2E70D7091
:1023B000F0E718F8041B8DF8001000208DF80100DC
:1023C000EB46012003E058F804BB4FF0FF306107F3
:1023D0004FF0000102D40DE009F101018946B94234
:1023E0000FDA8145F8DB1BF809100029F4D108E069
:1023F00009F1010189468142FADB1BF80910002925
:10240000F6D103985346A0EB090721463846179AA0
:1024100000F080FA284400EB090507E044E008E1F9
:102420000DE01BF8010B524617999047B9F10109CD
:10243000F7D2534621463846179AF2E039E00A218E
:10244000C4F302524FF0000B0091022A06D058F854
:10245000040BC117032A09D00AE023E008F10700A2
:1024600020F00702F2E80201904605E000B2C11731
:10247000042A01D140B2C117002906DA0A46002118
:10248000404261EB02012D2202E0220504D52B22FD
:102490008DF80420012203E0E20701D02022F7E7B3
:1024A000914657E00A2100E010214FF0000B009107
:1024B0000BE010214FF0000B44F0040408270091BA
:1024C00003E008204FF0000B0090C4F30252022AF0
:1024D00005D058F8040B0021032A08D008E008F1C1
:1024E000070020F00702F2E80201904603E080B204
:1024F000042A00D1C0B24FF0000922072AD5327851
:10250000702A07D0DDF800C08CF0100C5CEA0B0CD0
:1025100005D00EE040228DF80420012208E050EAA8
:10252000010306D030238DF804308DF805200222F7
:102530009146009B83F0080353EA0B030AD150EA4B
:10254000010201D1620705D530228DF804204FF039
:1025500001097F1E3278582A04D039A20C920CAAA5
:1025600002920BE03BA2F9E75B46009AFDF748FEBA
:102570000C9B9B5C029A521E0292137050EA01025D
:10258000F2D1029804A9081A00F1200B600702D5C5
:1025900024F4803400E001275F4502DDA7EB0B0047
:1025A00000E0002000EB0B01009003984944401A22
:1025B0000390E00306D453462146179A039800F08F
:1025C000A9F90544002706E001A85246C05D179905
:1025D00090476D1C7F1C4F45F6DBE0030CD553463E
:1025E0002146179A039800F095F9054404E030203D
:1025F0005246179990476D1C0099481E009000297B
:10260000F5DC08E00298029952460078491C0291D4
:10261000179990476D1CBBF10001ABF1010BF1DC88
:102620005BE100F065F90544761C307800287FF402
:102630000DAE19B02846BDE8F08F00000928010052
:102640003031323334353637383961626364656628
:1026500000000000303132333435363738394142EA
:102660004344454600000000600700D4062708F1F7
:10267000070020F00700F0E80223804603F0004C3A
:102680005FEA0C0001D097A009E0200501D596A0D3
:1026900005E0E00701D095A001E0AFF24C001390F7
:1026A000307823F0004365280CD006DC452809D09B
:1026B00046281DD047287FD13BE0662818D06728E0
:1026C0007AD136E00021112F01DB112000E0781CC7
:1026D000CDE9000104A90CA8FFF7EEFCDDE90D012E
:1026E0000C9A4FF0000B07F10109109200914EE097
:1026F0004FF000400097CDE9011004A90CA8FFF7A6
:10270000DBFCDDE90D020C9B0F994FF0000B9146AD
:102710001093009211B9791C00EB0109B7EB090085
:1027200003D4C0F1FF3B07F10109A9EB07000190B9
:1027300042E0012F00DA01270021112F01DD1120D5
:1027400000E03846CDE9000104A90CA8FFF7B4FC6D
:10275000DDE90D010C9A00914FF0000BB946109283
:1027600021070FD4009A4A4503DA914601E0A9F106
:102770000109B9F1010F05DD109AA9F10101515CC0
:102780003029F4D0B84202DA10F1040F03DA012143
:10279000CDE9011010E0002803DC8344A9EB00011F
:1027A00002E0411C494500DD8946A0EB0B00401CBE
:1027B00001904FF000400290200705D40198484551
:1027C00002DB4FF0FF30019000208DF84B000298A3
:1027D0000DF14B07B0F1004F25D002200C902B20BB
:1027E0000D90029800280CDA404202902D200D90A6
:1027F00007E00A210298FDF7E2FE3031029007F867
:10280000011D0C99481E0C900029F2DC029800284A
:10281000EFD1791E0D980870307800F0200040F05C
:10282000450007F8020D11A8C01BC01D02901398A7
:10283000007800B1012000EB0901019801EBE07183
:10284000029801440398401A401E0390E00306D406
:1028500053462146179A039800F05CF805441398F4
:10286000007818B15246179990476D1CE00323D5A4
:1028700053462146179A039800F04CF805441BE094
:10288000BBF1000F07DB0098584504DD109817993D
:1028900010F80B0001E0179930205246904701983C
:1028A0000BF1010B401E05F10105019004D12E2012
:1028B0005246179990476D1CB9F10001A9F1010921
:1028C000DEDC05E017F8010B5246179990476D1CA6
:1028D0000299481E02900029F4DC53462146179ABB
:1028E00003989EE62D0000002B0000002000000051
:1028F0002DE9F041044600251E461746880404D4FD
:1029000005E039462020B0476D1C641EF9D52846E5
:10291000BDE8F0812DE9F041044600251E469046B1
:10292000C80301D5302700E02027880404D505E03E
:1029300041463846B0476D1C641EF9D52846BDE8AF
:10294000F0810A68531C0B601070704708B5FEF7E1
:10295000B9FDFFF75BFAFFF707FA19480024016891
:1029600041F4800101600068224600F4800000907C
:1029700021463820FEF708FE3820FEF7F7FDFFF766
:10298000B3F911480F4901604FF41651C0E9011421
:102990000C21C460C0E904418461C461FFF7E0F820
:1029A00008B172B6FEE74FF47A740748022207496D
:1029B0004838FEF783FA2046FEF78AFCF5E7000068
:1029C0003038024000440040700000200200002027
:1029D000000610160006101600000000000000009F
:1029E00001020304060708090000000001020304B5
:1029F000102A00080000002028000000982000088D
:102A0000382A000828000020E8040000A820000858
:102A10002000000000000000000000000000000096
:102A20000000000000000000010000001000000095
:082A3000000000000024F40086
:04000005080001C529
:00000001FF
